:020000040800F2
:10000000C8510024AD020008A34000080D370008C5
:10001000A1400008390400087177000800000000C2
:10002000000000000000000000000000295C000843
:10003000B9040008000000001F4200082B5C000803
:10004000C7020008C7020008C7020008C70200086C
:10005000C7020008C7020008C7020008C70200085C
:10006000C7020008C7020008C7020008C70200084C
:10007000C7020008C7020008C7020008C70200083C
:10008000C7020008C7020008C7020008C70200082C
:10009000C7020008C7020008C7020008C70200081C
:1000A000C7020008C7020008C7020008C70200080C
:1000B000C7020008C7020008C7020008C7020008FC
:1000C000C7020008C7020008C7020008C7020008EC
:1000D000C7020008C7020008C7020008C7020008DC
:1000E000C7020008C702000800000000C70200089D
:1000F000C7020008C7020008C7020008C7020008BC
:10010000C7020008C7020008C7020008C7020008AB
:10011000C7020008C7020008C7020008C70200089B
:10012000C7020008C7020008C7020008C70200088B
:10013000C7020008C7020008C7020008C70200087B
:1001400000000000000000000000000000000000AF
:10015000C7020008C7020008C7020008C70200085B
:10016000C7020008C7020008C7020008C70200084B
:10017000C7020008C7020008C7020008C70200083B
:10018000C7020008C7020008C7020008C70200082B
:10019000C7020008C7020008C7020008C70200081B
:1001A000C7020008C7020008C7020008C70200080B
:1001B000C7020008C7020008C7020008C7020008FB
:1001C000C7020008C7020008C7020008C7020008EB
:1001D000C7020008A5400008C7020008C7020008BF
:1001E000C7020008C7020008C7020008C7020008CB
:1001F000C7020008C7020008C7020008C7020008BB
:10020000C7020008C7020008C7020008C7020008AA
:10021000C7020008C7020008C7020008C70200089A
:10022000C7020008C7020008C7020008000000005B
:10023000C7020008C702000800000000C70200084B
:10024000C7020008C7020008C7020008C70200086A
:10025000C7020008C7020008C7020008C70200085A
:10026000C7020008C7020008C7020008C70200084A
:10027000C7020008C7020008C7020008000000000B
:10028000C7020008C7020008C702000800000000FB
:1002900000000000C7020008DFF80CD000F070F882
:1002A0000048004735880008C851002406488047A8
:1002B00006480047FEE7FEE7FEE7FEE7FEE7FEE74B
:1002C000FEE7FEE7FEE7FEE7215D00089902000871
:1002D00040EA01039B0703D009E008C9121F08C0C8
:1002E000042AFAD203E011F8013B00F8013B521E48
:1002F000F9D27047D2B201E000F8012B491EFBD2BF
:1003000070470022F6E710B513460A460446194620
:10031000FFF7F0FF204610BD2DE9F05F05460020F5
:1003200092469B4688460646814640241BE0284666
:1003300041464746224600F044F853465A46C01A02
:10034000914110D311461846224600F02BF82D1A81
:1003500067EB01084F4622460120002100F022F8F9
:1003600017EB00094E41201EA4F10104DFDC4846D2
:1003700031462A464346BDE8F09F00207047000002
:10038000064C074D06E0E06840F0010394E80700E2
:1003900098471034AC42F6D3FFF782FFD497000899
:1003A000F4970008202A04DB203A00FA02F100202A
:1003B00070479140C2F1200320FA03F319439040A3
:1003C0007047202A04DB203A21FA02F0002170470E
:1003D00021FA02F3D040C2F12002914008431946AD
:1003E000704770B58C1810F8015B15F0070301D148
:1003F00010F8013B2A1106D110F8012B03E010F888
:10040000016B01F8016B5B1EF9D12B0705D40023AA
:10041000521E0DD401F8013BFAE710F8013BCB1A4C
:10042000921C03E013F8015B01F8015B521EF9D541
:10043000A142D8D3002070BDFEE70000F0B5BFF3A5
:100440004F8FBFF36F8F1A4900200860BFF34F8FA3
:10045000BFF36F8F174A116841F400311160BFF389
:100460004F8FBFF36F8F134970310860BFF34F8F09
:10047000081F43F6FF7400680D4D1035C0F34E3170
:10048000C0F3C90304EA4116184600BF46EA807764
:100490002F60401EFAD2491EF4D2BFF34F8F10686E
:1004A00040F480301060BFF34F8FBFF36F8FF0BD0B
:1004B00050EF00E014ED00E07047704770B504465F
:1004C00000F03AF90546601C02D004480078044464
:1004D00000F032F9401BA042FAD370BD7400002432
:1004E0002DE9FC4F01257E4C00234FF0030A4FF00D
:1004F000B04E4FF00F0BEBE005FA03F637403A0031
:1005000077D04F68012F05D0022F03D0112F01D0D3
:10051000122F1AD187684FEA4308D1F80CC00AFAA3
:1005200008F927EA09070CFA08FC4CEA070CC0F89E
:1005300008C0476891F804C0B743CCF3001C0CFA1C
:1005400003FC4CEA070CC0F804C0C6684FEA430C31
:10055000D1F80880E1460AFA0CF7BE43019708FA81
:1005600009F848EA0608C0F80C804E68022E01D04F
:10057000122E12D1DE084FEA437C00EB860600966D
:100580000F69366A4FEADC6C0BFA0CF807FA0CF7C5
:1005900026EA08063743009E37620E790768DDF8C1
:1005A00004C006F0030606FA09F627EA0C073E43E4
:1005B00006604E68F6001CD54A4E376847F00207C1
:1005C000376036689F0706F00206009623F00306A0
:1005D00006F1B046B1463F0FD6F80864DFF808814F
:1005E0000BFA07FC404526EA0C0603D14FF0000C3D
:1005F00041E06CE0DFF8F4C0604502D14FF0010C3F
:1006000039E0DFF8ECC0604502D14FF0020C32E077
:10061000DFF8E0C0604502D14FF0030C2BE0DFF8BB
:10062000D8C0604502D14FF0040C24E0DFF8CCC004
:10063000604502D14FF0050C1DE0DFF8C4C06045F5
:1006400002D14FF0060C16E0DFF8B8C0604502D1C9
:100650004FF0070C0FE0DFF8B0C0604502D14FF05B
:10066000080C08E0DFF8A4C0604502D14FF0090C87
:1006700001E04FF00A0C0CFA07FC4CEA060CC9F832
:1006800008C426684F6826EA0206FF0300D5164311
:10069000266066684F6826EA0206BF0300D5164347
:1006A0006660D1F804C07646DEF800705FEACC2CB4
:1006B00027EA020700D517433760D1F804C07768EE
:1006C0005FEA8C2C27EA020700D5174377605B1C92
:1006D0000A681746DA407FF40FAFBDE8FC8F0000D0
:1006E00080000058F44402580000025800040258E8
:1006F00000080258000C025800100258001402585A
:1007000000180258001C0258002002580024025809
:100710000AB1816170470904FBE7000002480068E4
:10072000C0F30B00704700000010005C0148006837
:10073000000C70470010005C0148806870470000A2
:1007400074000024074908B50A6842F002020A60F2
:10075000096801F00201009103490A6802430A6036
:1007600008BD0000F444025804040058024881689F
:10077000027811448160704774000024032010B592
:1007800000F0D4F801F0B2FD0F4A10491468136864
:10079000C4F3032203F00F038A5CC95C02F01F025A
:1007A00001F01F01D0400A4A20FA01F11160094905
:1007B0000860002000F010F808B1012010BD00F022
:1007C00079F8002010BD000018440258088C000879
:1007D000840000248000002470B50D4D0446287864
:1007E000A0B14FF47A71B1FBF0F00A490968B1FB8E
:1007F000F0F002F0D2FD48B9102C07D200222146B9
:10080000501E00F073F800206C6070BD012070BDB8
:100810007400002480000024F0B5154C4378211D9D
:100820000A1D23600378F3B143680B60057BC67A29
:10083000817A437B2D07847B45EA0665C77B90F868
:1008400009C0067A90F800E045EAC14040EA8340DA
:1008500040EA444040EA074040EA0C2040EA4600B3
:1008600040EA0E0001E0002008601060F0BD0000CA
:1008700098ED00E0BFF35F8F044800210368034A4E
:1008800023F48033036070321160704724ED00E080
:10089000074A40F00100064970321060086840F4D1
:1008A00080300860BFF34F8FBFF36F8F7047000039
:1008B00024ED00E0054808B5016841F0020101603F
:1008C000006800F00200009008BD0000F4440258E7
:1008D000002809DB410900F01F028900012001F115
:1008E000E0219040C1F80001704700000E4BF0B4C9
:1008F0001B680D46C3F30223C3F10706042E00D97B
:100900000426191D072901D2002300E0DB1E012463
:1009100004FA06F19C40491E2940641E9940144087
:100920002143F0BC07F0C3B90CED00E0064900F02C
:10093000070210B54FF6FF040868044B204040EA58
:1009400002201843086010BD0CED00E00000FA051D
:1009500001680123C0F8FC33002280F8F423886981
:10096000044A40F000608861486D104348650020EB
:1009700070470000030000107047006841620020CB
:100980007047F0B503685D6A39B19F6A4C1E00205C
:100990004FF4827605EB17450BE045EA024098627A
:1009A00010E0471C06EB800053F800C0F8B205EBDE
:1009B0001C45A042F5D34FF4807000EB810045EA5E
:1009C00002421A500020F0BDD0F8040405F016BE13
:1009D000C1EBC10200EB8202D0F80404926C05F076
:1009E0006BBDC1EBC10200EB8202D0F80404D2F867
:1009F000082205F0C2BDD0F8040405F001BE01F0E4
:100A00000F020B0670B5C2EBC20104464FF00100A5
:100A10004FF0000504EB810103D581F83D003C3126
:100A200003E081F8FD5101F5FE710A7094F8BC23D2
:100A3000012A08D084F8BC03206806F057FA002089
:100A400084F8BC5370BD022070BD70B54268044686
:100A500001F00F00904201D9012070BD01F00F029A
:100A60004FF000050B06C2EBC2014FF0010204EB90
:100A7000810103D581F83D203C3103E081F8FD512F
:100A800001F5FE718D70087094F8BC03012808D040
:100A900084F8BC23206806F0FDFB002084F8BC53DA
:100AA00070BD022070BD10B5044690F8BC0301284B
:100AB0000AD0012084F8BC0320680A0606D501F09C
:100AC0000F0106F049FD03E0022010BD06F034FDE1
:100AD000002084F8BC0310BD01F00F01C1EBC1017F
:100AE00000EB8100D0F8140270472DE9F04101F0CD
:100AF0000F0604460D064FF00100C6EBC6014FF08D
:100B0000000504EB810103D581F83D003C3103E091
:100B100081F8FD5101F5FE714F788A60CB700E703F
:100B200007B1CE80022B00D10D7194F8BC23012AAD
:100B300009D084F8BC03206806F032F9284684F80E
:100B4000BC53BDE8F0810220FBE770B501F00F0552
:100B50000C460026C5EBC50100EB8101C1F8082257
:100B6000C1E9843681F8FD6181F8FC5101F5FE711F
:100B70000369012B00D10A612207027C006803D0BF
:100B800006F0E0FB002070BD06F0CAFAFAE770B587
:100B90000D464168044605F00F00884201D9012046
:100BA00070BD29064FF000064FF0010207D5C0EBDB
:100BB000C00104EB810181F83D203C3107E0C5EB29
:100BC000C50104EB810181F8FD6101F5FE718A70B8
:100BD000087094F8BC03012807D084F8BC2320686F
:100BE00006F084FB280702D007E0022070BD217CBC
:100BF00004F57172206806F021FB002084F8BC63C4
:100C000070BD2DE9F04101F00F050C460026C5EB43
:100C1000C501012700EB81018A64C1E9143681F81E
:100C20003D7001F83C5F0369012B00D10A61220786
:100C3000027C006804D006F085FB0020BDE8F0814E
:100C400006F06EFAF9E700002DE9FC5F056804463E
:100C5000284606F0A0FC00287ED1206806F0C7FCDC
:100C6000002879D0206806F0C2FC800704D52068EF
:100C7000416901F002014161206806F0B8FCC1063B
:100C800004F57170009034D52068816921F010015D
:100C900081612F6A07F00F01C7F34340C1EBC10127
:100CA000022804EB810606F5FE7602D0062811D054
:100CB0001AE047F6F070074216D0C7F30A12F1683F
:100CC0001746284606F097FCF168B0693944F16090
:100CD000384408E000990822284606F08CFCB069E8
:100CE000C7F30A110844B0612068816941F010011E
:100CF0008161206806F07BFC00034FF001094FF092
:100D0000080B5BD52068002606F050FCDFF8A8A38E
:100D1000074651E0F8074DD02068F1B206F05FFCBD
:100D20008046C00707D005EB4611C1F8089B314645
:100D3000204603F0BDF95FEA087022D505EB4611A5
:100D4000C1F808BB2068016C00EB461001915145C9
:100D5000D0F8081B07D900E0ABE1090403D54FF434
:100D60000041C0F8081B204600F098FA0198504551
:100D700007D92069012804D120680121009A06F0D2
:100D80005DFA5FEAC86004D505EB46111020C1F892
:100D9000080B5FEA886004D505EB46102021C0F8F7
:100DA000081B5FEA884005D505EB46114FF400505B
:100DB000C1F8080B7F08761C002FABD1206806F025
:100DC00016FC40034FF0000A5CD5206806F0E7FBF4
:100DD0000026074654E0F80750D02068F1B206F02C
:100DE000ECFB8046C00723D0D5F8342806F00F0C62
:100DF00005EB461309FA0CF08243C5F83428C3F812
:100E00000899206901280FD1C6EBC60004EB8000C9
:100E1000D0E911121144816436B9206D20B92068DF
:100E20000121009A06F00AFA2046F1B2FFF7D0FD40
:100E30005FEA087003D505EB4611C1F808B95FEA0F
:100E4000C86004D505EB46111020C1F808095FEA17
:100E5000486004D505EB46114020C1F808095FEA57
:100E6000887004D505EB46110220C1F808095FEA35
:100E7000086003D53146204603F080F97F08761CD0
:100E8000002FA8D1206806F0B2FB002811DAD5F8AF
:100E9000040820F00100C5F8040894F8F4030128C0
:100EA00039D0204600F0DEF92068416901F00041A8
:100EB0004161206806F09BFB00050BD5D5F80808BA
:100EC000C00702D0204600F011FA2068416901F401
:100ED00000614161206806F08AFB00010AD52068A4
:100EE000416901F00061416194F8F403D0B12046FA
:100EF00000F0FCF9206806F07AFBC00476D5D5F83E
:100F0000040820F00100C5F804082068102106F04C
:100F100023FB002135E00021204684F8F4A3FFF7ED
:100F20002BFDC1E784F8F4932068406D0121C0F3E4
:100F30008300C4F8F8032046FFF71EFDDAE700BF80
:100F400005EB41104FF67F32C0F80829D0F8003980
:100F500023F40013C0F80039D0F8003943F00063DF
:100F6000C0F80039C0F8082BD0F8002B22F400128A
:100F7000C0F8002BD0F8002B42F00062C0F8002B24
:100F8000491C60688842DBD8D5F81C0840F0011085
:100F9000C5F81C08206B60B1D5F8840840F00B0040
:100FA000C5F88408D5F8440840F00B00C5F844089B
:100FB0000CE0D5F8140842F22B010843C5F81408D8
:100FC000D5F8100840F00B00C5F81008D5F8000857
:100FD00020F4FE60C5F80008217C2068009A06F025
:100FE0002DF92068416901F480514161206806F0C3
:100FF000FEFA800417D5206805F012FF206806F07D
:10100000BDFAE06001F050F90146207B2368C2B2CE
:10101000184606F027FB204600F00EF920684169CB
:1010200001F400514161206806F0E1FA000707D59C
:10103000204600F01BF92068416901F00801416178
:10104000206806F0D4FAC00208D50021204600F03E
:1010500035F82068416901F480114161206806F08B
:10106000C6FA800208D50021204600F02BF820683F
:10107000416901F400114161206806F0B8FA4000AE
:1010800007D52046FFF7A0FC2068416901F08041A8
:101090004161206806F0ABFA40070AD52068456830
:1010A000680702D52046FFF7A6FC21684868284358
:1010B0004860BDE8FC9F00000A30544FD0F804049B
:1010C00005F0F8BAD0F8040405F0F6BA2DE9F041BD
:1010D00004008AB005D094F8BD030025266820B12D
:1010E00008E001200AB0BDE8F081204684F8BC5336
:1010F00000F066F8032084F8BD03F06BC00500D44F
:101100002561206806F006F804F1100168462822DF
:101110008846FFF7DDF894E80F0005F08FFE022700
:10112000D8BB2068002106F074FA0020012610E0E8
:10113000C0EBC001421C04EB810181F83D6081F8E5
:101140003F504D648D640D6581F83C00A1F842006C
:10115000D0B261688142EBD8002011E0C0EBC00141
:10116000421C04EB810181F8FD5181F8FF51C1F867
:101170000452C1F80852C1F8105281F8FC01D0B2F3
:1011800061688142EAD8282241466846FFF7A0F804
:1011900094E80F0005F002FF10B184F8BD73A0E7DA
:1011A000606A84F8385084F8BD63012802D1204673
:1011B000FFF7CEFB206805F0E5FE002092E7000077
:1011C00010B586B0044614216846FFF79AF817490F
:1011D0002068884228D11648016841F00101016069
:1011E00000680A23022200F00100059000204FF45D
:1011F000C05100916946CDE90120CDE903030D48B6
:10120000FFF76EF90A480838016841F00061016093
:1012100000680022012100F0006005906520FFF7C2
:1012200065FB6520FFF754FB06B010BD00000840C9
:10123000E04402580000025870B50446C068012519
:1012400070B1022801D0FFF738F9D4F80404294618
:1012500005F087FAD4F80404BDE8704005F043BAFD
:101260000025F2E7D0F8040405F065BAD0F80404CC
:1012700005F06BBA10B5044690F8BC0301280BD0FA
:10128000012084F8381084F8BC03206806F0D8F9EF
:10129000002084F8BC0310BD022010BDD0F8042447
:1012A00000F57171104605F068BA10B590F8BC13DE
:1012B00004460068012906D0A26A012184F8BC1303
:1012C000012A02D008E0022010BDA169012903D043
:1012D000816B41F480318163206805F047FE20680E
:1012E00006F024F9002084F8BC0310BD10B50446B4
:1012F000D0F8040405F07EFA2068D0F8001E41F012
:101300000101C0F8001E206A002804D002480168CC
:1013100041F00601016010BD10ED00E0134970B509
:101320000A68D243520705D5096801F007018142D6
:1013300013D118E00A6822F0070202430A60FFF79F
:10134000FBF90A4D4FF47A760446083D07E000BFEA
:10135000FFF7F2F9001BB04201D9012070BD2868E7
:10136000C0438004F4D4002070BD00000C48025833
:101370000248016841F08071016070470C480258D2
:101380002DE9F84F1E4615468A460446FFF7D4F964
:10139000814694F8400001280ED001274FF0000844
:1013A00084F8407094F84100012807D05FF00200F3
:1013B00084F84080BDE8F88F0220FBE74221C4F8A2
:1013C000448084F84110002220214B46204600969C
:1013D00003F083F80028EBD121682868886221682F
:1013E000686848622168A868C8622068296902683C
:1013F00022F4400242F4800211430160E9684FF098
:1014000000622046CAF82810514602F03FFF012230
:101410004B4608212046009603F05FF80028C7D10C
:1014200022680821D16084F84170C1E72DE9F84FA6
:1014300017468B460446FFF77FF9824694F8400032
:1014400001280ED001264FF0000884F8406094F87F
:101450004100012807D0022584F840802846BDE8D5
:10146000F88F0220FBE74FF00209C4F8448084F8AB
:1014700041900022202153462046009703F02DF88A
:101480000500E9D100225946204602F0FFFEDBF8B4
:10149000240058B90122534602212046009703F048
:1014A0001CF80500D8D12168C1F80C9084F841607F
:1014B000D2E70000F8B50446FFF73EF905461CB137
:1014C00094F8410010B107E00120F8BD204600F07B
:1014D00047F841F28830A06420686FF0FF02A168ED
:1014E000036802EB012223F4706111430160A06CD8
:1014F000002220212B460090204602F0EEFF00281B
:10150000E3D12268D4E907352679E168176845EA0E
:101510000665DFF844C01943104B29430025012616
:1015200007EA0C07394311602268D4E90517B4F8BB
:1015300010C0D2F804E039430EEA030E4EEA0C4321
:101540001943516021680A6842F001020A6065642B
:1015500084F84160F8BD00002FFFFF00FEF8E0FFB7
:101560002DE9F04186B0044614216846FEF7C9FE15
:101570002C492068884252D12B48016841F48041AF
:101580000160006800F48040059027480C30016835
:1015900041F010010160016801F01001059101683E
:1015A00041F002010160016801F00201059101684A
:1015B00041F0080101600068092701AA4FF0040802
:1015C00000F00800CDF80080022469460025CDE92E
:1015D00004700326154882E87000FEF781FFCDE90C
:1015E000008402AADFF848806946404682E8E000AD
:1015F000FEF776FF4FF4605069468DE8F1000D4824
:10160000FEF76EFF0A214020CDE903618DE831002D
:1016100069464046FEF764FF1020FFF793F806B0D6
:10162000BDE8F08100500052D44402580010025826
:1016300000040258000C02582DE9F84F15460E46DA
:101640000446FFF779F882462068816994F84030B3
:1016500000F12009012B0DD001274FF0000884F87C
:10166000407094F84120012A06D0022084F840807E
:10167000BDE8F88F0220FBE7C4F84480A6B322221D
:1016800084F841200269521CA2630269521C626301
:101690002663426922F0406242F080624261206823
:1016A00081610EE00621204602F017FFC8B999F8C3
:1016B0000000216B0870206B401C2063A06B401E53
:1016C000A063A06B53464FF0010200950028E9D1BA
:1016D0004FF00201204602F000FF10B922680221FB
:1016E000D16084F84170C1E7FFE7616C012041F0EF
:1016F00008016164BAE700002DE9F84F15460E466F
:101700000446FFF719F894F8401082462068012932
:1017100000F120090ED001274FF0000884F8407036
:1017200094F84110012907D05FF0020084F840804E
:10173000BDE8F88F0220FBE7C4F8448086B312218D
:1017400084F841100169491CE1620169491CA162E8
:101750006662416921F0406141610EE0042120464A
:1017600002F0BBFEC8B9606A017889F80010606AAF
:10177000401C6062E06A401EE062E06A53464FF03F
:10178000010200950028E9D14FF00201204602F045
:10179000A4FE10B922680221D16084F84170C5E727
:1017A000FFE7616C012041F008016164BEE70000C1
:1017B0002DE9FC5F044650F8241B002500902E46BE
:1017C0000801FE4FDFF8F8831DD5606E50B1B0F50B
:1017D000801F0CD0B0F5001F0ED0B0F5401F1DD0FB
:1017E00001250FE0386840F40030386016E002212F
:1017F000201D02F0DBFE03E00098022102F066FFEC
:1018000005000BD02E462088C00523D5606D052825
:101810001ED2DFE800F00C11161B1B00626ED8F818
:10182000001021F440111143C8F80010EBE73868AC
:1018300040F40030386009E00021201D02F0B6FEBF
:1018400003E00098002102F041FF05466DB100E081
:1018500001252E462088800528D5A06D80281ED021
:101860000CDC90B140280ED114E0626DD8F8001065
:1018700021F007011143C8F80010EBE7C02813D08E
:10188000B0F5807F10D001250FE0386840F40030BB
:10189000386009E00021201D02F088FE03E0009876
:1018A000002102F013FF054695B12E462088DFF88F
:1018B0001093400509F108092CD5D4F8A400B0F51F
:1018C000800F20D00DDCA0B1B0F5001F0FD115E0C6
:1018D000A26DD8F8001021F4E0711143C8F800108F
:1018E000E4E7B0F5C00F13D0B0F5000F10D001251C
:1018F0000FE0386840F40030386009E00021201D16
:1019000002F054FE03E00098002102F0DFFE0546DD
:1019100075B12E46208800052DD5D4F8A800B0F169
:10192000007F21D00EDCA8B1B0F1807F10D116E08D
:10193000D4F8A420D9F8001021F460011143C9F8AB
:101940000010E7E7B0F1407F13D0B0F1806F10D006
:1019500001250FE0386840F40030386009E00021CC
:10196000201D02F023FE03E00098002102F0AEFEED
:1019700005468DB12E462068DFF844B28001ABF1F8
:10198000040B1FD5A06CD8B110280FD0202812D07E
:10199000302815D0012514E0D4F8A820D9F800107B
:1019A00021F0E0611143C9F80010E4E7386840F421
:1019B0000030386004E00221201D02F0F7FD0546EA
:1019C0006DB12E462088C0042BD5E06DB0F5005FC8
:1019D00020D00DDCA0B1B0F5805F0FD115E0A26C76
:1019E000DBF8001021F030011143CBF80010E9E7DB
:1019F000B0F5405F13D0B0F5804F10D001250FE057
:101A0000386840F40030386009E00021201D02F001
:101A1000CDFD03E00098002102F058FE054685B197
:101A20002E462088800429D5206EB0F5403F23D073
:101A300010DC08B3B0F5803F14D0B0F5003F0FD1F3
:101A400015E0E26DD8F8001021F4E0411143C8F828
:101A50000010E6E7B0F5802F0ED0B0F5A02F0BD028
:101A600001250AE00121201D02F0A0FD03E00098FD
:101A7000012102F02BFE05468DB12E462088400440
:101A80002AD5D4F8AC00B0F1405F23D010DC08B305
:101A9000B0F1805F14D0B0F1005F0FD115E0226E7D
:101AA000D8F8001021F4E0211143C8F80010E5E750
:101AB000B0F1804F0ED0B0F1A04F0BD001250AE05D
:101AC0000121201D02F072FD03E00098012102F0C7
:101AD000FDFD05466DB12E46208800041FD5E06E41
:101AE000D8B1B0F1805F0ED0B0F1005F10D0012509
:101AF00014E0D4F8AC20D9F8001021F0E0411143F3
:101B0000C9F80010E8E7386840F40030386004E0B5
:101B10000121201D02F04AFD05466DB12E462068C8
:101B2000C0011ED5606CD0B101280ED0022811D0A2
:101B3000032814D0012513E0E26ED8F8001021F03C
:101B400040511143C8F80010E9E7386840F400300C
:101B5000386004E00221201D02F028FD054665B131
:101B60002E462068400257D51648016841F480711E
:101B70000160FEF7E1FD82460EE0626CDBF80010CA
:101B800021F003011143CBF80010EAE7FEF7D4FD82
:101B9000A0EB0A0064283DD80A480068C005F5D5C6
:101BA0007DBBDFF81CA0B4F8B0100AF1200ADAF807
:101BB000000001F4407100F4407005E02C4402582C
:101BC0005044025800480258884211D0DAF80010F8
:101BD000DAF8002021F4407142F48032CAF8002083
:101BE000DAF8002022F48032CAF80020CAF8001087
:101BF000D4F8B000B0F5807F21D1FEF79DFD0190B3
:101C000019E008E0FEF798FD0199411A41F2883089
:101C1000814210D903252E462078DFF80CA4C00796
:101C20003DD0A06F182838D026DC80B3082829D0F2
:101C3000102825D12CE0DAF800008007E2D5D4F88E
:101C4000B010C1F301200328F8480DD0016821F439
:101C50007C510160B4F8B020DAF80010C2F30B0236
:101C60001143CAF80010D7E7F14A036802EA1112DB
:101C700023F47C511143ECE720280ED028280CD007
:101C800001250BE00121201D02F090FC04E004E09E
:101C90000098012102F01AFD05465DB12E4620781C
:101CA00080071ED5606F062819D2DFE800F0160CF9
:101CB00011161616A26FDAF8001021F03801114340
:101CC000CAF80010EBE70121201D02F06FFC03E0D1
:101CD0000098012102F0FAFC054675B100E00125EB
:101CE0002E46207840071FD5D4F89000062819D238
:101CF000DFE800F0160C11161616626FDAF8001005
:101D000021F007011143CAF80010EAE70121201D64
:101D100002F04CFC03E00098012102F0D7FC0546DC
:101D20009DB100E001252E46207880062BD5D4F801
:101D30008C00B0F1405F24D011DC10B3B0F1805FB3
:101D400015D0B0F1005F10D116E0D4F89020D9F88A
:101D5000001021F007011143C9F80010E4E7B0F1C9
:101D6000804F0ED0B0F1A04F0BD001250AE000212A
:101D7000201D02F01BFC03E00098022102F0A6FCEB
:101D800005468DB12E46207840062BD5D4F8980014
:101D9000B0F5406F24D011DC10B3B0F5806F15D0D2
:101DA000B0F5006F10D116E0D4F88C20DAF80010EE
:101DB00021F0E0411143CAF80010E4E7B0F5805F7C
:101DC0000ED0B0F5A05F0BD001250AE00021201D48
:101DD00002F0ECFB03E00098022102F077FC0546DC
:101DE0008DB12E46207800062BD5D4F89C00B0F596
:101DF000C04F24D011DC10B3B0F5005F15D0B0F5A2
:101E0000804F10D116E0D4F89820D9F8001021F4B2
:101E1000E0511143C9F80010E4E7B0F5004F0ED0CF
:101E2000B0F5204F0BD001250AE00021201D02F063
:101E3000BDFB03E00098022102F048FC05464DB1CD
:101E40002E46207800071ED5D4F88000B0F5805FBC
:101E50000AD00FE0D4F89C20D9F8001021F460419A
:101E60001143C9F80010ECE70098022102F02EFCA3
:101E700000B10126D4F88020DAF8001021F4405196
:101E80001143CAF800102078C00613D5D4F8940086
:101E9000B0F5807F05D10098022102F017FC00B157
:101EA0000126D4F89420D9F8001021F44071114390
:101EB000C9F800102068000316D5D4F8A00038B186
:101EC000B0F5803F09D0B0F5003F0BD001250AE006
:101ED0000021201D02F06AFB03E00098022102F0BD
:101EE000F5FB054685B12E462068400322D5D4F87F
:101EF0008400B0F5801F11D0B0F5001F13D0B0F5ED
:101F0000401F15D0012514E0D4F8A020D9F8001006
:101F100021F440311143C9F80010E5E7386840F476
:101F20000030386004E00098012102F0CFFB054644
:101F300055B12E462068C0031CD5E06C70B1B0F5D9
:101F4000803F10D0012514E0D4F88420DAF8001086
:101F500021F440111143CAF80010EBE7386840F44F
:101F60000030386004E00221201D02F01FFB05460E
:101F7000CDB12E462068800005D50098022102F0E0
:101F8000A5FB00B10126206880031BD5E06FB8B126
:101F9000B0F5807F10D0B0F5007F11D0B0F5407F54
:101FA0000ED001250DE0E26CDBF8001021F4803149
:101FB0001143CBF80010DDE7386840F4003038609A
:101FC000C5B32E462068C00207D5226FD8F800108E
:101FD00021F000411143C8F800102068800207D5A5
:101FE000A26ED8F8001021F080711143C8F80010DB
:101FF0002068400009D50D48016821F400410160C6
:102000000168D4F8B820114301602068002807DA7D
:10201000226DDBF8001021F040511143CBF8001085
:1020200096B10120BDE8FC9F544402581044025868
:10203000CFFFFF00FFE7E26FDAF8001021F44071F4
:102040001143CAF80010BDE70020EBE72DE9F05F6F
:1020500004000F467ED0DFF83882D8F8000000F088
:102060000F00B8420CD2D8F8001021F00F0139430C
:10207000C8F80010D8F8000000F00F00B84269D18D
:102080002078844D40070AD52069296801F0700145
:10209000884204D9296821F0700101432960207821
:1020A0007C4E361D00070AD56069316801F0700169
:1020B000884204D9316821F07001014331602078F1
:1020C000C0060AD5A069316801F4E061884204D9EC
:1020D000316821F4E061014331602078DFF8B4B168
:1020E00080060BF1080B0CD5E1695846DBF800209F
:1020F00002F07002914204D9026822F070020A4391
:102100000260207880070AD5E068296801F00F0195
:10211000884204D9296821F00F0101432960207801
:10212000C0073ED05B49A2682868183920F4706067
:10213000104328606068022818D0032819D0096865
:10214000012819D0490700294ADADFF848A1AAF185
:10215000080A00E044E0DAF8002022F00702024317
:10216000CAF80020FEF7E8FA814612E00968890300
:10217000E9E709688901E6E7C905E4E7FEF7DCFA63
:10218000A0EB090141F28830814202D90320BDE869
:10219000F09F6168DAF8000000F03800B0EBC10F82
:1021A000ECD1207880070AD5E068296801F00F019A
:1021B000884204D2296821F00F0101432960D8F830
:1021C0000010404601F00F01B9420BD9016821F01F
:1021D0000F0139430160006800F00F00B84201D0E0
:1021E0000120D4E7207840070AD52069296801F04A
:1021F0007001884204D2296821F0700101432960EE
:10220000207800070AD56069316801F070018842C2
:1022100004D2316821F07001014331602078C0069A
:102220000AD5A069316801F4E061884204D23168BE
:1022300021F4E06101433160207880060CD5E1692A
:102240005846DBF8002002F07002914204D2026886
:1022500022F070020A43026000F048F80E492A6832
:102260002B68C2F3032203F00F038A5CC95C02F0FF
:102270001F0201F01F01D040084A20FA01F111604D
:102280000749086007480068BDE8F05FFEF7A4BA98
:102290000020005218440258088C000884000024D2
:1022A000800000247800002430B500F01FF80B4AAD
:1022B0000B490C4B15681468C5F3032204F00F0496
:1022C0008A5C095D02F01F0201F01F01D040064A3E
:1022D00020FA01F119601060084630BD1844025818
:1022E000088C00088400002480000024454970B553
:1022F00045480968434B103B11F0380208D00111E2
:10230000082A03D0102A0BD0182A0BD0084670BD1B
:1023100019688906FBD51968C1F3C101C84070BDB1
:102320003A4870BD3749374D18310C1D24350A68BD
:10233000096826682D6802F0030406F00102C1F363
:102340000511C5F3CC0515FB02F200EE102AB8EE1C
:10235000400AE9B32F4ADFED2E0AB7EE001A6CB13E
:10236000DFED2D1A012C01D0022C43D002EE101A01
:102370001068F8EE422A81EEA22A1EE01C68A4062C
:1023800011D51B6801EE901A1168C3F3C103F8EE72
:10239000612AD84001EE900AC1F30800F8EE611AF4
:1023A00081EEA22A0BE001EE901ADFED1C2A00BF9D
:1023B000F8EE611A106882EEA12AC0F3080001EE5F
:1023C000900AF8EE611A40EE201A31EE810A00E020
:1023D00015E022EE000A1068C0F34620401C00EE13
:1023E000900AF8EE600A80EE201ABCEEC10A10EEE8
:1023F000100A70BD01EE901ADFED092AD8E700201F
:1024000070BD0000104402580090D00340787D0158
:1024100000000039304402580024744A0024744CEF
:1024200020BCBE4B2DE9F05F04007CD0FF4F20782C
:10243000FE4D1837DFF8F493103DC00748D0D9F8A7
:102440000000396800F03800102815D0182803D192
:1024500001F0030002280FD06068B0F5803F12D071
:1024600010B1B0F5A02F18D0286820F48030286073
:10247000286820F4802009E02868800328D5606857
:102480000028D2D024E0286840F4803028606068BA
:1024900088B1FEF751F9064609E0286840F480202B
:1024A0002860F0E7FEF748F9801B64287ED828688A
:1024B0008003F7D50CE0FEF73FF9064605E000BFC4
:1024C000FEF73AF9801B6428F0D828688003F7D417
:1024D000207841F20308D54E0C3E80074BD5D9F841
:1024E0000000396810F038000ED0182801D1880794
:1024F0000AD0E06868B3296821F019010143296016
:10250000FEF71AF9824619E02868400702D5E0680C
:1025100000288AD0FEF70AF9404513D820693168AF
:1025200021F47C3100E0BEE041EA0030306022E07E
:10253000FEF702F9A0EB0A000228B7D82868400786
:10254000F6D5E7E7207C316821F0FE4141EA0060E2
:10255000ECE7286820F001002860FEF7EDF88246DD
:1025600006E000BFFEF7E8F8A0EB0A0002289DD8BD
:1025700028684007F6D42078C00659D5D9F800005D
:10258000DFF8A8B2396800F03800ABF1040B082876
:1025900012D0182803D101F0030001280CD0E06903
:1025A0000028286834D040F0800000E0DCE028609B
:1025B000FEF7C2F8824623E02868C00523D5E0690B
:1025C000802870D11FE000BF94F82000316821F00E
:1025D000F84141EA806030602AE000BF94F82010A2
:1025E000DBF8002022F07C5242EA0161CBF80010B7
:1025F0001EE000BFFEF7A0F8A0EB0A0002289CD85E
:102600002868C005F6D5FEF791F84045E6D8DBE727
:1026100020F080002860FEF78FF8064605E000BF36
:10262000FEF78AF8801B022887D82868C005F7D4EF
:102630002078000729D57D486169643000298046EB
:10264000016811D041F001010160FEF775F80646FE
:1026500005E000BFFEF770F8801B022887D8D8F885
:1026600000008007F6D510E021F001010160FEF7BF
:1026700063F8064605E000BFFEF75EF8801B0228FF
:1026800072D8D8F800008007F6D42078800623D5C9
:10269000A0690028286810D040F480502860FEF718
:1026A0004BF8064605E02EE1FEF746F8801B0228AF
:1026B0005AD828688004F7D50EE020F480502860AE
:1026C000FEF73AF8064604E0FEF736F8801B0228CB
:1026D0004AD828688004F7D4207840074FD5DFF81F
:1026E0005081D8F8001041F48071C8F80010FEF74E
:1026F00023F8064605E000BFFEF71EF8801B64289D
:1027000032D8D8F80000C005F6D5484EA06860362B
:1027100001280AD008B1052813D0306820F0010044
:102720003060306820F0040002E0306840F00100C2
:102730003060A06841F2883A90B1FDF7FDFF804615
:102740000AE0306840F004003060EEE7FDF7F4FF87
:10275000A0EB0801514507D830688007F6D50EE098
:10276000FDF7EAFF804607E084E000BFFDF7E4FFE5
:10277000A0EB080151457DD830688007F6D4606A27
:10278000F0B3DFF8A880D9F8001008F12008C1F3F1
:10279000C20103296FD00228286820F080702860C9
:1027A00003D0FDF7C9FF044682E0FDF7C5FF0646EA
:1027B00005E000BFFDF7C0FF801B022875D8286820
:1027C0008001F7D4E26A40F2F331386854F8283FC8
:1027D000884340EA021018433860217B4FF4FE0C16
:1027E00022894FF0FE47208A4902267D521E401E54
:1027F000A1F5007189B20CEA0040C2F3080200E0C2
:1028000083E01143761E0143084807EA066211433C
:10281000064A1C30C8F800102432016821F001017A
:10282000016011684FF6F876B14303E01044025896
:1028300000480258236A41EAC30111600168A26995
:1028400021F00C01114301600168E26921F00201ED
:1028500011430160016841F480310160016841F475
:1028600000310160016841F480210160016841F09C
:10287000010101E019E01FE00160286840F080706C
:102880002860FDF759FF044605E000BFFDF754FF3F
:10289000001B022809D828688001F7D535E000BF61
:1028A000FDF74AFF001B022802D90320BDE8F09F74
:1028B00028688001F4D428E039680128D8F800009D
:1028C00021D0A26A01F0030393421CD1E26AC1F352
:1028D00005118A4217D1216BC0F30802491E8A42B2
:1028E00011D1616BC0F34622491E91420BD1A16BFD
:1028F000C0F30642491E914205D1E16BC0F3066068
:10290000491E814201D00120D0E70020CEE700001F
:102910002DE9F04104004FF0010554D094F8210056
:10292000002528B9002084F82000204600F050F847
:10293000022184F82110CA202268532150622068A5
:102940004162204601F052FF4FF0FF064FF00407AE
:1029500010BB20681D4A816811408160D4E90013D2
:10296000D4F818C02269886842EA0C021843104360
:10297000886022682189E06840EA0140106120688F
:10298000C16821F08001C16020688068800609D498
:10299000204600F02BF828B120680125466284F813
:1029A000217010E020680122C16C21F00301C16494
:1029B00021686369E069CF6C18433843C8642068B4
:1029C000466284F821202846BDE8F081BFFF8FFFD2
:1029D00000680449884204D10348016841F4004179
:1029E00001607047004000587044025870B50446BA
:1029F0000068C16821F0A001C160FDF79DFE4FF4A1
:102A00007A76054607E000BFFDF796FE401BB04210
:102A100001D9032070BD2068C0688006F4D500206D
:102A200070BD00002DE9F047040029D04A4A4FF05C
:102A300000092068494B4A4D9042C4F8289006D0BE
:102A4000984204D0A84202D0E1680F2918D8E16862
:102A50004FF0010AE76B0831C9080AEB57167143BA
:102A6000904205D0984203D0A84201D0082907D847
:102A7000904203D0984201D0A84204D1102902D933
:102A80000120BDE8F08794F8810020B9204684F841
:102A9000809000F067F8022084F8810020680168C7
:102AA00021F001010160A069B0F1806F0AD1606876
:102AB000B0F5800F06D1A06B20B92068016841F401
:102AC00080510160A56AE0692368E16B2843E268F0
:102AD000084310439860D4E90D02D4E905C1636A44
:102AE00025691843D4F820800A43266810432843F8
:102AF000A56DD4E90172D4E9123140EA0C0040EA34
:102B0000080038430843104318432843F0606068C6
:102B100068B92068816821F4C05141F40061816086
:102B20002068816821F4C06141F48061816020687F
:102B3000016D21F0010101656068400206D5206841
:102B4000626DC16821F000411143C160C4F88490F6
:102B500084F881A0002094E7003001400038004054
:102B6000003C0040F0B587B0064614216846FDF7EA
:102B7000C8FB2648002532680224254B103823491B
:102B8000012605279A4224D10A6842F480520A603D
:102B9000096801F480510591016841F00801016064
:102BA000016801F008010591016841F0020101602E
:102BB0000068694600F00200059080208DE8F10071
:102BC0001448FDF78DFC182069468DE8F100124885
:102BD00018E0124B9A4217D10A6842F400520A6078
:102BE000096801F400510591016841F0100101608C
:102BF0000068694600F0100005904FF4A0408DE891
:102C0000F1000748FDF76CFC07B0F0BDF044025836
:102C100000300140000C025800040258003401400A
:102C2000001002582DE9F84F0F46416804461D4632
:102C300000201646B1F5800F4FF0040B009001D133
:102C4000A06888B194F88000012818D04FF00109DD
:102C500084F88090FDF770FD94F881108246002082
:102C600001290ED0022125E084F881B0204600938E
:102C700013463A46114600F0FFF9BDE8F88F0220EE
:102C8000FBE7B7B1AEB1A26880466766A4F868609A
:102C900084F881B0C4F88400A4F86A60E065A4F800
:102CA0006000A4F86200B2F5C02F2067606705D00D
:102CB00009E0012184F880000846DEE72068016809
:102CC00021F400610160206841686FF30F01314316
:102CD00041602068016841F0010101606068B0F561
:102CE000800F04D12068016841F400710160E06840
:102CF0000F282ED948F20806B4F86A00002858D0E8
:102D00002068416931420BD0006B616E0860606ED3
:102D1000001D6066B4F86A00401EA4F86A00EBE784
:102D2000FDF70AFDA0EB0A00A84202D3681CE3D01D
:102D300001E0002DE0D1204602F02EF8D4F88420E6
:102D400084F8808042F48071C4F8841084F8819003
:102D500078E0072829D867E02068416911F4604FBE
:102D600018D04169090409D5006B616E0860606E76
:102D7000001D6066B4F86A00801E08E0008E616E77
:102D80000880606E801C6066B4F86A00401EA4F87B
:102D90006A000AE0FDF7D0FCA0EB0A00A84202D3CB
:102DA000681C02D0C7E7002DC5D0B4F86A0000281F
:102DB000D2D13DE02068416911F4604F29D04169CA
:102DC000090409D5006B616E0860606E001D6066C5
:102DD000B4F86A00001F19E0416901F4C041B1F57F
:102DE000005F09D9008E616E0880606E801C60668D
:102DF000B4F86A00801E09E090F83000616E087037
:102E0000606E401C6066B4F86A00401EA4F86A0058
:102E10000AE0FDF791FCA0EB0A00A84202D3681C6F
:102E200002D088E7002D86D0B4F86A000028C1D10E
:102E3000204601F0B1FF84F88190D4F8841084F822
:102E4000808009B1012018E7009816E72DE9F84FB6
:102E50008A4690F880101D461746012904464FF017
:102E6000000B0DD04FF0010884F88080FDF764FC62
:102E7000814694F881000026012804D002201EE03B
:102E80000220BDE8F88FBAF1000F17D0B7B1A168E2
:102E90000320C4F85CA0A4F8607084F88100C4F832
:102EA0008460A4F862706666A4F86860A4F86A603A
:102EB000B1F5C02F6667266704D008E0012084F8CA
:102EC0008060DEE72068016841F4006101602068ED
:102ED00041686FF30F01394341602068016841F098
:102EE000010101606068B0F5800F04D120680168BD
:102EF00041F400710160E0680F281AD82CE02068C6
:102F0000416989070BD5E16D09680162E06D001D1B
:102F1000E065B4F86200401EA4F8620009E0FDF725
:102F20000BFCA0EB0900A84202D3681C01D005E00D
:102F300025B1B4F862000028E1D181E0204601F01B
:102F40002BFFD4F8841084F8806041F48071C4F8B9
:102F5000841084F881808BE007282BD86CE02068EF
:102F6000416989071BD5B4F8621001290BD9E16BBF
:102F700049B1E16D09680162E06D001DE065B4F8DA
:102F80006200801E08E0E16D09880184E06D801C0C
:102F9000E065B4F86200401EA4F862000AE0FDF7A4
:102FA000CBFBA0EB0900A84202D3681C02D0C5E706
:102FB000002DC3D0B4F862000028D0D140E02068D2
:102FC000416989072DD5B4F8621003290CD9E16B4A
:102FD000402909D9E16D09680162E06D001DE065D5
:102FE000B4F86200001F19E0B4F8621001290BD98F
:102FF000E16B49B1E16D09880184E06D801CE065F9
:10300000B4F86200801E09E0E16D097880F82010B4
:10301000E06D401CE065B4F86200401EA4F8620058
:103020000AE0FDF789FBA0EB0900A84202D3681C67
:1030300002D083E7002D81D0B4F862000028BED111
:1030400000224B4608212046009501F003FF28B1DD
:10305000D4F8840040F02000C4F88400204601F039
:103060009BFE84F88180D4F8840084F8806008B1E5
:10307000012006E7584604E72DE9FF4F83B090F89A
:10308000801004461D4600209346109F01290190A0
:1030900014D04FF0010A84F880A0FDF74DFB804664
:1030A00094F881006368002101282E464FF48002C5
:1030B0000CD0934208D1A36833B903E0022007B0D3
:1030C000BDE8F08F042801D0022037E0049898B3BF
:1030D000BBF1000F31D07DB394F88100042802D0F9
:1030E000052084F8810089460846C4F88410C4F895
:1030F00064B0A4F86A50A4F868500499E165A4F893
:103100006250A4F8605020676067206841686FF3E0
:103110000F01294341602068016841F0010101600D
:103120006068904204D12068016841F40071016038
:10313000E0680F282BD846E0FFE7012084F88010D4
:10314000BDE72068416989070DD565B1E16D096862
:103150000162E06D001DE065B4F86200401EA4F855
:103160006200B4F8625048F20802206841691142D6
:103170000DD066B1006B616E0860606E001D606608
:10318000B4F86A00401EA4F86A00B4F86A6055EA10
:103190000600D6D1FDF7D0FAA0EB0800B84202D362
:1031A000781C02D1DDE0002F5DD1204601F0F4FD56
:1031B000D4F8842084F8809042F48070C4F88400AD
:1031C00084F881A0E5E007284AD8C7E02068416973
:1031D00089071BD5D5B1012D0BD9E16B49B1E16D43
:1031E00009680162E06D001DE065B4F86200801EB0
:1031F00008E0E16D09880184E06D801CE065B4F8A9
:103200006200401EA4F86200B4F862502068416970
:1032100011F4604F1AD0CEB14169090409D5006B91
:10322000616E0860606E001D6066B4F86A00801E02
:1032300008E0008E616E0880606E801C6066B4F8E5
:103240006A00401EA4F86A00B4F86A60FDF774FAD8
:10325000A0EB0800B84202D3781C01D004E01FB1F3
:1032600055EA0600B2D17CE0204601F095FDD4F885
:10327000842084F8809042F48071C4F8841084F82B
:1032800081A086E02068416989072BD555B3032DBD
:103290000CD9E16B40290BD9E16D09680162E06D41
:1032A000001DE065B4F86200001F17E0012D0BD986
:1032B000E16B49B1E16D09880184E06D801CE06536
:1032C000B4F86200801E09E0E16D097880F82010F2
:1032D000E06D401CE065B4F86200401EA4F8620096
:1032E000B4F862502068416911F4604F2BD056B396
:1032F0004169090409D5006B616E0860606E001DAC
:103300006066B4F86A00001F19E0416901F4C04129
:10331000B1F5005F09D9008E616E0880606E801C77
:103320006066B4F86A00801E09E090F83000616EB3
:103330000870606E401C6066B4F86A00401EA4F815
:103340006A00B4F86A60FDF7F7F9A0EB0800B8422C
:1033500002D3781C02D028E7002FFCD055EA0600E3
:1033600090D10022434608212046009701F072FDCB
:1033700028B1D4F8840040F02000C4F8840020462E
:1033800001F00AFD84F881A0D4F8840084F88090CC
:1033900008B1012093E6019891E6401EB0F1807FCC
:1033A00010B501D3012010BD4FF0E02460610F2162
:1033B000601704F07CFC0020A0610721216110BD92
:1033C0002DE9F04390F83C20012A42D0012280F8F8
:1033D0003C2051F80C4BDFF880804FF0000991E859
:1033E000680051E9022723F44073B1F80CC03B4355
:1033F000CF6923F480631343026823F400632343FB
:1034000023F4805343EA050323F4005343EA0603FD
:1034100023F4804343EA07030C3923F47023424525
:1034200043EA0C4302D00D4CA2420CD18D8C23F404
:103430007006D1E9073446EA055121F0807119433D
:1034400021F000732343536480F83C900020BDE8D2
:10345000F0830220FBE7000000000140000401406F
:10346000F0B590F83C20012A38D01D4E012480F898
:103470003C40022280F83D2002681A4D5368B24257
:10348000D2F808C001D0AA4203D14F6823F47003D8
:103490003B430F6823F070031F4357600268B2423A
:1034A00010D0B2F1804F0DD00F4B9A420AD00F4B83
:1034B0009A4207D00E4B9A4204D0AA4202D00D4B3A
:1034C0009A4204D189682CF080031943916000214D
:1034D00080F83D4080F83C100846F0BD0220F0BD69
:1034E00000000140000401400004004000080040CA
:1034F000000C00400018004010B50422044600688B
:1035000002F0BEFC2068094A416C41F4004141646C
:10351000206881681140062906D0B1F5803F03D0AC
:10352000016841F001010160002010BD07000100A9
:1035300010B586B0044614216846FCF7E2FE0E4939
:103540002068884216D10D48016841F010010160E1
:1035500000680123022200F01000059000204FF4C3
:10356000806100916946CDE90120CDE9030304485B
:10357000FCF7B6FF06B010BD00000140E044025861
:103580000010025870B5044690F83C000D46012822
:103590000ED0012684F83C60022084F83D000C2AFD
:1035A00045D007DC5AB1042A1BD0082A78D12CE078
:1035B000022070BD102A4ED0142A71D15DE020681F
:1035C00002F06CFC2068816941F00801816120688B
:1035D000816921F00401816120682A6981691143B0
:1035E00011E0206802F0AEFC2068816941F40061BE
:1035F00081612068816921F4806181612068296985
:10360000826942EA012181614AE0206802F0E6FC19
:103610002068C16941F00801C1612068C16921F0D9
:103620000401C16120682A69C169114311E0206861
:1036300002F01AFD2068C16941F40061C16120688F
:10364000C16921F48061C16120682969C26942EAC7
:103650000121C16124E0206802F03CFD2068416D39
:1036600041F0080141652068416D21F00401416588
:1036700020682A69416D114311E0206802F060FD65
:103680002068416D41F4006141652068416D21F47D
:103690008061416520682969426D42EA01214165E6
:1036A000002084F83D6084F83C0070BD10B5040033
:1036B00003D094F83D0010B107E0012010BD0020B8
:1036C00084F83C00204600F00DF8022084F83D000C
:1036D0002068211D02F072FB012084F83D000020CB
:1036E00010BD000008B500680649884208D10648A8
:1036F000016841F001010160006800F001000090E4
:1037000008BD000000000140F0440258FEE7000040
:10371000F0B500230A251C463026372711E000BFEC
:10372000B5EB107F02D906EB107C01E007EB107CB3
:1037300001F813C001EB430C00015B1C8CF8014045
:10374000DBB29342ECD3F0BD2DE9FF4F85B01D46AF
:103750000C2B90460C468946059804906348DDF88A
:1037600048B0068819D0082715FB07F0400005F07F
:10377000C5F803A982465E4801F098FD5C4802A99D
:1037800001F09CFDA8F120014FF00000C9B20791A3
:10379000BBF1000F014602D097E00627E4E7DFF80F
:1037A0004CE149E00C2D0ED0079B524A02EB03126C
:1037B000002321F0010B525C009313060AD573BA63
:1037C000AEF800300CE0079A02EB42034A4A02EBE3
:1037D0008302EDE7BEF802C09CFA9CFCAEF800C084
:1037E00007FB00F3401CBEF800C080B20AEB4303A5
:1037F000A84223F80BC000D30020029B5206641C91
:10380000A4B2120E9C4202D3AEF8006047E0A4EBD3
:103810000903AB4208D1059A4C46039B521C92B255
:1038200005929A42F0D205E0009B5B1CDBB200934C
:10383000082BC2D3491CC9B2A942B3D347E00C2D0F
:1038400033D0079B2B4A02EB03124FF0000B21F001
:10385000010E525C130608D5244B07FB00FC1B88A5
:103860000AEB4C0C5BBA2CF80E30401C80B2A8421C
:1038700000D30020029B5206641CA4B2120E9C428C
:103880000BD2A4EB0903AB4216D1059A4C46039B1D
:10389000521C92B205929A4215D3144806805046A3
:1038A00004F0E6FE09B0BDE8F08F079A02EB420390
:1038B000114A02EB8302C8E70BF1010303F0FF0B8F
:1038C000BBF1080FC6D3491CC9B2A942B7D30C2D0E
:1038D00009D008200499CDE90005054853464A4619
:1038E00001F04CFCD9E70620F4E700003001002489
:1038F000640C0024A39000082F8C00082DE9F84FD9
:103900000D46044658194FF0000A111987B21FFAE4
:1039100081F8DDE90AB604F0FF0912E0444503D35B
:1039200005EB0B004C4685B2BD420FD25B462946E3
:103930002046CDF800A0FFF707FF04EB5B0084B240
:10394000761C3278A2F120005E28E7D9BDE8F88F16
:10395000F0B52B4C032187B000250120A160257311
:1039600060732849284801F04BFF284E052126485E
:103970002246336898472349B268091F2248904776
:10398000234F38688563002260681146CDE9000541
:10399000B56B23681C48A8471EA102A804F060F973
:1039A00002AD102604213346CDE90065208882B29D
:1039B0000846FFF7A3FFFCF7B1FE1AA1024602A8D2
:1039C00004F04EF9CDE9006520881023162182B25B
:1039D0000420FFF793FF0B4816A10838426802A89D
:1039E00004F03EF9CDE9006520881023282182B239
:1039F0000420FFF783FF39680A20886307B0F0BD11
:103A00009C11002438010024640C00245801002477
:103A10005803002457654163742053747564696FBB
:103A20000000000053544D33324837787820307806
:103A3000255800004C43442049443A30782558002A
:103A400070B50A4D0122082104462846FCF760FEA5
:103A5000601EFCF733FD002228460821FCF758FEC3
:103A6000BDE8704040F2F310FCF728BD001002588A
:103A70007FB500250095019502950395FCF7FAFEA8
:103A800001248DF800401B208DF808008DF80B50A4
:103A90004FF010468DF80A4068468DF801500196A7
:103AA00003948DF80950FCF7B7FE16208DF8080036
:103AB0008DF80F4005218DF80B1068468DF80E40EB
:103AC0008DF800408DF80D508DF80A408DF80140BA
:103AD00001968DF80C508DF80950FCF79DFE1221CF
:103AE0008DF808108DF80F4003228DF80B20B008D8
:103AF0008DF80E4002238DF800408DF80D408DF8B2
:103B00000A40019068468DF801308DF809508DF813
:103B10000C50FCF781FE0420FCF7BAFE7FBD70B5A7
:103B2000D0F8B842054604F58051087E38B9486996
:103B300028B1607A18B90121284602F049FE812196
:103B4000284602F045FE607A022809D141F20C00B5
:103B500022182846BDE870401F23012102F0BABD9B
:103B600070BD00002DE9F041D0F8B84206460121B1
:103B700004F580552869286368696863304602F057
:103B800053FD1F280AD12849E868884206D1697E7A
:103B9000012903D8A87E08B1102808D9697E2023FE
:103BA0000522304601F07CF8022060720AE041F202
:103BB0001B002218304600F049FE0028207A08DA5F
:103BC000052804D03046BDE8F041FFF7A8BF012129
:103BD00023E0022826D0012824D0032822D065899A
:103BE000D5B104F10C02D6F8B842304604F5805144
:103BF0004B69AB4200D32B464E6B00274FF0040CB1
:103C0000751B4D6381F838709BB284F808C0812120
:103C1000BDE8F04102F0F7BD00213046BDE8F041BB
:103C200000F08CB8BDE8F0815553424310B5D0F890
:103C3000B842627A022A08D009060BD5012A09D0B7
:103C4000BDE81040012100F079B8812102F0C0FDEB
:103C50000020607210BD10B5D0F8B8220446107A6A
:103C6000022805D0032801D0042811D100210AE040
:103C700041F21900831C815C1A44204600F0E6FDE5
:103C8000002805DA01212046BDE8104000F056B8B2
:103C900010BD10B5D0F8B8220446107A88B10128BA
:103CA00014D141F21900831C815C1A44204600F0B3
:103CB000CDFD00280ADA2046BDE81040012100F0C1
:103CC0003DB82046BDE81040FFF74CBF10BDD0F80E
:103CD000B80200210172704770B5D0F8B8420546AD
:103CE000002104F580502172617280F85D1080F827
:103CF0005C10D5F8BC0201680020884701212846E5
:103D000002F089FC8121284602F085FC41F20C007A
:103D100022182846BDE870401F23012102F0DABCBA
:103D2000D0F8B812002301220B721F234A7241F20D
:103D30000C020A44012102F0CDBC000070B5D0F89D
:103D4000B84205460C4B002004F58052D3620D2387
:103D500082F838108121207241F22C002218284666
:103D600002F051FD41F20C0022182846BDE87040D7
:103D70001F23012102F0AEBC555342532DE9F043FD
:103D800087B014216846FCF7BCFA3348016841F05B
:103D900010010160016801F010010591016841F016
:103DA00004010160016801F004010591016841F01E
:103DB00080010160016801F080010591016841F016
:103DC00002010160016801F002010591016841F002
:103DD00008010160016801F008010591016841F0E6
:103DE0000101016000680022DFF87080082100F006
:103DF000010005904046FCF78BFC4FF420574046ED
:103E000001223946FCF784FCDFF85490012240215E
:103E10004846FCF77DFC00246946012508200090F7
:103E2000CDE9015440460394FCF75AFB0326009762
:103E300003966946CDE901544046FCF751FB40200A
:103E40006946CDE90005CDE902464846FCF748FB46
:103E500007B0BDE8F0830000E044025800100258AB
:103E6000000C02580D48012170B50B4B1024E0E8FE
:103E7000023116254FF4A066002280E87200C0E9E6
:103E8000041282610548FDF715FB002803D0BDE848
:103E90007040FCF712BB70BD00500052D8010024E6
:103EA0000C4800210A4A7F2310B5FF2404C080E893
:103EB0001A00C160416181610161001FFEF728FDA8
:103EC000002803D0BDE81040FCF7F7BA10BD000091
:103ED000004000582402002470B5154807224FF412
:103EE0008005124E00212C01C0E902120161A300DD
:103EF000C0E90514C0E9073141629A008162C162DC
:103F0000C0E90D21C163016441648164C16401653C
:103F100041658165C0E90065FEF784FD002803D096
:103F2000BDE87040FCF7C9BA70BD00000030014028
:103F3000480200242DE9F04115484FF48006002185
:103F4000124D34010722C0E90321E300C0E9051442
:103F5000C0E9073141625A0081624FF4C027C16253
:103F6000C0E90D21C163016441648164C1640165DC
:103F70004165816580E8E000FEF754FD002803D02C
:103F8000BDE8F041FCF799BABDE8F081003401408A
:103F9000D002002410B596B000241C210BA8129466
:103FA00013941494FCF7ADF92C216846FCF7A9F999
:103FB000224877222049632380E81600C0E90334B1
:103FC00044618461FFF772FB08B1FCF776FA1B4885
:103FD00012A9129413941494FFF742FA08B1FCF753
:103FE0006CFA60200821CDE90B0414480422CDE9C5
:103FF0000D410BA90F9410941194FFF7C3FA08B167
:10400000FCF75BFA4FF40050009401940103029412
:10401000CDE9044003940694CDE907410748694679
:1040200009940A94FFF7CCF908B1FCF746FA034863
:10403000FFF77EFA16B010BD0000014058030024BF
:1040400010B503F031FC04F017FD04F0A9FC104991
:104050000022104802F009FA08B1FCF72EFA0E49C6
:104060000C4802F0E7FC08B1FCF727FA0B490948B5
:1040700002F03CFC08B1FCF720FA064802F032FDE1
:1040800008B1FCF71AFABDE81040FDF771B900005D
:1040900000000024980300248C0000245000002419
:1040A000FEE770470148FCF7CFBD00005C08002424
:1040B0002DE9F041044600690D46202723680128B8
:1040C0004FF4004604F5717203EB4511D3F840C07C
:1040D000D1F8080B09D0DFF89CE0F4453AD102048E
:1040E00033D500BFC1F8086B40E0234B5FEA007E88
:1040F00004D59C453AD90004F4D437E05FEA806ED9
:1041000002D5C1F8087B31E010F0280F2ED19C4574
:1041100001D90004E6D4D1F8103BC5EBC50004EB8F
:104120008000C3F31203D0F80412A1EB0303C0F81C
:104130001432D0F808321944C0F8081295B9D4F8EE
:10414000100278B9206801210AE080060AD5C1F87A
:10415000087B07E035B9D4F8100218B900211846D9
:1041600003F06CF82046E9B2FCF73BFC0020BDE808
:10417000F08100000A31544F0A30544F2DE9F84FB6
:104180000E4605688146C1EBC60100EB8104D4E907
:1041900014203C34904202D90120BDE8F88FA16878
:1041A000101A814200D20846C01C05EB4618870849
:1041B0001BE000BFA268A0EB010A524500D2924664
:1041C00099F810100AF1030000911FFA8AF3E168D0
:1041D00087082846F2B203F0B9FAE16801EB0A0059
:1041E000E060A16901EB0A00A061D8F8180980B26B
:1041F000B84205D3D4E90501814201D20028D9D1C2
:10420000D4E90501884208D8D5F83418012006F011
:104210000F0290408143C5F834180020BDE7704775
:10422000194B002230B597B01B78052B0ED000BF7C
:104230004FF440730E934FF005030B92CDE9083213
:104240000F92109205D14FF0807304E04FF4807309
:10425000F0E74FF0407311934FF001030D9213926A
:104260004FF480054FF010041492CDE9022315920B
:1042700007950494CDE9053202AA0B4608A9FDF77B
:104280007FF817B030BD0000C40100242DE9F043D1
:104290004B6A4FF040652BB1AA4203D004688B6A89
:1042A0005B1E23618B69002B68D00C6AB4B3036872
:1042B0008C68DC61CC69FCB1D1E90B38D1F824C041
:1042C0004E6B8F8A43EA080346EA0C0633430E6AB4
:1042D00043EA8743D1E9037C43EA0C0333438E6905
:1042E0003B430F682343046833433B4365E0006866
:1042F00049688161BDE8F083D1E90B364F6A4C6BA8
:104300008D8A33433C430E6923430C6A43EA854359
:104310008D693343096823432B4362E0FFE7CC698F
:10432000B4F1000918D0D1E90B484F6A4E6BB1F8CF
:1043300014C044EA08043E430F683443CE6844EA9C
:104340008C44344344EA09041C4303683C4314434B
:10435000AA425C61CBD1CDE7D1E90B464F6A4D6BE8
:10436000B1F814C034433D4300682C43096844EA63
:104370008C441C430C4314434461BBE70B6AABB34E
:1043800003688C68DC61CC69E4B1D1E90B38D1F801
:1043900024C04E6B8F8A43EA080346EA0C06334377
:1043A0000E6A43EA8743D1E9037C43EA0C033343B3
:1043B0008E693B432343046833431343AA4263613A
:1043C00095D197E7D1E90B364F6A4C6B8D8A334311
:1043D0003C430E6923430C6A43EA854389693343AE
:1043E000234300680B431343436183E7FFE7CC6932
:1043F00084B1D1E90B384F6A4E6BB1F814C043EA6F
:1044000008033E433343CE6843EA8C43334323439C
:104410000468D2E74C6A002C9DD0D1E90B368F8A14
:104420004D6B0168334325432B4343EA87401043D8
:1044300048615FE7F0B58FB00646002141F288344D
:104440004FF48070224666250095CDE9060108915B
:104450003046099105910B910C910D916946FCF73D
:10446000E5FFC8B999272246694630460097FCF710
:10447000DDFF88B94FF440702246694600950690EA
:104480003046FCF7D3FF38B92246694630460097DC
:10449000FCF7CCFF002800D001200FB0F0BDF0B534
:1044A0008FB014AC94E8E05000248DE81600CDE9FC
:1044B0000334CDF824C041F28832CDE90774CDE948
:1044C0000AE40C9469460D94CDE90556FCF7AEFF5D
:1044D000002800D001200FB0F0BD2DE9F041984632
:1044E00016460F460446069D08E0681C06D0FCF7F9
:1044F00023F9A0EB0800A8420AD84DB120688068D3
:10450000384000D00120B042EFD10020BDE8F0815A
:10451000042084F84100606C40F0010060640120D8
:10452000F4E70000F0B5204D074695B02878042840
:1045300015D04FF480700690002441F28836062092
:104540000794089432460594694609940B940C9498
:104550000D9400903846FCF769FFF0B902E04FF483
:104560004070E8E702204FF0050C1022CDF800C0A3
:10457000430513930E900121CDE90F02CDE91114EB
:10458000287804280CD0080633460EAA69460990FC
:104590003846FCF7F5FE002800D0012015B0F0BD2C
:1045A0004FF04070F0E70000C40100242DE9F0470F
:1045B000454D044689464FF0000A2868C0438007ED
:1045C0000AD0414E283E306820F080603060FCF711
:1045D000B3F80746B04608E00120BDE8F08700BF09
:1045E000FCF7AAF8C01B022867D8D8F80000000121
:1045F000F6D4206829684FF4FE0721F47C313E028E
:1046000041EA00302860207AA389B4F804C040024F
:104610002D4D2D495B1E227CACF1010C1035091D7E
:10462000A0F5007080B2521ECCF3080C07EA0343D9
:1046300040EA0C00184306EA02621043286008684A
:10464000626920F0C000104308600A68A06922F087
:10465000200202430A60281D0A6822F010020A6044
:1046600002684FF6F873E4699A4342EAC4020260B2
:104670000868B9F1000F40F010020A6011D0086814
:10468000B9F1010F11D040F400100860D8F8000013
:10469000444640F08060C8F80000FCF74DF805463D
:1046A0000DE0086840F40020EFE740F48010ECE7EC
:1046B000FCF742F8401B022801D903208DE720684F
:1046C0000001F5D5504688E7284402582DE9F04707
:1046D000454D044689464FF0000A2868C0438007CC
:1046E0000AD0414E283E306820F080503060FCF700
:1046F00023F80746B04608E00120BDE8F08700BF78
:10470000FCF71AF8C01B022867D8D8F80000800010
:10471000F6D4208829684FF4FE0721F07C713E0210
:1047200041EA00502860207AA389B4F804C040020E
:104730002D4D2D495B1E227CACF1010C1835091D55
:10474000A0F5007080B2521ECCF3080C07EA0343B8
:1047500040EA0C00184306EA026210432860086829
:10476000626920F44060104308600A68A06922F47E
:10477000007202430A60281D0A6822F480720A60EF
:1047800002684FF6F873E4699A4342EAC402026091
:104790000868B9F1000F40F480720A6011D008680F
:1047A000B9F1010F11D040F080700860D8F8000016
:1047B000444640F08050C8F80000FBF7BDFF0546B6
:1047C0000DE0086840F48000EFE740F40000ECE7FB
:1047D000FBF7B2FF401B022801D903208DE72068B8
:1047E0008000F5D5504688E72844025870B5044645
:1047F0000068C168490614D44FF0FF31C160FBF76F
:104800009BFF4FF47A76054607E000BFFBF794FF65
:10481000401BB04201D9032070BD2068C06840062B
:10482000F4D5002070BD00B51344D0F8B82202F5CD
:104830008052126E934206D92123052200F030FAED
:104840004FF0FF3000BD002000BD00002DE9F04119
:1048500013780024232B70D00DDC1A2B6ED005DCCE
:10486000EBB1032B39D0122B11D168E01B2B01D0F7
:104870001E2B0CD18FE02A2B72D004DC252B70D09C
:10488000282B04D1ADE02F2B6CD05A2B6BD02023DA
:10489000052200F005FA4FF0FF30BDE8F081D0F8B6
:1048A000B87205460E4607F58050416921B12023B4
:1048B000417E05222846A1E0D5F8BC028168304639
:1048C000884740B13A2331460222284600F0E8F9F1
:1048D000052038729EE07C819CE0D0F8B80200216F
:1048E0004B1C4518D9B212292C73F9D370210173CE
:1048F00000F580510C23C37491F85C3091F85D5041
:10490000AB4213D000EBC305A5F6C47505F5005501
:104910005B1CDBB22E78042B86736E7906762D79BC
:10492000457681F85C3001D181F85C4012214181EB
:10493000117912296ED841816CE04CE02FE0537858
:10494000DC07D0F8B8320FD0334A07205881401E18
:104950000004000C03EB0004115C2173F7D159E053
:1049600042E03BE043E028E0D0F8BC0201EBC104A8
:104970001179C06900EB84021079401D814200D892
:104980000846588104E0401E80B21C18115C217357
:104990000028F8D13EE0D0F8B80244813AE0D0F8DF
:1049A000B81208201D4A4881401E0004000C01EB8B
:1049B0000004135C2373F7D12CE0D0F8B812082060
:1049C000174A4881401E0004000C01EB0004135CF0
:1049D0002373F7D11EE000F02CF91BE000F0FBF888
:1049E00018E000F0AFF815E000F07BF912E0527823
:1049F000D0F8B852920704D52423052200F050F9CC
:104A000008E005F58052D2E91923FFF70CFF0028D2
:104A100000DB6C81002040E7188C00081F8C000828
:104A2000278C00082DE9F047074688464FF4805050
:104A3000D7F8B86206F58054B4F85E10A56E4D4301
:104A4000854200D30546626EB5FBF1F006F10C011C
:104A5000894683B2D7F8BC02D0F810C04046E04780
:104A6000002809DA112341460422384600F018F9DB
:104A70004FF0FF30BDE8F087ABB24A46812138469F
:104A800001F0C1FEB4F85E00636BB5FBF0F7B5FB57
:104A9000F0F0D4E919125B1B63633944101AC4E9BE
:104AA000191001D1032030720020E3E72DE9F0470F
:104AB0008846D0F8B812074601F580544FF4805567
:104AC000B4F85E00A66E4643AE4200D32E46626E38
:104AD000B6FBF0F00C31894683B2D7F8BC02D0F8AF
:104AE00014C04046E047002809DA03234146042267
:104AF000384600F0D5F84FF0FF30BDE8F087B4F845
:104B00005E10D4E9193CB6FBF1F0B6FBF1F8626B2C
:104B1000A2EB060262630344BCEB0800C4E919304F
:104B20000BD04843A84200D205464A46ABB23846AD
:104B3000012101F0CFFD0020DFE700213846FFF71B
:104B4000FDF8F8E72DE9F047D0F8B85207461646C9
:104B50008946287AA8BB05F580544FF0FF38207E9F
:104B600000062AD5D7F8BC0281684846884730B18C
:104B70003A2349460222384600F092F811E0D6F86E
:104B80000210707909BA21F0FF02494602436266B9
:104B9000B6F8070043BA3846A366FFF744FE00287C
:104BA00002DA4046BDE8F08702202872B4F85E10B1
:104BB000A06E62694843904204D02023617E0522A2
:104BC000D9E7FFE74FF48050494668813846BDE891
:104BD000F047FFF727BF70B505460E4641F25E006D
:104BE000D5E9AE41221830464B6804F58351984709
:104BF00040B13A2331460222284600F051F84FF0E6
:104C0000FF3070BD04F580510022086E401E030E77
:104C10002373050C6573060AA673E073227462742D
:104C20000822B1F85E00010AA174E07400206281DC
:104C300070BD2DE9FC4105460F4600263046D5F8EB
:104C4000B842411C221888B20C281673F9D3D5F843
:104C5000BC0201A96A4643683846984748B13A23DE
:104C600039460222284600F01BF84FF0FF30BDE81D
:104C7000FC810820E073019802212175401E6675B1
:104C8000010E2174020C6274030AA374E0740C22F6
:104C9000BDF800006281010AA175E0750020E6E719
:104CA00010B5D0F8B812002301F5805090F85D409F
:104CB00001EBC40404F5805484F83C2090F85D2096
:104CC00001EBC20101F5805181F8403090F85D1090
:104CD000491CC9B280F85D10042901D180F85D300B
:104CE00010BD2DE9F047D0F8B85206461746894660
:104CF000287A20B13046BDE8F047FFF7D7BE05F56A
:104D000080544FF0FF38207E000631D4D6F8BC0224
:104D100081684846884728B13A230AE03046FFF7C1
:104D2000BFFF1BE0D6F8BC02C1684846884718B1EF
:104D3000272349460222F1E7D7F80200797900BA21
:104D400020F0FF020A436266B7F80700494643BAFB
:104D50003046A366FFF767FD002802DA4046BDE84B
:104D6000F087B4F85E20A16E60695143884203D099
:104D70002023617E0522D1E74FF48050814200D389
:104D800001468BB20120287205F10C020146304623
:104D900001F0A0FC0020E2E710B5026840F26F339A
:104DA0005169946944F0080494610268946944F07C
:104DB000100494610268146824F00104146002680D
:104DC00014699C4314610268936823F44043936020
:104DD00090F88120042A0CD08A060AD5D0F88420C5
:104DE00042F08002C0F884200268936943F02003F7
:104DF000936190F88120032A0CD04A060AD5D0F896
:104E0000842042F00402C0F884200268936943F0D1
:104E1000400393618A050AD5D0F8842042F001024C
:104E2000C0F884200268936943F400739361C90554
:104E30000AD5D0F8841041F00801C0F88410016848
:104E40008A6942F480728A610021A0F86210A0F899
:104E50006A1010BD2DE9F041984616460D460746EA
:104E6000069C09E0FBF768FCA0EB0800A04202D317
:104E7000601C01D00BE054B13868406935EA00008D
:104E800007D00020B042EDD00020BDE8F081032023
:104E9000FBE70120F6E7002070470000F8B5044664
:104EA0006A46002003468DF8000004F1200013211B
:104EB000054603F06EFD0A210646204600F006FA7C
:104EC00000236A462821284603F063FD0644204655
:104ED0000A2100F0FBF900236A463621284603F038
:104EE00058FD01460B488C190B49027B806801EB89
:104EF000C00000790AB940F00800694601228DF827
:104F00000000284603F03EFD001901D04FF0FF30AD
:104F1000F8BD00009C110024A4010024F8B504464B
:104F20006A46002003468DF8000004F1200013219A
:104F3000054603F02EFD0A210646204600F0C6F97C
:104F400000236A462921284603F023FD0644204613
:104F50000A2100F0BBF900236A463621284603F0F7
:104F600018FD01460B488C190B49027B806801EB48
:104F7000C00000790AB940F00800694601228DF8A6
:104F80000000284603F0FEFC001901D04FF0FF306E
:104F9000F8BD00009C110024A40100242DE9FF4F5E
:104FA00093F8038093469C7883B0DF7A4FF0000932
:104FB00093F80CC004EB0824997ACA4693F80D8044
:104FC000DE7C01EB07211F7D4FEA0C4C9A7C0CEB39
:104FD000086893F815C08844DD7D3F0402EB062283
:104FE0001E7E987D07EB0C6C5F7E6244360400EBFE
:104FF00005201D7906EB07665F7930442D0405EB2B
:105000000767324D3C4403EB080613466D68009079
:10501000A5EB0B05291AA4EB080B88460A46DDE927
:10502000030100F07BFC4FF0FF35E8BB274C284F15
:10503000207B0028A06817F8300001D140F008005C
:105040008DF804000398012336212030009001AA36
:1050500003F09FFC40BBDDE90301424600F006FC83
:1050600010BB707802228DF8080002A930788DF804
:105070000900009803F086FC08B1A94604E0B61CBC
:105080000AF1020ADA45ECD3207B0028A06807EB7E
:10509000C000007901D140F008008DF80400012320
:1050A0000098362101AA00E00BE003F072FC40B941
:1050B00060680022009011462368039800F02EFCDF
:1050C00000B1A94607B04846BDE8F08F9C11002406
:1050D000A40100242DE9F0411D46144B0024804614
:1050E000069F48194FF0FF361B68984219D8404672
:1050F00000F0BCFBA8B90E490020C7F30722FBB2A1
:1051000006E000BF01EB400701F81020401C7B7057
:10511000A842F7D306496A0008F1200003F032FCE8
:1051200000B134462046BDE8F08100009C11002407
:105130001C0F00242DE9F05F8A460F491E46834666
:10514000DDF8289090190025174649684FF0FF3880
:10515000884208D8002409E03A194B46514658467F
:1051600000F0A4FC08B1454602E0641CB442F3D34D
:105170002846BDE8F09F00009C1100242DE9FF5F48
:105180001D481C4691468B46DDE90E674FF0FF3AFD
:105190004FF0000803688A199A4204D8416809EB65
:1051A0000700884201D9D04622E000251EE000BF5A
:1051B000009809EB0502594600F058FBA0B90F49C9
:1051C000002008E0227801F8102001EB400263780B
:1051D000401CA41C5370B042F4D3009872000749DD
:1051E000203003F0CFFB00B1D0466D1CBD42DFD3B1
:1051F00004B04046BDE8F09F9C1100249C0C0024A4
:105200002DE9F84F002699468A468346DDE90A785B
:10521000144635460DE04B46224651465846CDF8D9
:105220000080FFF757FF10B14FF0FF3603E0641C1A
:105230006D1CBD42EFD33046BDE8F88F4FF0FF3014
:105240007047000002488068086000207047000036
:105250009C110024FEB51C46054600F007FB0646DF
:1052600005F120002E21054602AA03F07DFB06442D
:105270002846012202A903F07EFB0644694601226A
:10528000284603F078FB06442846012201A903F0D2
:1052900072FB9DF8042080199DF8001001EB02219B
:1052A000216001D04FF0FF30FEBD000002480068D1
:1052B00008600020704700009C11002402484068EC
:1052C00008600020704700009C11002470B505465E
:1052D000C0690E4680470446E8698047001BB0421B
:1052E000FAD3002070BD2DE9F74F5FEA000982B0C4
:1052F0007DD04FF0000B6A4601215C4609F1200089
:105300005B468DF800B0019003F043FB78214846DE
:10531000FFF7DCFF0198002301216A468DF8004069
:1053200003F037FB782105464846FFF7CFFF019889
:10533000012311216A468DF8004003F02AFB002367
:105340006A46B1210544019803F023FB46190198F0
:10535000012569462A468DF8005003F013FB871992
:1053600001982C26694601228DF8006003F00AFBA3
:1053700000EB07084FF02D0A0198012257466946B5
:105380008DF800A003F0FEFA01236A46B2218DF8E1
:1053900000508044019803F0FCFA012269468044E1
:1053A00001988DF8006003F0EDFA0122694680440F
:1053B00001988DF8007003F0E5FA01236A46B321E5
:1053C0008DF800508044019803F0E3FA0122694609
:1053D000804401988DF8006003F0D4FA01226946F8
:1053E000804401988DF8007003F0CCFA00E0CCE125
:1053F00001226946804401988DF8005003F0C2FAFA
:105400000122694600EB080501988DF8006003F061
:10541000B9FA46190198012269468DF8007003F027
:10542000B1FA07256A4601238DF80050B4210644DD
:10543000019803F0AEFAA2216A4687190198012368
:105440008DF80010C02103F0A4FA0226694601225B
:105450008DF800600744019803F094FA84218DF8D8
:105460000010012269460744019803F08BFAC52118
:105470006A4601238DF80010C1210744019803F00A
:1054800088FA0A216A4601238DF80010C2210744D8
:10549000019803F07EFA01226946074401988DF8CD
:1054A000004003F06FFA8A246A4601238DF8004019
:1054B000C3210744019803F06CFA2A218DF80010EB
:1054C000012269460744019803F05CFA01236A4609
:1054D000C4218DF800400744019803F05AFAEE21E8
:1054E0008DF80010C41901980122694603F04AFAA8
:1054F0000E216A4601238DF80010C521044401984D
:1055000003F047FA049904444FF000036A46097B0C
:1055100000297ED02021019803F03BFA01233A2193
:105520000444019803AA03F034FA0123B046E021B1
:105530006A46044401988DF8006003F02AFA1C21A1
:105540008DF80010012269460444019803F01AFA0C
:1055500001226946044401988DF8005003F012FAC4
:1055600012218DF80010012269460444019803F0CD
:1055700009FA37218DF80010012269460444019888
:1055800003F000FA32218DF800100122694604442C
:10559000019803F0F7F92926694601228DF8006089
:1055A0000444019803F0EEF901226946044401988D
:1055B0008DF800A003F0E6F9012269460444019841
:1055C0008DF8006003F0DEF925218DF8001001222E
:1055D00069460444019803F0D5F92B218DF8001099
:1055E000012269460444019803F0CCF939218DF871
:1055F0000010071901980122694603F0C3F901223E
:105600005C460744019869468DF800B003F0BAF98A
:1056100000E0BFE001218DF80010074401980A4620
:10562000694603F0AFF901224FF0030B07440198DC
:1056300069468DF800B003F0A5F9074469461020CB
:105640008DF800000198012203F09CF901236A46BD
:10565000E1218DF800B00744019803F09AF907445E
:1056600069461D208DF800000198012203F08AF997
:1056700001226946074401988DF8005003F082F931
:1056800006218DF80010012269460744019803F0B5
:1056900079F92E25694601228DF8005007440198BA
:1056A00003F070F9074469462C208DF8000001983A
:1056B000012203F067F901226946074401988DF839
:1056C000006003F05FF9C6190198012269468DF860
:1056D00000A003F057F901226946064401988DF8AD
:1056E000005003F04FF901226946064401988DF8F5
:1056F000005003F047F937218DF800108519019803
:105700000122694603F03EF93F218DF80010012285
:1057100069460544019803F035F9012269460544BC
:1057200001988DF8004003F02DF9012269460544E7
:1057300001988DF8004003F025F9012269460544DF
:1057400001988DF8008003F01DF910218DF80010EC
:10575000012269460544019803F014F901236A46C1
:1057600013218DF800400544019803F012F9441903
:10577000019801236A46292103F00BF90444049996
:10578000484600F047F9001901D04FF0FF3005B04E
:10579000BDE8F08F2121BEE6F8B520300E46DA21B3
:1057A0006A46074603F0E0F84FF0FF3408B12046A0
:1057B000F8BD6D463846DB216A1C03F0D5F8002899
:1057C000F5D1AA1C3846DC2103F0CEF80028EED132
:1057D000BDF801109DF8002049BA62F31F41316005
:1057E000F8BD30B40C4603692046114630BC18475A
:1057F00030B40C4683692046114630BC184700007F
:105800004FF0FF3210B5E0B10B6803604C68002B1D
:1058100044600C890481CC68C4600C6904614C69E3
:1058200044618C698461C969C16107494162074962
:105830000162074981620749C0E90B1001D098470E
:105840000246104610BD0000E3570008F55A000854
:1058500059580008F157000830B40C4643692046F7
:10586000114630BC18474FF0FF307047F8B514466A
:10587000294A0D46114693680A7B497B012B07D8BC
:10588000012909D10AB1183506E0641C1A3503E074
:10589000012901D1E2B318346A46203000230646BC
:1058A0002A2103F076F807466946280A8DF8000099
:1058B0000122304603F066F807446946012230466B
:1058C0008DF8005003F05EF8C5196A460023304693
:1058D0002B2103F05EF8210A8DF80010054469467B
:1058E0000122304603F04EF8054469460122304655
:1058F0008DF8004003F046F844196A46002330460C
:105900002C2103F046F8001901D04FF0FF30F8BD0C
:10591000FFE71A346D1CBFE79C1100242DE9F84302
:1059200014463B4A0D461F461146DDF82090936809
:105930000A7B497B012B07D801290AD10AB1183506
:1059400007E0641C1A3504E0012902D1002A5CD06A
:1059500018346A462030002380462A2103F019F8C3
:1059600006466946280A8DF800000122404603F0E9
:1059700009F806446946012240468DF8005003F0BC
:1059800001F83D4469466D1E0644280A8DF8000062
:105990000122404602F0F6FF0644694601224046D5
:1059A0008DF8005002F0EEFF85196A46002340464C
:1059B0002B2102F0EEFF210A8DF800100544694604
:1059C0000122404602F0DEFF0544694601224046BE
:1059D0008DF8004002F0D6FF4C446946641E054431
:1059E000200A8DF800000122404602F0CBFF05445A
:1059F0006946012240468DF8004002F0C3FF40197D
:105A000001D04FF0FF30BDE8F8831A346D1CA0E7D9
:105A10009C1100242DE9FC41224C50238F68A022C8
:105A20000546487B80262FB1012F03D001280BD0DB
:105A300068B10EE0012801D018B10AE0C4E90032D3
:105A400007E0C4E9006204E0C4E9002301E0C4E91E
:105A5000002688680022A060087B2073487B1146DE
:105A600060736068009028462368FFF757FF217B2A
:105A700006460D480029A16800EBC100007901D15C
:105A800040F008008DF804000123362101AA05F139
:105A9000200002F07EFF801901D04FF0FF30BDE8FA
:105AA000FC8100009C110024A4010024F8B50646E6
:105AB0000F481F0A4FF6FF7404EA03234FF0FF3527
:105AC0003B43ADF80030036800248B420DD9406899
:105AD00090420AD93046FFF7C9FE30B90222694622
:105AE00006F1200002F04EFF00B12C462046F8BD22
:105AF0009C110024F0B4C66814460D462146284681
:105B0000B446F0BC1A466047034803690B60808ABC
:105B10001080002070470000AC1100240120704765
:105B20000020704700207047002070472DE9F041A9
:105B30000D4619491F46144610B1012816D028E019
:105B4000002688460FE000BFD8F814100A4601FB73
:105B500004F00146284601F0CDFED8F81400761C6A
:105B6000B6B2641C0544BE42EED312E0002688465D
:105B70000DE000BFD8F81420284602FB04F102F023
:105B80000DF8D8F81400761CB6B2641C0544BE4269
:105B9000F0D30020BDE8F081AC1100242DE9F041E4
:105BA0000D461F491F46144608701E4910B10128B2
:105BB0001BD031E00026884614E000BFD8F814005E
:105BC000604301F0DDFDD8F814100A4601FB04F033
:105BD0000146284601F0EAFED8F81400761CB6B259
:105BE000641C0544BE42E9D316E00026884611E055
:105BF000D8F81400604301F06BFFD8F81420284651
:105C000002FB04F102F00CF8D8F81400761CB6B2CE
:105C1000641C0544BE42EBD30020BDE8F0810000C7
:105C200070000024AC1100247047FAF79FBD0000FB
:105C30002DE9F041CCB04C212FA8FAF762FB2021CE
:105C400042A8FAF75EFBBC216846FAF75AFB02202D
:105C5000FBF764FB2E492F480A6822F001020A6014
:105C600009680168002421F4404141F400410160C9
:105C7000016801F440414A9101688904FCD5264835
:105C8000022505260168082709234FF0600821F046
:105C9000030CEA0301210CF1020CC0F800C039A882
:105CA0003895349180E860013C952FA83D953E954C
:105CB000CDE93F744194CDE92F32FCF7B3FB43AA01
:105CC0003F214291032082E891000121469442A89D
:105CD000479448944994FCF7B9F9104B0A210B9664
:105CE0006A020093CDE909181294D0021794CDE905
:105CF0000E242190011318946846CDE90C65109488
:105D00002C91FBF755FDFBF733FB4CB0BDE8F08160
:105D10002C04005818480258284402580030440205
:105D2000214A30B5214914680020204B44F4700406
:105D3000146010330A681E4D42F001020A601860B8
:105D40000A681A4B2A400A6018331C1D251D174A81
:105D5000186028322060131D28601C1D251D10604E
:105D60002A1D1860131D20601C1D2860251D106051
:105D70001860206028600A680C4B0E4C22F48022C8
:105D800060330A60186020686FF30F00B0F1005FA5
:105D900003D209490120C1F808014FF0006002490F
:105DA0008039086030BD000088ED00E000440258F2
:105DB0007FEDF6EA0010005C008000512DE9F0470D
:105DC000274B4FF0804A274D02689842264E274FB6
:105DD000274C09D0504507D0A84205D0B04203D087
:105DE000B84201D0A04205D1D1F804C022F070021F
:105DF0004CEA0202DFF87CC0DFF87C809842DFF8D2
:105E00007C900FD050450DD0A8420BD0B04209D0A5
:105E1000B84207D0A04205D0604503D0404501D02C
:105E2000484503D1CD6822F440722A434D6922F0DF
:105E300080022A43026098428A68C2620A688262CB
:105E400007D0A04205D0604503D0404501D0484569
:105E500001D10969016301214161BDE8F0870000BA
:105E6000000001400004004000080040000C004019
:105E7000000401400040014000440140004801404E
:105E800010B5046A042301F01F018B409C43046297
:105E90008A40016A1143016210BD00002DE9F04FF4
:105EA000026ADFF88880DFF8889022F00102DFF8CC
:105EB00084A0DFF884B0214F0262DFF884C0066A54
:105EC0004268836926F002060D68B8428C6803EACE
:105ED0000C0323F0030344EA060445EA030507D054
:105EE000404505D0484503D0504501D0584505D11F
:105EF000CB6824F00804234323F00404B84207D0FD
:105F0000404505D0484503D0504501D0584505D1FE
:105F100022F44076D1E9053233431A434260856169
:105F2000496841630462BDE8F08F0000000401404D
:105F30000040014000440140004801400000014091
:105F40008FFFFEFFF0B5026A1E4E1F4C22F01002BA
:105F5000DFF878E00262056A4368826925F020056F
:105F6000D1F808C0A0420F6802EA060222F440728B
:105F700045EA0C1542EA072201D0704506D1CE68E9
:105F800025F0800545EA061525F04005A0420AD017
:105F9000704508D00E4CA04205D00E4CA04202D055
:105FA0000D4CA04207D1D1E9054623F4406343EAF2
:105FB000840343EA86034360826149688163056222
:105FC000F0BD0000FF8FFFFE000001400004014013
:105FD000004001400044014000480140F0B5026A21
:105FE0001C4D1D4E22F48072A8420262026A436870
:105FF000C76922F40072D1F808C00C6827F0730753
:1060000042EA0C2244EA070401D0B04206D1CF682C
:1060100022F4006242EA072222F48062A8420AD0F7
:10602000B04208D00D4DA84205D00D4DA84202D077
:106030000C4DA84207D1D1E9055623F4405343EA59
:10604000051343EA06134360C4614968C1630262F1
:10605000F0BD00000000014000040140004001408C
:10606000004401400048014070B5026A144B22F41C
:10607000805202629842036A4268C46923F4005362
:106080008E680D6824F4E64443EA063344EA0524A6
:106090000BD00C4DA84208D00B4DA84205D00B4D9B
:1060A000A84202D00A4DA84204D14D6922F4804290
:1060B00042EA85124260C46149680164036270BDAE
:1060C0000000014000040140004001400044014044
:1060D00000480140F0B5026A22F480320262134F98
:1060E000056A4268446D25F400350E89B8420B6894
:1060F00024F0700445EA064543EA04030BD00C4C37
:10610000A04208D00B4CA04205D00B4CA04202D0BC
:106110000A4CA04204D14C6922F4803242EA0422A3
:1061200042604365496881650562F0BD0000014039
:10613000000401400040014000440140004801408B
:10614000F0B5026A22F480120262134F046A4268B8
:10615000436D24F400140E89B8420D6823F4E04323
:1061600044EA065443EA05230BD00C4DA84208D05C
:106170000B4DA84205D00B4DA84202D00A4DA842B3
:1061800004D14D6922F4003242EA8522426043651F
:106190004968C1650462F0BD00000140000401408F
:1061A00000400140004401400048014010B5D0F8D3
:1061B000B42252689047002010BD13460A460021C1
:1061C00010B500F087FA002010BD13460A460021E2
:1061D00010B500F018FB002010BD10B5802104465A
:1061E00000F0F6FA2046BDE81040002100F0F0BAB9
:1061F0000521002310B51A46C0F89412194600F084
:1062000069FA002010BD10B5C2610223C0F89432B3
:10621000134602620A46002100F0F5FA002010BD84
:106220000421002310B51A46C0F89412194600F054
:10623000EAFA002010BD000004A00A46024910B589
:1062400000F0E2F8004810BD5C0600244D534320E6
:10625000436F6E666967000012200880004870472F
:106260002000002404A00A46024910B500F0CCF832
:10627000004810BD5C0600244D534320496E7465F0
:106280007266616365000000042008800048704762
:106290001C00002404A00A46024910B500F0B4F81E
:1062A000004810BD5C06002453544D6963726F654D
:1062B0006C656374726F6E696373000004A00A46B4
:1062C000024910B500F0A0F8004810BD5C0600249B
:1062D00053544D3332204D6173732053746F726188
:1062E0006765000010B51A2008800B480A4908307D
:1062F000021F096800681468081809D007490822B5
:10630000FDF706FA0549042220461031FDF700FA90
:106310000248801E10BD000000E8F11F3600002476
:10632000F8B504460D460020ADF800004888010A83
:10633000082948D2DFE801F04704091747473C45E0
:10634000D4F8B012207C0A6819E0207C02260028CC
:10635000D4F8B40205D0C16A684688470146467041
:106360003EE0816AF8E7C0B206282CD2DFE800F0F0
:10637000030A1014181CD4F8B002426805E06946FC
:1063800090471CE0D4F8B0028268E2B1207CF6E7C6
:10639000D4F8B002C268F8E7D4F8B0020269F4E7B2
:1063A000D4F8B0024269F0E7D4F8B0028269ECE7B1
:1063B000207C40B9D4F8B402416B68468847014656
:1063C0000EE0207C20B129462046FFF706FFF8BDED
:1063D000D4F8B402016B684688470146072048702C
:1063E000BDF8000048B1EA8852B1824200D90246A5
:1063F0002046ADF80020FFF706FFE8880028E6D128
:106400002046FFF70DFFF8BD70B500284FF00006DD
:106410001ED00546344602E0641C6D1CE4B22B78A5
:10642000002BF9D1022505EB440414801278731C6B
:1064300003258A550024B21CCD5406E0551C8B540C
:10644000EAB2531C401C8C54DAB20378002BF5D10D
:1064500070BD01004FF0000004D0012901D00229D5
:1064600001D0022070470120704710B580B1D0F8EC
:10647000B43213B10023C0F8B43209B1C0F8B0127D
:106480000121027080F89C1200F0D2F8002010BDAB
:10649000022010BD10B5D0F8C002FAF7D6FABDE858
:1064A0001040FFF7D6BF10B5D0F8C002FAF7A7FA30
:1064B000BDE81040FFF7CDBF70B51646044649B1A0
:1064C000D4F8B40242691AB194F89C02032850D05F
:1064D000022070BDD4F89432002504F11400022B80
:1064E00003D0042B3AD0C3B33CE0D0E90313994264
:1064F00007D9C91AC1608AB231462046FFF765FE46
:1065000012E08068B0FBF3F103FB110199B99842E6
:1065100011D3D4F8981288420DD200222046114699
:10652000FFF753FEC4F8985200231A461946204636
:1065300000F0D0F816E0D4F8B402C16829B194F89C
:106540009C02032801D1204688478021204600F084
:106550003FF92046FFF74CFE04E0FFE7802120468C
:1065600000F036F994F8A002012804D184F8A05272
:1065700001E020469047002070BD70B515460446E6
:1065800049B1D4F8B40282691AB194F89C02032884
:1065900030D0022070BDD4F8941204F5AA700329FB
:1065A00002D005291ED027E0D0E903218A420BD969
:1065B000531AC3600846834200D3034629469AB261
:1065C0002046FFF7FAFD17E0D4F8B402016929B1BB
:1065D00094F89C02032801D1204688472046FFF703
:1065E0001FFE09E00020C4F894020146204600F096
:1065F000EFF801E020469047002070BD0020704772
:1066000010B5012180F89C12D0F8B42201795268AB
:106610009047002010BD10B5D0F8C002FAF743FA39
:10662000BDE81040FFF715BFD0F8C002FAF754BA22
:1066300070B5017841BB154901260022144C022394
:106640000925C1F80404C0F8C0120846C1E90336A0
:10665000C1E906320A624A628A62CA620A63C1E911
:106660000045FAF733FD08B1F9F727FF0748802105
:10667000FAF783F9054840220021FAF782F9034826
:1066800080220121FAF77DF9002070BD5C0800240A
:1066900000000840D0F8C02201F07F000B06C0EBDC
:1066A000C00002EB800002D590F83E00704790F8E1
:1066B000FE017047002070470020704710B51C464F
:1066C000D0F8C00213462246FAF70FFABDE8104090
:1066D000FFF7BFBE10B5D0F8C002FAF736FABDE832
:1066E0001040FFF7B6BE70B50022044640231146A5
:1066F000FFF7E4FF4026C4F8646101253346002219
:1067000020468021C4F85851FFF7D8FFD4F8B812BA
:1067100000206662A56184F89C52C4F8940260600F
:10672000C4F8A40229B1D4F8B4020021426820467A
:106730009047002070BD90F89C12042903D190F876
:106740009D1280F89C120020704710B590F89C12A2
:10675000032904D1D0F8B412C96901B188470020D7
:1067600010BD01740020704710B5D0F8C002FAF7D0
:1067700081FDBDE81040FFF76CBE70B5044600F522
:106780002A70054600F042F9B4F8AE32012194F8BF
:10679000A80210F01F02C4E9A5130AD0012A0DD0E7
:1067A000022A10D000F08001204600F011F80020ED
:1067B00070BD2946204600F09AF9F8E729462046A0
:1067C00000F0C7FAF3E72946204600F01AFAEEE790
:1067D00010B5D0F8C002FAF7DAF9BDE81040FFF7BB
:1067E00038BE10B5D0F8C002FAF75FFDBDE8104022
:1067F000FFF72FBE90F89C22042180F89D2280F89C
:106800009C120020704710B5D0F8C002FAF7F9F9D1
:10681000BDE81040FFF71DBE10B5FDF71CFA0020C3
:1068200010BD10B5FDF735FA002010BD70B501217F
:106830000446FFF738FE002520468121C4F86C513C
:10684000FFF731FE2046E562FDF741FAD4F8B802C1
:1068500018B101F00DFFC4F8B852002070BD00005F
:106860000A21018000487047240100242021018072
:1068700000487047E4000024202101800048704750
:10688000C400002420210180004870470401002436
:1068900070B50446007C0125D0B140232046022279
:1068A0000121FFF70BFF4023C4F86C510222204660
:1068B0008121FFF703FF41F26C00E56202F01EF850
:1068C000C4F8B80280B12046FDF706FA002070BD7A
:1068D0004FF400762046022233460121FFF7EEFEF8
:1068E0003346C4F86C51E1E7022070BD09B1C0F82D
:1068F000BC12002070472DE9F843D0F8B8724FF071
:10690000000805460C46ADF800804646087810F0B1
:10691000600120D020293DD16178FE2902D0FF29D5
:1069200038D10EE0618881BBE188012932D10006AF
:1069300030D5D5F8BC0280698047012239463860DD
:106940001FE0618809BBE188F9B9000622D4284616
:10695000FDF7E6F923E0607830B1012825D00A2858
:1069600009D00B2816D111E095F89C02032811D10B
:106970000222694605E095F89C0203280AD101220B
:10698000391D2846FFF73FFC09E003E095F89C021B
:10699000032807D021462846FFF71FFC0226304671
:1069A000BDE8F883A0787860F9E721792846FFF7F9
:1069B00032FE21792846FFF776FDA08801274FF4A3
:1069C0000073010600F00F0101EB810105EB81016D
:1069D0000BD5C1F81880287C00B14023284602223C
:1069E0008121FFF76BFEEF620BE0C1F85881287C34
:1069F00000B14023284602220121FFF75FFEC5F8BF
:106A00006C7128462179FDF711F9C8E70A78027000
:106A10004A784270CB788A7802EB032242804B7925
:106A20000A7902EB032282808A79C97902EB01217B
:106A3000C180704702464FF0000011B1C2F8B41295
:106A400070470220704710B5D0F8B42202241AB162
:106A50001268904700B90024204610BD70B5204D43
:106A6000044688780E46C1B20129297031D894F8BD
:106A70009C0202280BD003280FD031462046FFF796
:106A8000ACFB29782046BDE87040FFF78FBBD9B139
:106A90006160032084F89C0209E071B1606888425B
:106AA00012D0C1B22046FFF781FB297861602046F1
:106AB000FFF7C9FF02280CD006E00220616084F8CD
:106AC0009C022046FFF772FB2046BDE87040FFF7AE
:106AD000A7BB31462046BDE87040FFF77EBB0000F3
:106AE0008800002410B5FFF77CFE002010BD2DE9C2
:106AF000F0410A784FF0000612F0600208D0202A18
:106B000001D0402A70D1D0F8B422926890476DE04D
:106B10004B78002201250A2B66D2DFE803F0405DA6
:106B20006557650805652C29FFF7FAFB5EE004460A
:106B30008888D8B9C888C8B94888802816D294F8F7
:106B40009C2200F07F07032A10D03946204684F8A3
:106B50009E72FFF709FE2046FFF762FB1FB102207D
:106B600084F89C0242E084F89C523FE020463BE0DF
:106B7000FFF774FF3AE0CB88012B35D190F89C32B7
:106B8000012B04D0022B02D0032B2DD104E000F105
:106B900008018260012216E00122011D13E090F835
:106BA0009C22012A03D0022A01D0032A1CD1CA88C0
:106BB000022A19D1D0F8A412C56009B10321C1601D
:106BC000022200F10C01FFF71EFB0FE049880129AA
:106BD0000CD1C0F8A45211E090F89C32012B08D0DF
:106BE000022B06D0032B04D0FFF7F7FA3046BDE89E
:106BF000F08149880129F9D1C0F8A422FFF710FBE0
:106C0000F4E70A462DE9F041044610780979002797
:106C100010F060030AD0202B01D0402B50D1D4F8C3
:106C2000B40211468368204698478FE0C0F34110B4
:106C3000012806D05078D0B301282AD003283FD1AC
:106C400007E0D4F8B402114683682046BDE8F0415D
:106C5000184794F89C02022802D0032872D10AE057
:106C600071B380296ED02046FFF7B2FD8021204607
:106C7000FFF7AEFD6AE0508838B931B1802904D001
:106C8000D08810B92046FFF7A3FD2046FFF7C8FAC9
:106C90005CE094F89C020228E2D0032852D150888C
:106CA00098BB4806F1D02046FFF7F4FBEDE7FFE77D
:106CB00094F89C020026022803D0032842D112E057
:106CC00040E009B180293DD1080601F07F0000EBCA
:106CD000800004EB800101D5143101E001F5AA71B7
:106CE00002220E602AE0080601F00F0000EB80008F
:106CF00004EB80000AD5806920B301F07F0000EB2F
:106D0000800004EB800514350BE01FE0D0F858013B
:106D1000C0B101F07F0000EB800004EB800505F5B9
:106D2000AA7541B1802906D02046FFF7B3FC10B107
:106D30000120286000E02E60022229462046FFF74D
:106D400062FA03E011462046FFF747FA3846BDE8ED
:106D5000F08170B5054608780C4610F0600003D04D
:106D6000202801D0402816D195F89C02012803D094
:106D7000022801D003280ED1207901280BD8D5F89C
:106D8000B402826828469047E188014306D128462C
:106D9000FFF746FA02E02846FFF71FFA002070BD11
:106DA00070B54D7801230A78012D1C4C02F00F05B7
:106DB00003FA05F3D0F81C5817D000EB421245EA4D
:106DC0000343C0F81C38D2F8000B00040BD40B8925
:106DD000C978D2F8000BC3F30A03184344EA81418F
:106DE0000843C2F8000B002070BD9EB23543C0F8C6
:106DF0001C5800EB4213D3F800090004F3D40D89AA
:106E0000C978D3F80009C5F30A058904284341EA83
:106E1000825108432043C3F80009E4E700800010D2
:106E2000D0F800196FF30A01C0F80019D0F804185F
:106E300041F48071C0F804180020704770B5044612
:106E400006990A9E049D01290D9816D0E06840F02D
:106E50004000E060204600F02DF8A16B26B321F43D
:106E60008031A163012D07D1A16841F00601A16025
:106E7000A16841F02001A16070BDA26B01280C49FE
:106E800022F48030A063E06800EA0100E060E0687E
:106E900020F44010E06003D1E06840F48010E0602E
:106EA000204600F007F8DDE741F48031D9E7000023
:106EB000BFFFBDFF0C49012202E0521C8A420BD8E1
:106EC0000369002BF9DA0369012243F0010303612E
:106ED00004E0521C8A4201D9032070470369DB0792
:106EE000F7D1002070470000400D030030B54C780A
:106EF00001220B78012CD0F83C5803F00F0402FA61
:106F000004F417D025EA0444C0F83C480978D0F8C6
:106F10001C4801F00F018A4000EB431124EA0243B0
:106F2000104AC0F81C38D1F8000B1040C1F8000B13
:106F3000002030BDA4B2A543C0F83C580978D0F871
:106F40001C4801F00F018A4092B29443064A00EBBC
:106F50004311C0F81C48D1F800091040C1F80009DD
:106F6000E6E700000078F3EF007833EC10B5D0F8D6
:106F7000041821F00201C0F804180320F9F79EFA62
:106F8000002010BD10B5D0F8041841F00201C0F87F
:106F900004180320F9F792FA002010BD2DE9F04FF4
:106FA0000E4604460021DDF824B00D46109F084629
:106FB000DDF82C2004EB800CCCF80411401C0F28C9
:106FC000F8D32046AFB1806B40F4001CC4F838C041
:106FD00088460846C4F8000ED4F80008012A214665
:106FE000C4F800081BD00846D1F8001841F003018E
:106FF0001BE0D0F8040840F0020CC4F804C8A06BF1
:1070000020F4001CC4F838C0206840F0400CC4F8DC
:1070100000C0206840F0800CC4F800C0D8E70846E3
:10702000D1F800180BB141F00101C0F8001810218F
:1070300000F092FA00B10125204600F07DFA00B17F
:10704000012540464FF000694FF67F334FF0904ADC
:10705000C4F81088C4F81488C4F81C88002114E00F
:1070600004EB4112D2F800C9BCF1000F06DA11B1ED
:10707000C2F800A904E0C4F8009901E0C2F80009D0
:10708000C2F81009C2F80839491C8E42E8D800211C
:1070900015E000BF04EB4112D2F800CBBCF1000FA9
:1070A00006DA11B1C2F800AB04E0C4F8009B01E0BD
:1070B000C2F8000BC2F8100BC2F8083B491C8E4204
:1070C000E8D8D4F81038BBF1000F6FF0804223F4F9
:1070D0008073C4F81038A061626103D1A06940F0E8
:1070E0001000A061A069094A0C9940EA0200A06161
:1070F00019B1A06940F00800A061012F03D1A06977
:1071000003490843A0612846BDE8F08F00383C8061
:1071100004000040816821F0010181600020704777
:1071200070B50B784E78444C0D78012E00EB43136C
:1071300020D0D3F8100B6FF31200C3F8100BD3F864
:10714000100B2040C3F8100B486908B188684861EB
:10715000D3F8100B012A40F40020C3F8100BD3F829
:10716000100B8A68C2F3120240EA0200C3F8100B47
:1071700056D059E04E69002ED3F8106933D06FF322
:107180001206C3F81069D3F810692640C3F81069D5
:107190004E698C68A64200D94C61D3F8104944F47A
:1071A0000024C3F81049D3F810494E69C6F31206FB
:1071B00054EA0604C3F81049012A22D000EB451214
:1071C000D2F8003943F00443C2F800394A6932B3B7
:1071D0000B78D0F83418012203F00F039A401143C2
:1071E000C0F8341826E02640C3F81069D3F81049D7
:1071F00044F40024C3F81049D3F810496FF3120483
:10720000D8E7096919B100EB4512C2F8141900EB6F
:107210004510D0F8001941F00441C0F8001909E008
:10722000C86808B1C3F8140BD3F8000B40F0044051
:10723000C3F8000B002070BDFFFF07E010B5144C31
:10724000036CA34203D9D0F8003B002B1EDB0023C4
:10725000C0F8103B0129D0F8101B41F40021C0F800
:10726000101BD0F8101B41F01801C0F8101BD0F80B
:10727000101B41F0C041C0F8101B07D1C0F8142BFF
:10728000D0F8001B41F08021C0F8001B002010BD89
:107290000A30544F0B784A78012A00EB43100BD088
:1072A000D0F8002B22F40012C0F8002BC978032973
:1072B00014D0022912D017E0D0F8002922F40012CD
:1072C000C0F80029C978032901D002290CD1D0F8CF
:1072D000001941F08051C0F8001905E0D0F8001BFA
:1072E00041F08051C0F8001B002070470A784B78AD
:1072F000D1B2012B00EB421012D0D0F8002B002AA3
:1073000006DB29B1D0F8001B21F08041C0F8001B3A
:10731000D0F8001B41F40011C0F8001B002070479A
:10732000D0F80029002A06DB29B1D0F8001921F095
:107330008041C0F80019D0F8001941F40011C0F8DC
:107340000019EBE7F8B50B786FF060464F78764D93
:10735000DCB2012F00EB431326D0D3F8104B6FF3B0
:107360001204C3F8104BD3F8104B2C40C3F8104B49
:107370004C698D68002C74D0D3F8107B2C44641EAB
:10738000B4FBF5F4A4B206EAC4452F43C3F8107B5E
:10739000D3F8105B8E686643C6F312042543C3F826
:1073A000105B012A72D0A6E04F6927B3D3F8107999
:1073B0006FF31207C3F81079D3F810792F40C3F890
:1073C00010794F698D68D3F810C92F447F1EB7FB21
:1073D000F5F506EAC54545EA0C05C3F81059D3F89A
:1073E00010594E69C6F312063543C3F81059CD78CB
:1073F000012D10D01BE0D3F810692E40C3F810699E
:10740000D3F8105945F40025C3F81059D3F8105992
:107410006FF3120509E0D3F8105925F0C045C3F801
:107420001059D3F8105945F00055C3F81059012AE6
:1074300018D000EB4413D3F8004944F00444C3F8D7
:107440000049CC78012C2FD04A6962B30B78D0F870
:107450003418012203F00F039A401143C0F8341886
:107460005FE036E00A691AB100EB4413C3F814294F
:10747000C97801290FD1D0F80818C90500EB4411CB
:10748000D1F8002903D442F0005202E02FE042F08C
:107490008052C1F8002900EB4410D0F8001941F0E7
:1074A0000441C0F800193CE0D0F80848E405D3F8DE
:1074B000004902D444F0005401E044F08054C3F881
:1074C000004900928B8A0A78C9689BB200F03EF9A5
:1074D00027E0D3F8104BC5F312052C43C3F8104B2B
:1074E000D3F8104B44F40024C3F8104B59E7CA6892
:1074F0000AB1C3F8142BC97801290CD1D0F80808B7
:10750000C005D3F8000B02D440F0005001E040F079
:107510008050C3F8000BD3F8000B40F00440C3F8D0
:10752000000B0020F8BD0000FFFF07E0816841F07C
:107530000101816000207047064A1021016100218D
:10754000491C914201D9032070470369DB06F7D437
:1075500000207047400D03002023074A43EA8113AF
:1075600003610021491C914201D90320704703693E
:107570009B06F7D400207047400D0300D0F80808A0
:1075800010F0060004D0022803D0062801D00F20F6
:10759000704702207047406900F001007047D0F842
:1075A0001818D0F81C08084080B27047D0F8181896
:1075B000D0F81C080840000C704710B5D0F810280F
:1075C00001F00F0300EB4114D0F83418D4F8080987
:1075D000D94001F0010142EAC111084010BD00EBA1
:1075E0004111D1F8081BD0F81408084070474169D0
:1075F000806908407047D21C00F580509308002233
:1076000010B502E00468521C10C19A42FAD3084631
:1076100010BD10B5C268012922F0C042C26002D07C
:1076200029B1012010BDC16841F0005102E0C168DC
:1076300041F08041C1603220F8F740FF002010BDCA
:10764000D0F800284FF4FE6303EA011322F4FE622F
:10765000C0F80028D0F800181943C0F8001800201E
:1076600070470000022A3ED1264A274B0A449A421C
:1076700001D20F2138E0254A254B0A449A4201D213
:107680000E2131E0234A244B0A449A4201D20D21B3
:107690002AE0224A224B0A449A4201D20C2123E0DA
:1076A000204B214A0B44934201D20B211CE01F4B7B
:1076B0001F4A0B44934201D20A2115E01D4B1E4A7A
:1076C0000B4493420FD31D4B1D4A0B44934201D2EE
:1076D000082109E01B4B1C4A1944914201D20721A1
:1076E00002E0062100E00921C2684FF4705322F441
:1076F0007052C26003EA8123C1681943C16000204F
:1077000070470000405327FF00350C00401E1BFF50
:1077100040420F0000DC0BFF804F1200808CF9FE0E
:1077200020D6130060B6E5FE60E3160000D3CEFE5F
:1077300040771B00C05BB3FEC091210000CA91FEE0
:1077400020753800E05459FEE09C410010B5029CC1
:1077500064B900EB0230DB1C00229B0800F580506E
:1077600002E010C90460521C9A42FAD3002010BDF6
:10777000FEE710B5052001F0A9F9C007FAD110BD48
:1077800038B50446F8F7D8FF054620208DF80000EC
:10779000210C8DF80110220A8DF802208DF803408B
:1077A00000F064F9114C002240212046F8F7B0FFA8
:1077B0000F4804224FF47A736946FBF747FB012216
:1077C00020464021F8F7A4FF40F6B83407E000BF98
:1077D000F8F7B2FF401BA04201D9032038BD00F0EA
:1077E00009F80228F4D0002038BD0000000C02582F
:1077F000480200247CB511A0114C002240210068F1
:1078000000902046F8F784FF4FF47A750D48012266
:107810002B466946FBF71AFB0A48012201A92B46B1
:10782000FBF700FA012220464021F8F771FF9DF88E
:107830000400C00700D002207CBD0000050000004D
:10784000000C02584802002438B54FF480720446F8
:1078500011010801E060C4E90512684600F07AF8F9
:10786000BDF80000A0F56F401338052801D30120B2
:1078700038BD00EE100AF8EEC00AB0EE000A00F0C3
:1078800027FABCEEC00A6369BDF8001010EE100ABA
:10789000E26800056060B0FBF3F3B0FBF2F0236137
:1078A0002160A060002038BD0EA038B50E4C00222B
:1078B0000068402100902046F8F72AFF0B4802227A
:1078C0004FF47A736946FBF7C1FA01222046402142
:1078D000F8F71EFF0420F8F7F1FDBDE83840044832
:1078E000FFF7B2BF66990000000C0258480200245E
:1078F000AC110024F8B5054614460320134F8DF84B
:1079000000000A0C8DF801200B0A8DF802300022CD
:1079100038468DF803104021F8F7FAFE4FF47A76D6
:107920000B48042233466946FBF790FAA2B2084896
:1079300033462946FBF776F908B10120F8BD01224C
:1079400038464021F8F7E4FE0020F8BD000C02584C
:10795000480200247CB50446124D11A000224021AB
:10796000006801902846F8F7D3FE4FF47A760E4867
:107970000422334601A9FBF769FA0B480222334679
:107980006946FBF74FF99DF8001001229DF80100B0
:1079900000EB0120208040212846F8F7B9FE7CBD8D
:1079A00090000000000C0258480200242DE9F84F16
:1079B00017460D468346F8F7BFFE0646002001E055
:1079C00000F58070A842FBD9441BBC4200D93C465C
:1079D000DFF8908005EB070A4FF002094FF47A7741
:1079E0008DF80090290C8DF801102A0A8DF80220DC
:1079F0008DF8035000F03AF8002240464021F8F795
:107A000087FE194804223B466946FBF71FFA30B946
:107A1000A2B215483B465946FBF718FA10B10120AF
:107A2000BDE8F88F012240464021F8F771FE06E0DC
:107A3000F8F782FE801BB84201D90320F0E7FFF778
:107A4000D9FE0228F4D0254405F580705045A344A2
:107A500002D9AAEB050401E04FF480745545BFD369
:107A60000020DDE7000C025848020024F8B515A0FC
:107A700000680090F8F760FE134E00224021054692
:107A80003046F8F745FE4FF47A7410480122234639
:107A90006946FBF7DBF9012230464021F8F738FE52
:107AA0000AE000BFF8F748FE401BA04201D90320BE
:107AB000F8BD0020F8F702FDFFF79CFE0228F1D088
:107AC0000020F8BD06000000000C02584802002407
:107AD00010B586B0044600F09BF8FFF74AFE104848
:107AE00000214FF400530078052810D04FF4406077
:107AF0005FEAA0020491CDE902010A48CDE9001233
:107B000020212246FCF7CBFC040004D005E04FF412
:107B100080608210EEE7FFF72CFE06B0204610BD15
:107B2000C4010024D8010024F0B585B014460E46E7
:107B3000054600F06DF817484FF040714FF40053C0
:107B400002780020052A0FD08A1304940F14CDE97F
:107B500002215FF002013246CDE900070E48FCF732
:107B60009EFC040009D012E04FF480620494CDE939
:107B70000221971032463221EEE7074841F288325F
:107B80002946F9F7B9FD040001D1FFF7F2FD05B070
:107B90002046F0BDC4010024D80100241A4BF0B5E2
:107BA0001B780546EB20042B8FB029D004244FF41A
:107BB000807300904FF40050FF27CDE90543002368
:107BC0004FF4406407944FF0407CCDE90303260155
:107BD0000C93CDE90A230D9341F28834CDE90117C6
:107BE0000A482246CDE9086C6946F9F71FFC0028CF
:107BF00004D1064822462946F9F71EFD0FB0F0BD14
:107C000006244FF44073D4E7C4010024D8010024B3
:107C1000024810B5FCF786FCC0B210BDD8010024A4
:107C20002DE9F04107461546C8B20E46C0F58074EE
:107C3000A24200D8ACB24FF4807822463146384692
:107C4000FFF772FFA54208D02D1B45452744264467
:107C500001D94446F1E7ACB2EFE7BDE8F08100009E
:107C60000FB4084B10B504A902AA039800F09AFBC0
:107C7000044602A9002000F0F5FC204610BC5DF887
:107C800014FB0000658600084100080218BF0420AC
:107C90000A0E18BF40F001004FF07F4232EA0101A6
:107CA00008BF40F00200012808BF052070470907FF
:107CB00000284FEA116104DB00F1E02080F8001495
:107CC000704700F00F0000F1E02080F8141D7047AD
:107CD00010B52DED088B9FEDFE1A10EE100A10EE78
:107CE000901AB0EE418A0022A0F5000C4FF000730C
:107CF000DFEDF89ABCF1FE4F4FF07F4403EB410CEF
:107D000080F0A481BCF1804FC0F01882F249014498
:107D10009FEDF23A9FEDF2AAB1F5005F40F2CA8200
:107D200000F58021CB0C03F00F0100EE101AC3F315
:107D300007137F3BA0EBC350B8EEC02A01EE900AB8
:107D40001A44DFEDE82AB0EE410A02EE220AF0EE14
:107D5000403A31EEA30A31EEE32A10EE100A00F5A4
:107D600000606FF30B0002EE900A73EEE23A73EEDE
:107D7000A13AC1EE001A22EE210A10EE100A00F517
:107D800000606FF30B0000EE100A00EE622A00EEB6
:107D9000632A62EE212A70EE221A21EEA12ADFED7B
:107DA000D23A02EE233A23EE023A20EE012A22EEE4
:107DB000811A03EE211A32EE010A10EE100A00F5C4
:107DC00000606FF30B0000EE100A72EE401A31EE05
:107DD000812A9FEDC61A60EE011A9FEDC51A20EEAA
:107DE000011A9FEDC40A02EE001A31EE810A10EE6C
:107DF000100A00F500606FF30B0000EE100ABE4899
:107E000071EEC01A31EE812A784400EBC10090ED8A
:107E1000003AD0ED011A100101EE100AF8EEC12A65
:107E200032EE211A31EE001A31EE031A31EE221A27
:107E300011EE100A00F500606FF30B0008EE900AD7
:107E400038EEE21A31EE431A31EE400A30EE610AA2
:107E500072EE40AA10EE900A002100F500606FF368
:107E60000B0009EE100A084630EEC9BAF8F785FA99
:107E700028EE890A00F00C01F0EEC00A10EE900A1C
:107E8000B0F18B4F0FDD10EE900AB4EB400F0AD328
:107E900010EE100A4FF08B42B0EE699A62F31E00AA
:107EA00008EE900A13E068EE8B0A39EE0B1A4AEEE0
:107EB000810A30EE201A11EE100A00F500606FF30F
:107EC0000B0008EE900A30EE680A30EE209A0C2083
:107ED000F8F753FA38EE890AB4EEE90AF1EE10FA2F
:107EE00038BF9FED86AA3AEE000ABDEEC00A10EE3A
:107EF000100A011100EE101AF8EEC00A00EE100A86
:107F0000B8EEC00A38EEC00A30EE090ADFED7C1A7E
:107F10009FED7C1A00EE211ADFED7B1A7B4900F001
:107F20000F0040EE011A21EE800A794401EB800136
:107F300091ED001A7649794401EB8001D1ED001AE8
:107F4000744901EE801A794401EB8000724990ED8A
:107F5000000A31EE001AB0EEE00A10EE100A884274
:107F600015DA10EE100AB4EB400F10D39FED6B0A38
:107F700030EE800ADFED6A0A20EE200A68EE010A80
:107F8000BDEC088BBCEEC00A20EE200A10BD10EE3E
:107F9000100A6449884233DA10EE100AB4EB400F3D
:107FA0002ED3BDEEE00A68EE010A10EE100A00EBD7
:107FB000D0725110C90501F17E5100EE101AA0EBEC
:107FC0006200C00560EE200A00F17E5000EE100A4B
:107FD00060EE808A18EE900AB4EB400F25D018EEC0
:107FE000900A400011D018EE900AFFF74DFE0428C9
:107FF00008BF00F0B9F9B0EE680ABDEC088B10BDFF
:10800000F4EEE90AF1EE10FA0FD2022000F0C4F902
:1080100000F0AAF918EE100A10EE101ABDEC088B49
:1080200061F31E0000EE100A10BD022000F0B4F94A
:1080300000F092F918EE100A10EE101ABDEC088B41
:1080400061F31E0000EE100A10BD00BFBCF1804FAE
:1080500074D300BF00F1FF43B3F1FE4F24D200BF41
:10806000B0EEC00A10EE100AC1F3C7537F2B0DDB30
:10807000972BBFF64BAEC3F196034FF0010C0CFAF1
:1080800003F3A3F1010C1CEA010F08D0012000F05A
:1080900083F9BDEC088BBDE8104000F055B90B42E8
:1080A00018BF9FED218A31E643001CBF4FF080735B
:1080B000B3EB400F3CD96FF01A02DFED1C1A20EE33
:1080C000210A10EE100A10F0004FC9D11EE635E06B
:1080D0000000803F00000000001080C0ABAAAA3E54
:1080E0000000003F0000803D7EE24C3E00B0384280
:1080F000D49AB8BB3BAA384288180000000000BFE1
:10810000FC596337C9FF753A1872313D26180000D3
:108110005A180000CA1700000000FC420000FE428E
:108120000000004B00004043000080BF0000004DF5
:10813000A0F50003B3F1FE4F21D2E7E503EB4103C5
:10814000B3F1007F11D3F4EE690AF1EE10FA05D114
:10815000430018BFB4EB400F76D87BE701F0004135
:1081600041F0FC5100EE901A74E7B3F1807F06D223
:1081700010EE903AA3F5000300EE903A6AE720F083
:1081800000426FF0FF4C604C02EB0C03A34210D393
:1081900021F000439C44A4450BD3B0F17E5F18BF8F
:1081A0005FEA410C50D0B2F1FF4F98BFB3F1FF4FDF
:1081B00005D9BDEC088BBDE8104000F0C1B8B0F1A6
:1081C000FF4F0FD0C1F3C7527F2A09DB972A11DA7C
:1081D000C2F19602012303FA02F2531E0B4205D0AC
:1081E000002208E011F0004F55D128E00A4218BFE4
:1081F000012200D1022210F5000F13D028B3B0F1F4
:10820000004F26D010F1814F4FD04FF0FE42B2EB1D
:10821000400F94BF01200020012202EBE17188424F
:1082200039D10CE011F0004F02D0012A38D032E0F1
:10823000012A02BF9FED350ABDEC088B10BD9FEDF2
:10824000340ABDEC088B10BD2FE011F0004F0CD1AB
:1082500021E0B1F1FF4F1ED011F5000F05D011F054
:10826000004F15D00AB1012A08D0022000F094F87E
:10827000BDEC088BBDE8104000F056B8022000F0BD
:108280008BF800F051F8BDEC088BB1EE400A10BD40
:108290000AB1012A04D0B0EE690ABDEC088B10BD0A
:1082A000BDEC088B9FED1B0A10BDBDEC088BB0EE3A
:1082B000410A10BD30EE410A9FED171A9FED182AB2
:1082C00000EE413AB0EE4A1A60EE001A00EE431A90
:1082D00061EEC11A9FED111A20EE011A20EE020A7A
:1082E0009FED102A01EE820A71EE001A11EE900A3B
:1082F00000F500606FF30B0008EE900A31EE681A8B
:1083000071EE00AAA6E50000FFFF3F00000080FF1D
:108310000000807F000000800000803E00B0B84177
:10832000D49A38BB3BAAB841DFED030A9FED031A8C
:1083300080EE810A704700000000803F00000000CE
:1083400030EE200A70470000DFED020A80EEA00A3E
:1083500070470000000000009FED020A20EE000AB6
:1083600070470000000000709FED020A20EE000A36
:10837000704700000000001002E008C8121F08C18A
:10838000002AFAD170477047002001E001C1121F96
:10839000002AFBD1704700000149086070470000C7
:1083A000D40100242DE9FF4F8DB09B460F460446B3
:1083B000002606E025280BD05A460F999047641CEA
:1083C000761C20780028F5D111B03046BDE8F08F3A
:1083D0000025A8460122984900E0054314F8013F12
:1083E000203B02FA03F00842F7D120782E2817D15B
:1083F00014F8010F45F004052A280ED06FF02F0263
:108400002078A0F1300109290AD808EB880102EB95
:10841000410100EB0108641CF2E757F8048B641C6F
:1084200020786C280DD004DC4C2812D06A2811D199
:1084300004E074280DD07A280CD10AE045F4001528
:1084400007E0617845F48015814202D1641C05F58E
:108450008015641C2278692A45D008DC002AB3D034
:10846000582A69D0632A10D0642A08D13BE0702AC8
:1084700067D0732A13D0752A5CD0782A5CD0104656
:108480005A460F999047761CD3E017F8040B8DF8E5
:10849000000000208DF80100E946012003E057F8B4
:1084A000049B4FF0FF3069074FF0000501D40AE04C
:1084B0006D1C45450DDA8542FADB19F805100029D7
:1084C000F6D106E06D1C8542FCDB19F80510002989
:1084D000F8D12E4404E019F8010B5A460F99904741
:1084E0006D1EF8D2A5E00A200021CDE90801C5F3F0
:1084F000025002280DD001CFC117031E71F10003F5
:108500000DDA4FF0000CD0EB0C006CEB01012D23C9
:1085100008E0FF1D27F00707F7E80201EDE72B054C
:1085200004D52B238DF8283001233BE0EB0739D00D
:108530002023F7E70A2000E010200021CDE9080100
:1085400007E01020002145F00405CDE908014FF0B7
:108550000808C5F3025002280FD001CF00214FF0C8
:10856000000A2B071FD5702A0DD0DDE908C38CF057
:10857000100C5CEA030C0CD015E0FF1D27F0070778
:10858000F7E80201EBE740228DF828204FF0010ABE
:108590000BE050EA010306D030238DF828308DF827
:1085A000292002239A46582A04D024A20DF120093A
:1085B0000B9209E026A2F9E7DDE90823F7F7ACFE04
:1085C0000B9B9B5C09F8013D50EA0102F4D1ADEB35
:1085D000090020300890680701D44FF0010808997D
:1085E000884502DDA8EB010000E000208046002560
:1085F00006E00AA85A46405D0F9990476D1C761C0C
:108600005545F6DB04E030205A460F999047761C1A
:10861000B8F10001A8F10108F5DC05E019F8010B3B
:108620005A460F999047761C0899481E08900029D1
:10863000F4DC641CC5E60000092801003031323347
:10864000343536373839616263646566000000008E
:108650003031323334353637383941424344454678
:10866000000000000A68531C0B6010707047000087
:1086700010B5002821D0114B0022001F196803E01B
:10868000814203D80A4649680029F9D152B11368DA
:10869000841A9C4204D1006818441060104602E01D
:1086A000506000E0186039B102680B1A934203D1A0
:1086B0000B681A4402604968416010BDCC01002477
:1086C000F8F73AB810B5034800240421FAF714FF6C
:1086D000204610BD580300242DE9F341164E4FF4F7
:1086E00000650022884629463046F8F711F8AC00AC
:1086F000304600222146F8F70BF810486423012287
:108700006946FAF7A3FB0122074621463046F7F7F0
:10871000FFFF0A4801224FF4FA734146FAF782FA42
:10872000C419294601223046F7F7F2FF604294FB54
:10873000F0F0BDE8FC81000000100258D0020024D7
:108740002DE9F0410D4E4FF4006500220C4607461E
:1087500029463046F7F7DCFFA2B209484FF4FA7316
:108760003946FAF75FFA0122044629463046F7F700
:10877000CFFF604294FBF0F0BDE8F081001002589A
:10878000D00200242DE9F0410D4E4FF40065002287
:108790000C46074629463046F7F7BAFFA2B2094809
:1087A00064233946FAF752FB012204462946304633
:1087B000F7F7AEFF604294FBF0F0BDE8F0810000F7
:1087C00000100258D00200242DE9F743174E4FF451
:1087D000006815468946002241463046F7F798FF63
:1087E0004FF40057304600223946F7F791FF104802
:1087F000642301226946FAF729FB0122044639461F
:108800003046F7F785FF3DB1AAB209484FF4FA7335
:108810004946FAF71BFB0444414601223046F7F76C
:1088200077FF604294FBF0F0BDE8FE830010025831
:10883000D002002488B0FBF71BF9F7F7FFFDF7F72C
:108840009DFFFDF7F5F9FBF799FAFBF729FBFBF71D
:1088500043FBFBF76FFBFBF79DFBFBF7F1FBFBF724
:1088600077F8184D0C24184F02AE12E0F7F764FFAA
:1088700016A1024602A8FFF7F3F9CDE900462888C1
:1088800010233A2182B20020FBF738F80520FBF7CD
:10889000D7F897F89C020328E8D100BFF7F74CFF00
:1088A00010A1024602A8FFF7DBF9CDE900462888AF
:1088B00010233A2182B20020FBF720F80520FBF7B5
:1088C000BFF8EBE79C110024980300245553422085
:1088D000556E636F6E6E65637420256420202020C2
:1088E0000000000055534220436F6E6E6563742094
:1088F000256420202020202000000000F0B50B304F
:10890000154D20F007010024144A0FE003688B4244
:108910000BD38B4205D95E1A43184768C3E9006739
:1089200000E04368136002C004E0021D10680028E4
:10893000ECD12046002802D1286808B10020F0BD03
:10894000064A07481060074A121A22F00702C0E9D7
:10895000002401202860D7E7D0010024CC010024A6
:10896000CC110024C831002430B444680369A44603
:1089700030BC1846604730B4D0E90343A44630BC4D
:108980001846604730B484680369A44630BC184672
:10899000604730B4046905682046AC4630BC604787
:1089A00030B5184D352085B000F090F804468007AA
:1089B00006D4FFF72DF9312044F0020100F0DAF877
:1089C00000204FF4807103460246CDE901103821A2
:1089D0000390049000902846FBF761FD41F2883136
:1089E0002846FBF71DFC10B105B0012030BD06493B
:1089F0000420087005B008210846BDE8304000F0AA
:108A00008FB80000D8010024C4010024184A0620B1
:108A100030B5C1051478420287B0052C4FF40053DD
:108A200016D0C501049000241248CDE902219021FE
:108A30002246CDE9004500BFFBF731FD0D4805A9F1
:108A400041F28832F8F7F8FD68B1012007B030BD77
:108A5000CDE903104FF480740090CDE9014200226B
:108A600004489421E8E7BDF8140040BAEEE700009E
:108A7000C4010024D8010024052010B5F7F71EFD1D
:108A8000FBF7F0F90648FBF7D5FC0020F7F716FDD9
:108A9000FFF7BCFF03494880BDE8104000F004B870
:108AA000D8010024C4010024052010B500F00EF800
:108AB000054C2070352000F009F86070152000F09A
:108AC00005F8A070002010BDC801002410B5124B9D
:108AD00086B0002201218DF814201B78052B17D0B9
:108AE0004FF040731C140491CDE90223002301468A
:108AF000CDE9002409481A46FBF7D1FC074805A92F
:108B000041F28832F8F798FD9DF8140006B010BDC8
:108B10004FF080731C14E6E7C4010024D801002440
:108B200040084FF0FF3200B587B0000102EBD101E1
:108B3000103801F0030108438DF81400FFF768F8BE
:108B40004FF040720020131401210491CDE902027C
:108B5000CDE90003C021034602460548FBF79FFC10
:108B6000034805A941F28832F8F7C6FD07B000BDF9
:108B7000D801002413B51049002286B00B780121DA
:108B8000052B15D04FF040731C140491CDE902233E
:108B900000230146CDE9002408481A46FBF77FFC74
:108BA000064807A941F28832F8F7A6FD08B010BDC3
:108BB0004FF080731C14E8E7C4010024D80100249E
:108BC000008002021F0000005765416374202020CE
:108BD000535049204D534320202020202020202086
:108BE000302E3031008002021F00000057654163C3
:108BF0007420202051535049204D534320202020E1
:108C000020202020302E303100000000010203041B
:108C10000102030406070809000000030080830026
:108C2000000000000000000006000000000000003E
:108C30000000000000000000000000000000003FF5
:108C40004000000000000000003000400030004004
:108C500000000009000BC03D000BC03D00090018DA
:108C6000C024407FE0224031800000180024C01B57
:108C7000000D803240018003801C4027401C80078B
:108C800040004010006000000000000000000000F4
:108C900000000000001F80204040200000402020F5
:108CA000401F8000000000090006001F8006000928
:108CB000000000040004003F8004000400000000E5
:108CC0001000600000000000000000040004000428
:108CD000000400040000000000004000000000004C
:108CE000000000002001C006003800400000001F06
:108CF000802040204020401F800000000010403FA6
:108D0000C000400000000018C0214022402440184C
:108D100040000010802040244024401B80000002BE
:108D2000000D0011003FC0014000003C80244024A1
:108D3000402440238000001F80244024403440030E
:108D40008000003000200027C03800200000001BF9
:108D5000802440244024401B8000001C0022C022AC
:108D60004022401F8000000000000008400000007A
:108D7000000000000000000460000000000000008F
:108D80000004000A00110020804040090009000989
:108D90000009000900000000004040208011000A86
:108DA0000004001800200023402400180000001FC9
:108DB000802040274029401F400000004007C03964
:108DC000000F0001C0004020403FC0244024401B51
:108DD0008000001F80204020402040308000002084
:108DE000403FC0204020401F80000020403FC02462
:108DF000402E4030C0000020403FC024402E0030B4
:108E00000000000F0010802040224033800200202C
:108E1000403FC0040004003FC02040204020403FAD
:108E2000C02040204000000060202020203FC020C3
:108E300000200020403FC024400B0030C0204020D4
:108E4000403FC020400040004000C03FC03C000305
:108E5000C03C003FC0000020403FC00C4023003F0A
:108E6000C020001F802040204020401F80000020A4
:108E7000403FC024402400180000001F80214021F2
:108E80004020E01FA0000020403FC02440260019E1
:108E9000C0004018C02440244022403180000030EF
:108EA0000020403FC020403000000020003F8000F4
:108EB0004000403F80200020003E0001C0070038F5
:108EC000002000380007C03C0007C0380000002028
:108ED0004039C0060039C02040000020003840075B
:108EE000C0384020000000304021C02640384020DB
:108EF000C00000000000007FE04020402000000093
:108F00000070000C00038000400000000040204082
:108F1000207FE00000000000002000400020000052
:108F200000000000100010001000100010001000E1
:108F3000000000400000000000000000000280056A
:108F400040054003C0004020003FC00440044003EF
:108F50008000000000038004400440064000000040
:108F6000000380044024403FC0004000000380050F
:108F700040054003400000000004401FC02440247E
:108F8000402000000002E00550055006500420205B
:108F9000403FC00440040003C000400000044027DC
:108FA000C000400000000000100010041027E00086
:108FB00000000020403FC00140070004C0044020E2
:108FC0004020403FC000400040000007C0040007B0
:108FD000C0040003C00000044007C00440040003B4
:108FE000C0004000000380044004400380000004EF
:108FF0001007F004500440038000000000038004C8
:1090000040045007F00010044007C0024004000470
:10901000000000000006400540054004C0000000BC
:109020000004001F8004400040000004000780008E
:1090300040044007C000400400070004C00180064F
:10904000000400060001C0070001C0060000000483
:109050004006C0010006C0044000000410071004D0
:10906000E00180060004000000044005C006400442
:109070004000000000000004007BE04020000000F1
:109080000000000000FFF000000000000040207B16
:10909000E0040000000000400080004000200020AC
:1090A0000040000000000000000000000000000080
:1090B0000000000000000000001FCC000C000000B9
:1090C0000000000000080030006000080030006070
:1090D000000000022003FC1E20022003FC1E2002D0
:1090E00020000000000E1811043FFF10840C7800CF
:1090F0000000000F0010840F3800C00778188400AB
:1091000078000000780F8410C411240E9800E40049
:1091100084000808006800700000000000000000E3
:1091200000000000000000000007E01818200440C4
:10913000020000000040022004181807E0000000B0
:109140000000000240024001800FF0018002400256
:109150004000000080008000800FF8008000800048
:109160008000000001000D000E0000000000000063
:10917000000000000000800080008000800080006F
:109180008000800000000C000C00000000000000C7
:1091900000000000000006001800600180060018B2
:1091A000002000000007F008081004100408080759
:1091B000F000000000080408041FFC000400040084
:1091C00000000000000E0C10141024104411840E36
:1091D0000C000000000C1810041104110412880C7B
:1091E000700000000000E00320042408241FFC009D
:1091F00024000000001F981084110411041088102E
:10920000700000000007F00888110411041888009D
:1092100070000000001C00100010FC13001C001067
:1092200000000000000E3811441084108411440E18
:1092300038000000000700088C104410440888071C
:10924000F00000000000000000030C030C00000010
:109250000000000000000000010106000000000006
:1092600000000000000080014002200410080810E7
:10927000040000022002200220022002200220021C
:109280002000000000100408080410022001400023
:1092900080000000000E001200100C106C10800FF7
:1092A00000000003E00C1813E4142417C408280776
:1092B000D000000004003C03C41C40074000E40050
:1092C0001C000410041FFC1104110411040E88007A
:1092D00070000003E00C1810041004100410081CA7
:1092E00010000010041FFC100410041004080807EC
:1092F000F0000010041FFC1104110417C41004082E
:1093000018000010041FFC1104110017C010000801
:1093100000000003E00C181004100410441C780036
:1093200040000010041FFC10840080008010841F87
:10933000FC10040000100410041FFC1004100400B2
:1093400000000000030001100110011FFE100010BA
:1093500000000010041FFC110403801464181C108A
:1093600004000010041FFC100400040004000400AA
:109370000C000010041FFC1F0000FC1F001FFC104D
:1093800004000010041FFC0C04030000E010181F70
:10939000FC100007F0080810041004100408080767
:1093A000F0000010041FFC10841080108010800F4B
:1093B00000000007F0081810241024101C080A07E9
:1093C000F2000010041FFC1104110011C011300E36
:1093D0000C000400000E1C11041084108410441CA6
:1093E0003800001800100010041FFC1004100018B2
:1093F00000000010001FF810040004000410041FF7
:10940000F8100010001E0011E0001C007013801CFA
:109410000010001FC0103C00E01F0000E0103C1FC7
:10942000C000001004180C163401C001C016341816
:109430000C100410001C00130400FC13041C00108A
:109440000000000804101C1064108413041C041095
:109450001800000000000000007FFE4002400240B3
:10946000020000000030000C0003800060001C00BF
:1094700003000000004002400240027FFE000000A6
:1094800000000000000000200040004000400020DC
:1094900000000000010001000100010001000100C6
:1094A000010001000040004000200000000000001A
:1094B0000000000000009801240144014401440020
:1094C000FC000410001FFC00880104010400880057
:1094D0007000000000007000880104010401040015
:1094E0008800000000007000880104010411081FBA
:1094F000FC0004000000F801440144014401440060
:10950000C800000000010401040FFC110411041143
:10951000001800000000D601290129012901C90114
:1095200006000010041FFC0084010001000104007B
:10953000FC000400000104190419FC0004000400EC
:109540000000000000000300010101190119FE00E4
:1095500000000010041FFC0024004001B4010C01B5
:109560000400000000100410041FFC0004000400AC
:10957000000000010401FC0104010001FC010401E0
:109580000000FC010401FC00840100010001040052
:10959000FC0004000000F8010401040104010400BF
:1095A000F80000010101FF008501040104008800AA
:1095B0007000000000007000880104010401050132
:1095C000FF00010104010401FC0084010401000109
:1095D000800000000000CC012401240124012401AA
:1095E00098000000000100010007F80104010400D8
:1095F000000000010001F80004000400040108015B
:10960000FC0004010001800170000C0010016001E9
:1096100080010001F0010C003001C00030010C019C
:10962000F0010000000104018C00740170018C0144
:10963000040000010101810171000E0018016001A8
:1096400080010000000184010C0134014401840107
:109650000C0000000000000000000001003EFC4083
:109660000240020000000000000000FFFF000000B8
:109670000000000000400240023EFC01000000002B
:1096800000000000006000800080004000400020DA
:109690000020000000000000000000000000B33FB8
:1096A000B2BE7D3A00002E40DFCF513800007E4030
:1096B000BF51FABA00E0A44019DAC3BA00E0C840CA
:1096C000C2ED8AB90040EB40CD1F2CBA0010064114
:1096D0002AFFFABA00C01541DFCFD13700D02441AC
:1096E0009A97703A0050334189478E360040414185
:1096F000E75B9D3800B04E41C00A98B900A05B41BD
:10970000558F943A00306841DA92C0BA00407441F3
:1097100062B3C63A0000803F00A0853F00908B3FB7
:1097200000C0913F0030983F00F09E3F00F0A53F01
:109730000050AD3F0000B53F0000BD3F0060C53F99
:109740000020CE3F0040D73F00C0E03F00C0EA3FCE
:109750000020F53F000000007D36AC397D3C3839F3
:10976000EBDCF438320A7E39124C26399B6AED392B
:10977000A4EE83397F661E39F6398A392B42653962
:10978000A48211395B991F39C3EECD39DDE7C637A5
:10979000A5A22F390000803FC3AA853FC2958B3F09
:1097A000D3C3913FF037983F32F59E3FD7FEA53F98
:1097B0003F58AD3FF304B53FA408BD3F2A67C53FFE
:1097C0008C24CE3FFD44D73FDFCCE03FC7C0EA3F0B
:1097D0007D25F53FF497000800000024D801000023
:1097E000E203000804990008D8010024F04F0000AB
:1097F000888300081359621B0889041A95041ABD4E
:10980000041AE5041A39041A65041704030904123A
:10981000013202164083042A572602010203010383
:109820001A1A0313215B1B0809041A25041A2904B8
:109830001A2D041A9D041A1D0413C08B42081943E3
:109840001182103C90D00304311B91683019041A26
:10985000F704811A190C9A2310411A79101A6D0411
:109860001A85041A6104140902202008010104C0A9
:10987000320904180A020806500507058102B82CAF
:10988000070501070914202240292019070B1C098C
:1098900007201B0A0645212A40B863FFFF8BC586B7
:1098A0009413C9871B08D9101A85081A41041AC1D4
:1098B0000C13E7521408974E1C089957FC124F1BC3
:1098C000089D0C1367581B083D1813155A1B0845B3
:1098D000081A6D101A9D1C137D511408D5501B08D1
:1098E00035081A01181A55041AAD241AAD081ABD04
:1098F0000419831132C072803220326032E032A00B
:049900000213050049
:040000050800029954
:00000001FF
