:020000040800F2
:10000000A8150024950300089F350008E133000877
:100010009D350008290B0008055700080000000066
:10002000000000000000000000000000013E000889
:10003000DD0B0008000000001B3700080D3E000823
:10004000AF030008AF030008AF030008AF030008C8
:10005000AF030008AF030008AF030008AF030008B8
:10006000AF030008AF030008AF030008AF030008A8
:10007000AF030008AF030008AF030008AF03000898
:10008000AF030008AF030008AF030008AF03000888
:10009000AF030008AF030008AF030008AF03000878
:1000A000AF030008AF030008AF030008AF03000868
:1000B000AF030008AF030008AF030008AF03000858
:1000C000AF030008AF030008AF030008AF03000848
:1000D000AF030008AF030008AF030008AF03000838
:1000E000AF030008AF03000800000000AF030008E2
:1000F000AF030008AF030008AF030008AF03000818
:10010000AF030008AF030008AF030008AF03000807
:10011000AF030008AF030008AF030008AF030008F7
:10012000AF030008AF030008AF030008AF030008E7
:10013000AF030008AF030008AF030008AF030008D7
:1001400000000000000000000000000000000000AF
:10015000AF030008AF030008AF030008AF030008B7
:10016000AF030008AF030008AF030008AF030008A7
:10017000AF030008AF030008AF0300080000000051
:10018000AF030008AF030008AF030008AF03000887
:10019000AF030008AF030008AF030008AF03000877
:1001A000AF030008AF030008AF030008AF03000867
:1001B000AF030008AF030008AF030008AF03000857
:1001C000AF030008AF030008AF030008AF03000847
:1001D000AF030008A1350008AF030008AF03000813
:1001E000AF030008AF030008AF030008AF03000827
:1001F000AF030008AF030008AF030008AF03000817
:10020000AF030008AF030008AF030008AF03000806
:10021000AF030008AF030008AF030008AF030008F6
:10022000AF030008AF030008AF03000800000000A0
:10023000AF030008AF03000800000000AF03000890
:10024000AF030008AF030008AF030008AF030008C6
:10025000AF030008AF030008AF030008AF030008B6
:10026000AF030008AF030008AF030008AF030008A6
:10027000AF030008AF030008AF0300080000000050
:10028000AF030008AF030008AF0300080000000040
:1002900000000000AF03000800F002F800F06BF867
:1002A0000AA090E8000C82448344AAF10107DA45D1
:1002B00001D100F060F8AFF2090EBAE80F0013F0B8
:1002C000010F18BFFB1A43F001031847C45C00007C
:1002D000E45C00000A444FF0000C10F8013B13F0FE
:1002E000070408BF10F8014B1D1108BF10F8015B8F
:1002F000641E05D010F8016B641E01F8016BF9D182
:1003000013F0080F1EBF10F8014BAD1C0C1B09D1D8
:100310006D1E58BF01F801CBFAD505E014F8016B4A
:1003200001F8016B6D1EF9D59142D6D370470000DC
:100330000023002400250026103A28BF78C1FBD8EE
:10034000520728BF30C148BF0B607047642900F0D6
:100350000B81782900F04481732900F03883002054
:1003600070471FB505F0F2FD9DE8030000F070FA3C
:100370001FBD10B510BD00F055FB1146FFF7F1FF92
:1003800005F0B8FB00F073FB03B4FFF7F2FF03BC0A
:1003900000F0A4FB0948804709480047FEE7FEE754
:1003A000FEE7FEE7FEE7FEE7FEE7FEE7FEE7FEE725
:1003B00004480549054A064B70470000E93E00081D
:1003C00099020008A80F0024A8150024A8110024F1
:1003D000A811002470B5064600F01EFA056806F163
:1003E0000B0020F00704B4429CBF002070BD2B46D8
:1003F0006A68BAB11068A04210D304F108018842BB
:100400003CBF5068586007D35168101941601168AB
:10041000091B016058601460101D70BD13465268BE
:10042000002AE7D12146284600F0FEF90028DED157
:1004300070BD70B50446051F00F0EEF90068002C91
:1004400014BF446870BD002C18BFAC423CBF2046AE
:100450006468F8D301680A18AA4218BF456003D13E
:100460002A6805461144016028684119A1421CBF51
:100470006C6070BD6168696021680844286070BD67
:100480000FB41CB5084B06AA7B446946009005983A
:1004900000F073FA04460020694600F081FA204615
:1004A0001CBC5DF814FB0000150500002DE9F041AF
:1004B0000E460446002020622046E168884730B39B
:1004C000252805D0D4E901219047206A401CF2E795
:1004D000E168204600278847050018D0A5F14100B3
:1004E000192802D820354FF40067324629462046A5
:1004F0002760FFF72BFF40B1012804D0F61D26F03E
:1005000007060836D8E7361DD6E72846DAE7206A18
:10051000BDE8F08170B50C460546012A05D0287863
:10052000800600D5EA69002302E0012305E05B1C98
:10053000934202D2E05C0028F9D1A869E618C01AFB
:10054000A861286A184428622846AFF3008004E0B6
:10055000D5E9012114F8010B9047B442F8D328469D
:10056000AFF3008070BD00002DE9F0410646002485
:1005700010687529314616A510D0AFF30080002809
:1005800002DA404213A507E031688A0701D512A5B7
:1005900002E0490704D511A5012401E0AFF3008072
:1005A00000210A2206F1240709E0B0FBF2FCB0FBAF
:1005B000F2F302FB1C00303078541846491C002826
:1005C000F3D123462A463046BDE8F04100F076B923
:1005D000000000002D0000002B00000020000000A3
:1005E00070B504460D4621461068AFF3008021889F
:1005F000090502D50F4A7A4402E00E4A7A440E32C7
:10060000002104F1240305E000F00F060009965DC7
:100610005E54491C0028F7D120780023000704D538
:10062000702D02D009B1022311322046BDE870407E
:1006300000F044B96C59000040EA010310B59B0773
:100640000FD1042A0DD310C808C9121F9C42F8D03C
:1006500020BA19BA884201D9012010BD4FF0FF30ED
:1006600010BD1AB1D30703D0521C07E0002010BD03
:1006700010F8013B11F8014B1B1B07D110F8013B8F
:1006800011F8014B1B1B01D1921EF1D1184610BD70
:10069000032A40F2308010F0030C00F0158011F8AE
:1006A000013BBCF1020F624498BF11F801CB00F886
:1006B000013B38BF11F8013BA2F1040298BF00F8DA
:1006C00001CB38BF00F8013B11F0030300F0258097
:1006D000083AC0F0088051F8043B083A51F804CBBE
:1006E000A0E80810F5E7121D5CBF51F8043B40F884
:1006F000043BAFF30080D20724BF11F8013B11F88F
:1007000001CB48BF11F8012B24BF00F8013B00F8D2
:1007100001CB48BF00F8012B704710B5203AC0F05C
:100720000B80B1E81850203AA0E81850B1E81850F2
:10073000A0E81850BFF4F5AF5FEA027C24BFB1E82F
:100740001850A0E8185044BF18C918C0BDE81040A0
:100750005FEA827C24BF51F8043B40F8043B08BFA9
:100760007047D20728BF31F8023B48BF11F8012B70
:1007700028BF20F8023B48BF00F8012B70474FF01C
:1007800000020429C0F0128010F0030C00F01B805E
:10079000CCF1040CBCF1020F18BF00F8012BA8BF6C
:1007A00020F8022BA1EB0C0100F00DB85FEAC17C30
:1007B00024BF00F8012B00F8012B48BF00F8012BE3
:1007C00070474FF0000200B5134694469646203914
:1007D00022BFA0E80C50A0E80C50B1F12001BFF4FA
:1007E000F7AF090728BFA0E80C5048BF0CC05DF860
:1007F00004EB890028BF40F8042B08BF704748BFAE
:1008000020F8022B11F0804F18BF00F8012B704721
:100810007047704770470000004870474C0F002435
:10082000704770477047704738B504460A46002045
:100830006946AFF30080002808BF38BD0246009922
:10084000204600F0CDF8012038BD012000F0E2B8CC
:10085000F8B5AFF30080054600200C46102000BF1D
:100860000646A819A0420DD9324669460020AFF3CA
:100870000080070008BF00F0CDF80098A04218BF24
:100880000546C419FFF7C8FF05600746F01D20F0B4
:1008900007004619284600F00AF8B44208BFF8BD20
:1008A000A21B31463868BDE8F84000F099B8002135
:1008B0000160C0E901107047102070472DE9F04732
:1008C0000D4699469246044600F1240801688806C0
:1008D00004D5E06921F01001216000E00120A84268
:1008E00001DD471B00E00027A1697A1902EB09002E
:1008F000081AA0612078C00602D42046AFF3008019
:10090000002608E0D4E901211AF806009047206A81
:10091000401C761C20624E45F4DB2078C0060AD5C8
:100920002046AFF3008006E0D4E901213020904753
:10093000206A401C2062381EA7F10107F4DC07E0A2
:10094000D4E9012118F805009047206A401C206274
:10095000281EA5F10105F3DC2046AFF300802078C6
:10096000000602D50220BDE8F0870120FBE7000069
:1009700001694A1C02610878704700B58FB0CDE963
:1009800001310021059105497944CDE90310114653
:100990006846FFF78BFD0FB000BD0000E5FFFFFFCD
:1009A0000A6802F8010B0A60704710B5436913B179
:1009B000AFF3008001E0FFF7ADFD012010BD12781C
:1009C00000F124010A7000224A700122EDE711684B
:1009D0004FF0FF32E9E7000000487047440F002461
:1009E000034640688C46002818BF88423CBF034637
:1009F0004068F8D318681844884207D00CF1030007
:100A000020F00700001D411A521A0146081D0A6015
:100A1000FFF70FBD10B500F039F8BDE8104000F049
:100A20002FB870477546FFF7D7FFAE4605006946F9
:100A3000534620F00700854618B020B5FFF7B8FCF4
:100A4000BDE820404FF000064FF000074FF00008CF
:100A50004FF0000B21F00701AC46ACE8C009ACE850
:100A6000C009ACE8C009ACE8C0098D46704710B5B4
:100A70000446AFF300802046BDE81040FFF784BC79
:100A8000002801D000F02AB87047000010B50128F6
:100A900005D0002103A000F027F8012010BD09A116
:100AA000F8E7000053494752544D454D3A204F75E1
:100AB00074206F662068656170206D656D6F727956
:100AC000000000003A2048656170206D656D6F720E
:100AD0007920636F72727570746564000149182023
:100AE000ABBEFEE72600020070B505460C460A20A4
:100AF00000E06D1C00F011F835B128780028F8D11D
:100B000002E0641C00F009F814B120780028F8D144
:100B1000BDE870400A20AFF3008008B569468DF843
:100B200000000320ABBE08BDFEE7000070B5BFF3B8
:100B30004F8FBFF36F8F184800210368174A23F4C3
:100B4000003303601160BFF34F8FBFF36F8F124A02
:100B500070321160BFF34F8F016821F48031016062
:100B6000BFF34F8F101F43F6FF7300680B4D243502
:100B7000C0F34E31C0F3C90203EA4114104600BF6E
:100B800044EA80762E60401EFAD2491EF4D2BFF3AA
:100B90004F8FBFF36F8F70BD14ED00E050EF00E09A
:100BA0000020704700207047094810B503F07FFA15
:100BB0000748084BD0F8BC120020421C0C5C1C54A7
:100BC000D0B24028F9D3044901200870002010BD9C
:100BD0006C0600247C01002400000024704770474C
:100BE00070B5044600F0FEF90546601C02D00448CA
:100BF0000078044400F0F6F9401BA042FAD370BD1F
:100C00008C0000242DE9F04F4F4D00224FF0010AD7
:100C10004FF00F0B92E000BF0AFA02F919EA010344
:100C20007ED022F0030606F1B0469407D6F808C439
:100C3000270FDFF818810BFA07FE40450EEA0C0477
:100C400002D14FF0000C40E0DFF804C1604502D152
:100C50004FF0010C39E0DFF8FCC0604502D14FF0E5
:100C6000020C32E0DFF8F0C0604502D14FF0030C17
:100C70002BE0DFF8E8C0604502D14FF0040C24E01F
:100C8000DFF8DCC0604502D14FF0050C1DE0DFF855
:100C9000D4C0604502D14FF0060C16E0DFF8C8C0A2
:100CA000604502D14FF0070C0FE0DFF8C0C060458F
:100CB00002D14FF0080C08E0DFF8B4C0604502D163
:100CC0004FF0090C01E04FF00A0C0CFA07FCA445A8
:100CD00013D12C689C432C606F684FF0B0449F4345
:100CE0006F6027689F43276067689F436760D6F8F7
:100CF000084424EA0E04C6F8084407680323D4080D
:100D00004FEA42084FEA427C03FA08F34FEADC6CF0
:100D10001F4307600BFA0CF600EB8404276A00E01F
:100D20000BE0B7432762C4689C43C460446824EA6C
:100D30000904446084689C438460521C31FA02F3C5
:100D40007FF46AAFBDE8F08F8000005800000258C1
:100D50000004025800080258000C02580010025803
:100D60000014025800180258001C025800200258B3
:100D7000002402582DE9FC4F01257E4C00234FF042
:100D8000030A4FF0B04E4FF00F0BEBE005FA03F6FD
:100D900037403A0077D04F68012F05D0022F03D09B
:100DA000112F01D0122F1AD187684FEA4308D1F8CA
:100DB0000CC00AFA08F927EA09070CFA08FC4CEA01
:100DC000070CC0F808C0476891F804C0B743CCF3DB
:100DD000001C0CFA03FC4CEA070CC0F804C0C668FF
:100DE0004FEA430CD1F80880E1460AFA0CF7BE43FB
:100DF000019708FA09F848EA0608C0F80C804E681E
:100E0000022E01D0122E12D1DE084FEA437C00EBF5
:100E1000860600960F69366A4FEADC6C0BFA0CF80E
:100E200007FA0CF726EA08063743009E37620E7968
:100E30000768DDF804C006F0030606FA09F627EA9B
:100E40000C073E4306604E68F6001CD54A4E3768D4
:100E500047F00207376036689F0706F002060096E3
:100E600023F0030606F1B046B1463F0FD6F80864FA
:100E7000DFF808810BFA07FC404526EA0C0603D18F
:100E80004FF0000C41E06CE0DFF8F4C0604502D1A7
:100E90004FF0010C39E0DFF8ECC0604502D14FF0B3
:100EA000020C32E0DFF8E0C0604502D14FF0030CE5
:100EB0002BE0DFF8D8C0604502D14FF0040C24E0ED
:100EC000DFF8CCC0604502D14FF0050C1DE0DFF823
:100ED000C4C0604502D14FF0060C16E0DFF8B8C080
:100EE000604502D14FF0070C0FE0DFF8B0C060455D
:100EF00002D14FF0080C08E0DFF8A4C0604502D131
:100F00004FF0090C01E04FF00A0C0CFA07FC4CEA18
:100F1000060CC9F808C426684F6826EA0206FF03D3
:100F200000D51643266066684F6826EA0206BF03AE
:100F300000D516436660D1F804C07646DEF800702E
:100F40005FEACC2C27EA020700D517433760D1F8B7
:100F500004C077685FEA8C2C27EA020700D51743A4
:100F600077605B1C0A681746DA407FF40FAFBDE874
:100F7000FC8F000080000058F44402580000025822
:100F80000004025800080258000C025800100258D1
:100F90000014025800180258001C02580020025881
:100FA000002402580069084000D0012070474269BF
:100FB00031EA020200D10904816170470AB18161FE
:100FC00070470904FBE7000002480068C0F30B000B
:100FD000704700000010005C01480068000C70477A
:100FE0000010005C01488068704700008C000024FD
:100FF0000248816802781144816070478C000024A7
:10100000032010B500F096F801F044FE0F4A104995
:1010100014681368C4F3032203F00F038A5CC95CED
:1010200002F01F0201F01F01D0400A4A20FA01F12C
:10103000116009490860002000F010F808B1012093
:1010400010BD00F02BF8002010BD0000184402581D
:10105000565F00089C0000249800002470B50D4DD8
:1010600004462878A0B14FF47A71B1FBF0F00A4938
:101070000968B1FBF0F002F0A0F948B9102C07D2D2
:1010800000222146501E00F035F800206C6070BD33
:10109000012070BD8C00002498000024054808B58C
:1010A000016841F002010160006800F00200009058
:1010B00008BD0000F444025800280DDB410900F08F
:1010C0001F028900012001F1E0219040C1F8800158
:1010D000BFF34F8FBFF36F8F7047002809DB4109C3
:1010E00000F01F028900012001F1E0219040C1F8C9
:1010F000000170470E4BF0B41B680D46C3F302238A
:10110000C3F10706042E00D90426191D072901D2B0
:10111000002300E0DB1E012404FA06F19C40491E76
:101120002940641E994014402143F0BC04F0B9BB2F
:101130000CED00E0064900F0070210B54FF6FF0481
:101140000868044B204040EA02201843086010BDA4
:101150000CED00E00000FA05BFF34F8F0548064A8A
:10116000016801F4E06111430160BFF34F8F00BFDC
:10117000FDE700000CED00E00400FA050168012322
:10118000C0F8FC33002280F8F4238869044A40F058
:1011900000608861486D104348650020704700007A
:1011A0000300001070470068416200207047F0B5EE
:1011B00003685D6A39B19F6A4C1E00204FF4827645
:1011C00005EB17450BE045EA0240986210E0471C2A
:1011D00006EB800053F800C0F8B205EB1C45A042B6
:1011E000F5D34FF4807000EB810045EA02421A50BB
:1011F0000020F0BDD0F8040403F057BAC1EBC102DF
:1012000000EB8202D0F80404926C03F0B9B9C1EB90
:10121000C10200EB8202D0F80404D2F8082203F0E5
:1012200004BA10B504000CD0032084F8BD03204696
:1012300000F07EFC204600F0C9FB002084F8BD03CE
:1012400010BD012010BDD0F8040403F030BA01F045
:101250000F020B0670B5C2EBC20104464FF001004D
:101260004FF0000504EB810103D581F83D003C31CE
:1012700003E081F8FD5101F5FE710A7094F8BC237A
:10128000012A08D084F8BC03206803F0B1FD0020D7
:1012900084F8BC5370BD022070BD70B5426804462E
:1012A00001F00F00904201D9012070BD01F00F0242
:1012B0004FF000050B06C2EBC2014FF0010204EB38
:1012C000810103D581F83D203C3103E081F8FD51D7
:1012D00001F5FE718D70087094F8BC03012808D0E8
:1012E00084F8BC23206803F07DFF002084F8BC5301
:1012F00070BD022070BD2DE9F04101F00F060446DB
:101300000D064FF00100C6EBC6014FF0000504EBDF
:10131000810103D581F83D003C3103E081F8FD51A6
:1013200001F5FE714F788A60CB700E7007B1CE80E8
:10133000022B00D10D7194F8BC23012A09D084F846
:10134000BC03206803F0AEFC284684F8BC53BDE81B
:10135000F0810220FBE770B501F00F050C46002676
:10136000C5EBC50100EB8101C1F80822C1E9843653
:1013700081F8FD6181F8FC5101F5FE710369012BD3
:1013800000D10A612207027C006803D003F082FFCB
:10139000002070BD03F06CFEFAE770B50D464168A1
:1013A000044605F00F00884201D9012070BD2906CE
:1013B0004FF000064FF0010207D5C0EBC00104EB6F
:1013C000810181F83D203C3107E0C5EBC50104EB0C
:1013D000810181F8FD6101F5FE718A70087094F851
:1013E000BC03012807D084F8BC23206803F026FF43
:1013F000280702D007E0022070BD217C04F571723D
:10140000206803F0C3FE002084F8BC6370BD2DE9A2
:10141000F04101F00F050C460026C5EBC501012780
:1014200000EB81018A64C1E9143681F83D7001F84E
:101430003C5F0369012B00D10A612207027C00682E
:1014400004D003F027FF0020BDE8F08103F010FE78
:10145000F9E700002DE9FC5F05680446284604F022
:1014600042F800287ED1206804F069F8002879D07D
:10147000206804F064F8800704D52068416901F011
:1014800002014161206804F05AF8C10604F5717048
:10149000009034D52068816921F0100181612F6AA4
:1014A00007F00F01C7F34340C1EBC101022804EB71
:1014B000810606F5FE7602D0062811D01AE047F61E
:1014C000F070074216D0C7F30A12F1681746284693
:1014D00004F039F8F168B0693944F160384408E043
:1014E00000990822284604F02EF8B069C7F30A11C3
:1014F0000844B0612068816941F010018161206871
:1015000004F01DF800034FF001094FF0080B5BD504
:101510002068002603F0F2FFDFF8A8A3074651E099
:10152000F8074DD02068F1B204F001F88046C007FA
:1015300007D005EB4611C1F8089B3146204602F062
:1015400035F85FEA087022D505EB4611C1F808BBF3
:101550002068016C00EB461001915145D0F8081B42
:1015600007D900E0ABE1090403D54FF40041C0F80E
:10157000081B204600F0B4FA0198504507D92069AD
:10158000012804D120680121009A03F0FFFD5FEAE1
:10159000C86004D505EB46111020C1F8080B5FEABE
:1015A000886004D505EB46102021C0F8081B5FEACF
:1015B000884005D505EB46114FF40050C1F8080BE3
:1015C0007F08761C002FABD1206803F0B8FF4003E2
:1015D0004FF0000A5CD5206803F089FF002607461B
:1015E00054E0F80750D02068F1B203F08EFF804637
:1015F000C00723D0D5F8342806F00F0C05EB4613AE
:1016000009FA0CF08243C5F83428C3F80899206918
:1016100001280FD1C6EBC60004EB8000D0E91112FF
:101620001144816436B9206D20B920680121009AE7
:1016300003F0ACFD2046F1B2FFF7E0FD5FEA087071
:1016400003D505EB4611C1F808B95FEAC86004D5B7
:1016500005EB46111020C1F808095FEA486004D57F
:1016600005EB46114020C1F808095FEA887004D5EF
:1016700005EB46110220C1F808095FEA086003D5AE
:101680003146204601F0F8FF7F08761C002FA8D1D4
:10169000206803F054FF002811DAD5F8040820F080
:1016A0000100C5F8040894F8F403012839D0204655
:1016B00000F0FAF92068416901F0004141612068B9
:1016C00003F03DFF00050BD5D5F80808C00702D090
:1016D000204600F04DFA2068416901F40061416143
:1016E000206803F02CFF00010AD52068416901F051
:1016F0000061416194F8F403D0B1204600F038FA5B
:10170000206803F01CFFC00476D5D5F8040820F04B
:101710000100C5F804082068102103F0C5FE00216F
:1017200035E00021204684F8F4A3FFF73BFDC1E734
:1017300084F8F4932068406D0121C0F38300C4F85D
:10174000F8032046FFF72EFDDAE700BF05EB411056
:101750004FF67F32C0F80829D0F8003923F400137F
:10176000C0F80039D0F8003943F00063C0F8003900
:10177000C0F8082BD0F8002B22F40012C0F8002B80
:10178000D0F8002B42F00062C0F8002B491C6068C2
:101790008842DBD8D5F81C0840F00110C5F81C08B9
:1017A000206B60B1D5F8840840F00B00C5F88408C0
:1017B000D5F8440840F00B00C5F844080CE0D5F813
:1017C000140842F22B010843C5F81408D5F8100894
:1017D00040F00B00C5F81008D5F8000820F4FE60B2
:1017E000C5F80008217C2068009A03F0CFFC20682F
:1017F000416901F480514161206803F0A0FE80043A
:1018000017D5206803F08EFA206803F05FFEE060D1
:1018100001F01EFA0146207B2368C2B2184603F08D
:10182000C9FE204600F02AF92068416901F4005100
:101830004161206803F083FE000707D5204600F0D1
:1018400037F92068416901F008014161206803F01F
:1018500076FEC00208D50021204600F035F8206849
:10186000416901F480114161206803F068FE800243
:1018700008D50021204600F02BF82068416901F4CA
:1018800000114161206803F05AFE400007D5204650
:10189000FFF7B0FC2068416901F080414161206898
:1018A00003F04DFE40070AD520684568680702D559
:1018B0002046FFF7C8FC2168486828434860BDE817
:1018C000FC9F00000A30544FD0F8040402F03EBFE1
:1018D000D0F8040402F03CBF2DE9F04104008AB0C6
:1018E00005D094F8BD030025266820B108E001204A
:1018F0000AB0BDE8F081204684F8BC5300F082F8BD
:10190000032084F8BD03F06BC00500D42561206876
:1019100003F0A8FB04F11001684628228846FEF770
:10192000FCFE94E80F0003F00BFA0227D8BB2068F6
:10193000002103F016FE0020012610E0C0EBC001DC
:10194000421C04EB810181F83D6081F83F504D64F9
:101950008D640D6581F83C00A1F84200D0B2616849
:101960008142EBD8002011E0C0EBC001421C04EB27
:10197000810181F8FD5181F8FF51C1F80452C1F88D
:101980000852C1F8105281F8FC01D0B2616881425E
:10199000EAD8282241466846FEF7BFFE94E80F00C9
:1019A00003F0A4FA10B184F8BD73A0E7606A84F86C
:1019B000385084F8BD63012802D12046FFF7DEFBD2
:1019C000206803F087FA002092E7000010B5006855
:1019D000094988420ED10948016821F0006101607F
:1019E00007484FF4C051FFF70DF9BDE810406520DE
:1019F000FFF762BB10BD000000000840D844025849
:101A00000000025810B586B0044614216846FEF75F
:101A1000D8FE17492068884228D11648016841F04D
:101A20000101016000680A23022200F00100059014
:101A300000204FF4C05100916946CDE90120CDE965
:101A400003030D48FFF796F90A480838016841F08A
:101A50000061016000680022114600F000600590FE
:101A60006520FFF747FB6520FFF737FB06B010BD89
:101A700000000840E04402580000025870B50446D7
:101A8000C068012570B1022801D0FFF7A8F8D4F88A
:101A90000404294602F0B2FED4F80404BDE8704004
:101AA00002F06DBE0025F2E7D0F8040402F090BE0B
:101AB000D0F8040402F096BE10B5044690F8BC03BA
:101AC00001280BD0012084F8381084F8BC0320686A
:101AD00003F05EFD002084F8BC0310BD022010BDA1
:101AE000D0F8042400F57171104602F093BE10B5D1
:101AF00090F8BC1304460068012906D0A26A0121AF
:101B000084F8BC13012A02D008E0022010BDA169AC
:101B1000012903D0816B41F480318163206803F097
:101B2000CDF9206803F0AAFC002084F8BC0310BDA6
:101B300070B5044690F8BC0301280FD0012084F84A
:101B4000BC03206803F08EFA206803F0A7FD4FF075
:101B5000000528B1012084F8BC5370BD022070BD7F
:101B6000206803F0B7F9002084F8BC5370BD000072
:101B700010B50446D0F8040402F095FE2068D0F8B1
:101B8000001E41F00101C0F8001E206A002804D0A8
:101B90000248016841F00601016010BD10ED00E04F
:101BA000134970B50A68D243520705D5096801F098
:101BB0000701814213D118E00A6822F007020243AC
:101BC0000A60FFF70FFA0A4D4FF47A760446083D93
:101BD00007E000BFFFF706FA001BB04201D9012061
:101BE00070BD2868C0438004F4D4002070BD00009C
:101BF0000C4802580248016841F08071016070474A
:101C00000C4802580248016841F480710160704735
:101C1000004802582DE9F84F1E4615468A460446EC
:101C2000FFF7E0F9814694F8400001280ED0012723
:101C30004FF0000884F8407094F84100012807D064
:101C40005FF0020084F84080BDE8F88F0220FBE7D7
:101C50004221C4F8448084F84110002220214B46E0
:101C60002046009601F0F7FE0028EBD12168286895
:101C700088622168686848622168A868C86220682C
:101C80002969026822F4400242F480021143016093
:101C9000E9684FF000622046CAF82810514601F06A
:101CA00073FD01224B4608212046009601F0D3FE29
:101CB0000028C7D122680821D16084F84170C1E7AB
:101CC0002DE9F84F17468B460446FFF78BF98246FD
:101CD00094F8400001280ED001264FF0000884F847
:101CE000406094F84100012807D0022584F8408024
:101CF0002846BDE8F88F0220FBE74FF00209C4F840
:101D0000448084F8419000222021534620460097C9
:101D100001F0A1FE0500E9D100225946204601F05C
:101D200033FDDBF8240058B9012253460221204636
:101D3000009701F090FE0500D8D12168C1F80C9001
:101D400084F84160D2E710B504000CD02068016827
:101D500021F001010160204600F0A4F80020606439
:101D600084F8410010BD012010BD0000F8B5044604
:101D7000FFF738F905461CB194F8410010B107E0AF
:101D80000120F8BD204600F0B1F841F28830A0648F
:101D900020686FF0FF02A168036802EB012223F4C0
:101DA000706111430160A06C002220212B4600903D
:101DB000204601F050FE0028E3D12268D4E907351F
:101DC0002679E168176845EA0665DFF844C01943DB
:101DD000104B29430025012607EA0C0739431160FF
:101DE0002268D4E90517B4F810C0D2F804E03943EA
:101DF0000EEA030E4EEA0C431943516021680A684B
:101E000042F001020A60656484F84160F8BD000098
:101E10002FFFFF00FEF8E0FF2DE9F8431646884645
:101E20000446FFF7DFF8034694F8400001280ED07F
:101E3000012084F84000002794F84100012808D0D0
:101E40005FF0020584F840702846BDE8F883022060
:101E5000FBE7A06C8221676484F8411000222021F6
:101E60000090204601F0F7FD0500EBD12068726874
:101E7000016821F0080111430160706808280AD147
:101E800022681021306810632068C16020680168F2
:101E900041F4801101604FF040624146204601F05C
:101EA00073FCCFE710B500680B49884213D10B488B
:101EB000016821F48041016009480421FEF7A2FE77
:101EC00008484421FEF79EFEBDE8104006484FF446
:101ED0006051FEF797BE10BD00500052D444025826
:101EE0000010025800040258000C02582DE9F0417D
:101EF00086B0044614216846FEF763FC2B4920682F
:101F000088424FD12A48016841F48041016000684D
:101F100000F48040059026480C30016841F0100123
:101F20000160016801F010010591016841F00201B2
:101F30000160016801F002010591016841F00801AA
:101F400001600068092701AA4FF0040800F00800AA
:101F5000CDF80080022469460025CDE904700326EF
:101F6000144882E87000FEF705FFCDE9008402AA5C
:101F7000DFF844806946404682E8E000FEF7FAFE5A
:101F80004FF4605069468DE8F1000C48FEF7F2FE10
:101F90000A214020CDE903618DE8310069464046C1
:101FA000FEF7E8FE06B0BDE8F081000000500052E8
:101FB000D44402580010025800040258000C025881
:101FC0002DE9F84F15460E460446FFF70BF88246FA
:101FD0002068816994F8403000F12009012B0DD070
:101FE00001274FF0000884F8407094F84120012A3E
:101FF00006D0022084F84080BDE8F88F0220FBE77D
:10200000C4F84480A6B3222284F841200269521CFD
:10201000A2630269521C62632663426922F0406235
:1020200042F080624261206881610EE00621204614
:1020300001F011FDC8B999F80000216B0870206B00
:10204000401C2063A06B401EA063A06B53464FF062
:10205000010200950028E9D14FF00201204601F06D
:10206000FAFC10B922680221D16084F84170C1E7FE
:10207000FFE7616C012041F008016164BAE70000EC
:102080002DE9F84F15460E460446FEF7ABFF94F8CF
:10209000401082462068012900F120090ED0012756
:1020A0004FF0000884F8407094F84110012907D0DF
:1020B0005FF0020084F84080BDE8F88F0220FBE763
:1020C000C4F8448086B3122184F841100169491C88
:1020D000E1620169491CA1626662416921F04061C7
:1020E00041610EE00421204601F0B5FCC8B9606AE8
:1020F000017889F80010606A401C6062E06A401E46
:10210000E062E06A53464FF0010200950028E9D1F1
:102110004FF00201204601F09EFC10B92268022116
:10212000D16084F84170C5E7FFE7616C012041F0A0
:1021300008016164BEE700002DE9FC5F044650F829
:10214000241B002500902E460801FE4FDFF8F8837F
:102150001DD5606E50B1B0F5801F0CD0B0F5001FDA
:102160000ED0B0F5401F1DD001250FE0386840F4B7
:102170000030386016E00221201D01F0D5FC03E09C
:102180000098022101F060FD05000BD02E4620884A
:10219000C00523D5606D05281ED2DFE800F00C11C4
:1021A000161B1B00626ED8F8001021F44011114379
:1021B000C8F80010EBE7386840F40030386009E0F8
:1021C0000021201D01F0B0FC03E00098002101F087
:1021D0003BFD05466DB100E001252E4620888005B7
:1021E00028D5A06D80281ED00CDC90B140280ED1DF
:1021F00014E0626DD8F8001021F007011143C8F80F
:102200000010EBE7C02813D0B0F5807F10D0012577
:102210000FE0386840F40030386009E00021201DEC
:1022200001F082FC03E00098002101F00DFD05465D
:1022300095B12E462088DFF81093400509F1080972
:102240002CD5D4F8A400B0F5800F20D00DDCA0B1BF
:10225000B0F5001F0FD115E0A26DD8F8001021F4E1
:10226000E0711143C8F80010E4E7B0F5C00F13D0D7
:10227000B0F5000F10D001250FE0386840F40030B1
:10228000386009E00021201D01F04EFC03E00098B9
:10229000002101F0D9FC054675B12E4620880005C5
:1022A0002DD5D4F8A800B0F1007F21D00EDCA8B164
:1022B000B0F1807F10D116E0D4F8A420D9F8001036
:1022C00021F460011143C9F80010E7E7B0F1407F45
:1022D00013D0B0F1806F10D001250FE0386840F4C2
:1022E0000030386009E00021201D01F01DFC03E0F2
:1022F0000098002101F0A8FC05466DB12E4620682B
:1023000080011FD5A06CD8B110280FD0202812D082
:10231000302815D0012514E0D4F8A820D9F80010F1
:1023200021F0E0611143C9F80010E8E7386840F493
:102330000030386004E00221201D01F0F5FB054665
:102340006DB12E462088C0042BD5E06DB0F5005F3E
:1023500020D00DDCA0B1B0F5805F0FD115E07A4838
:10236000A26C001F016821F0300111430160E9E710
:10237000B0F5405F13D0B0F5804F10D001250FE0CD
:10238000386840F40030386009E00021201D01F079
:10239000CBFB03E00098002101F056FC054685B117
:1023A0002E462088800429D5206EB0F5403F23D0EA
:1023B00010DC08B3B0F5803F14D0B0F5003F0FD16A
:1023C00015E0E26DD8F8001021F4E0411143C8F89F
:1023D0000010E6E7B0F5802F0ED0B0F5A02F0BD09F
:1023E00001250AE00121201D01F09EFB03E0009879
:1023F000012101F029FC05468DB12E4620884004BC
:102400002AD5D4F8AC00B0F1405F23D010DC08B37B
:10241000B0F1805F14D0B0F1005F0FD115E0226EF3
:10242000D8F8001021F4E0211143C8F80010E5E7C6
:10243000B0F1804F0ED0B0F1A04F0BD001250AE0D3
:102440000121201D01F070FB03E00098012101F043
:10245000FBFB05466DB12E46208800041FD5E06EBB
:10246000D8B1B0F1805F0ED0B0F1005F10D001257F
:1024700014E0D4F8AC20D9F8001021F0E041114369
:10248000C9F80010E8E7386840F40030386004E02C
:102490000121201D01F048FB05466DB12E46206844
:1024A000C0011ED5606CD0B101280ED0022811D019
:1024B000032814D0012513E0E26ED8F8001021F0B3
:1024C00040511143C8F80010E9E7386840F4003083
:1024D000386004E00221201D01F026FB054685B18D
:1024E0002E462068DFF85CB04002ABF11C0B57D5DC
:1024F0001648016841F480710160FEF773FD824661
:102500000EE01148626C001F016821F003011143C5
:102510000160E6E7FEF766FDA0EB0A0064283DD8FF
:102520000A480068C005F5D57DBBDFF81CA0B4F8EB
:10253000B0100AF1200ADAF8000001F4407100F44A
:10254000407005E02C44025850440258004802589C
:10255000884211D0DAF80010DAF8002021F4407136
:1025600042F48032CAF80020DAF8002022F48032E7
:10257000CAF80020CAF80010D4F8B000B0F5807F87
:1025800021D1FEF72FFD019019E008E0FEF72AFDAA
:102590000199411A41F28830814210D903252E4613
:1025A0002078DFF830A4C0073DD0A06F182838D0BD
:1025B00026DC80B3082829D0102825D12CE0DAF8B1
:1025C00000008007E2D5D4F8B010C1F30120032841
:1025D00058460DD0016821F47C510160B4F8B02058
:1025E000DAF80010C2F30B021143CAF80010D7E763
:1025F000F94A036802EA111223F47C511143ECE713
:1026000020280ED028280CD001250BE00121201D08
:1026100001F08AFA04E004E00098012101F014FBC3
:1026200005465DB12E46207880071ED5606F0628CE
:1026300019D2DFE800F0160C11161616A26FDAF8A0
:10264000001021F038011143CAF80010EBE7012116
:10265000201D01F069FA03E00098012101F0F4FA6D
:10266000054675B100E001252E46207840071FD5AC
:10267000D4F89000062819D2DFE800F0160C1116E5
:102680001616626FDAF8001021F007011143CAF83C
:102690000010EAE70121201D01F046FA03E000984E
:1026A000012101F0D1FA05469DB100E001252E4639
:1026B000207880062BD5D4F88C00B0F1405F24D070
:1026C00011DC10B3B0F1805F15D0B0F1005F10D114
:1026D00016E0D4F89020D9F8001021F0070111433A
:1026E000C9F80010E4E7B0F1804F0ED0B0F1A04F70
:1026F0000BD001250AE00021201D01F015FA03E0AE
:102700000098022101F0A0FA05468DB12E462078EE
:1027100040062BD5D4F89800B0F5406F24D011DCDA
:1027200010B3B0F5806F15D0B0F5006F10D116E082
:10273000D4F88C20DAF8001021F0E0411143CAF8F7
:102740000010E4E7B0F5805F0ED0B0F5A05F0BD0CD
:1027500001250AE00021201D01F0E6F903E00098C0
:10276000022101F071FA05468DB12E46207800064F
:102770002BD5D4F89C00B0F5C04F24D011DC10B399
:10278000B0F5005F15D0B0F5804F10D116E0D4F849
:102790009820D9F8001021F4E0511143C9F8001035
:1027A000E4E7B0F5004F0ED0B0F5204F0BD0012577
:1027B0000AE00021201D01F0B7F903E00098022192
:1027C00001F042FA05464DB12E46207800071ED58D
:1027D000D4F88000B0F5805F0AD00FE0D4F89C20D8
:1027E000D9F8001021F460411143C9F80010ECE75A
:1027F0000098022101F028FA00B10126D4F88020C7
:10280000DAF8001021F440511143CAF80010207882
:10281000C00613D5D4F89400B0F5807F05D1009898
:10282000022101F011FA00B10126D4F89420D9F860
:10283000001021F440711143C9F800102068000312
:1028400016D5D4F8A00038B1B0F5803F09D0B0F566
:10285000003F0BD001250AE00021201D01F064F9A2
:1028600003E00098022101F0EFF9054685B12E46FC
:102870002068400322D5D4F88400B0F5801F11D021
:10288000B0F5001F13D0B0F5401F15D0012514E09E
:10289000D4F8A020D9F8001021F440311143C9F830
:1028A0000010E5E7386840F40030386004E0009834
:1028B000012101F0C9F9054655B12E462068C00333
:1028C0001CD5E06C70B1B0F5803F10D0012514E04C
:1028D000D4F88420DAF8001021F440111143CAF82A
:1028E0000010EBE7386840F40030386004E0022163
:1028F000201D01F019F90546CDB12E462068800053
:1029000005D50098022101F09FF900B10126206849
:1029100080031BD5E06FB8B1B0F5807F10D0B0F563
:10292000007F11D0B0F5407F0ED001250DE0294881
:10293000E26C0838016821F4803111430160DDE761
:10294000386840F400303860F5B32E462068C00285
:1029500007D5226FD8F8001021F000411143C8F8C4
:1029600000102068C00008D5D4F8B420DBF80010AF
:1029700021F480411143CBF800102068800207D574
:10298000A26ED8F8001021F080711143C8F8001031
:10299000206840000CD5DBF8001021F40041CBF892
:1029A0000010DBF80010D4F8B8201143CBF8001069
:1029B0002068002807DA0748226D0838016821F0EE
:1029C00040511143016000E008E086B10120BDE8FC
:1029D000FC9F000054440258CFFFFF00E26FDAF87A
:1029E000001021F440711143CAF80010AEE7002036
:1029F000EDE700002DE9F05F04000F467ED0DFF820
:102A00003882D8F8000000F00F00B8420CD2D8F895
:102A1000001021F00F013943C8F80010D8F8000069
:102A200000F00F00B84269D12078844D40070AD5E4
:102A30002069296801F07001884204D9296821F0D1
:102A400070010143296020787C4E361D00070AD5AD
:102A50006069316801F07001884204D9316821F061
:102A60007001014331602078C0060AD5A069316841
:102A700001F4E061884204D9316821F4E061014346
:102A800031602078DFF8B4B180060BF1080B0CD56B
:102A9000E1695846DBF8002002F07002914204D947
:102AA000026822F070020A430260207880070AD58B
:102AB000E068296801F00F01884204D9296821F0F3
:102AC0000F01014329602078C0073ED05B49A2680E
:102AD0002868183920F47060104328606068022864
:102AE00018D0032819D00968012819D049070029EE
:102AF0004ADADFF848A1AAF1080A00E044E0DAF86F
:102B0000002022F007020243CAF80020FEF76AFA0A
:102B1000814612E009688903E9E709688901E6E767
:102B2000C905E4E7FEF75EFAA0EB090141F288303F
:102B3000814202D90320BDE8F09F6168DAF8000005
:102B400000F03800B0EBC10FECD1207880070AD537
:102B5000E068296801F00F01884204D2296821F059
:102B60000F0101432960D8F80010404601F00F0121
:102B7000B9420BD9016821F00F01394301600068A7
:102B800000F00F00B84201D00120D4E720784007C0
:102B90000AD52069296801F07001884204D22968A9
:102BA00021F0700101432960207800070AD560698F
:102BB000316801F07001884204D2316821F070015F
:102BC000014331602078C0060AD5A069316801F45C
:102BD000E061884204D2316821F4E0610143316050
:102BE000207880060CD5E1695846DBF8002002F019
:102BF0007002914204D2026822F070020A4302601D
:102C000000F048F80E492A682B68C2F3032203F04B
:102C10000F038A5CC95C02F01F0201F01F01D04063
:102C2000084A20FA01F11160074908600748006866
:102C3000BDE8F05FFEF712BA0020005218440258B7
:102C4000565F00089C000024980000249000002497
:102C500030B500F01FF80B4A0B490C4B156814688F
:102C6000C5F3032204F00F048A5C095D02F01F0221
:102C700001F01F01D040064A20FA01F119601060EE
:102C8000084630BD18440258565F00089C000024D6
:102C900098000024454970B545480968434B103BEE
:102CA00011F0380208D00111082A03D0102A0BD0E5
:102CB000182A0BD0084670BD19688906FBD519681B
:102CC000C1F3C101C84070BD3A4870BD3749374DA6
:102CD00018310C1D24350A68096826682D6802F031
:102CE000030406F00102C1F30511C5F3CC0515FB81
:102CF00002F200EE102AB8EE400AE9B32F4ADFEDE7
:102D00002E0AB7EE001A6CB1DFED2D1A012C01D09E
:102D1000022C43D002EE101A1068F8EE422A81EE1F
:102D2000A22A1EE01C68A40611D51B6801EE901AA9
:102D30001168C3F3C103F8EE612AD84001EE900A8E
:102D4000C1F30800F8EE611A81EEA22A0BE001EE51
:102D5000901ADFED1C2A00BFF8EE611A106882EEAF
:102D6000A12AC0F3080001EE900AF8EE611A40EEC5
:102D7000201A31EE810A00E015E022EE000A106808
:102D8000C0F34620401C00EE900AF8EE600A80EE88
:102D9000201ABCEEC10A10EE100A70BD01EE901AA6
:102DA000DFED092AD8E7002070BD0000104402586A
:102DB0000090D00340787D01000000393044025873
:102DC0000024744A0024744C20BCBE4B2DE9F05FF3
:102DD00004007CD0FF4F2078FE4D1837DFF8F493C5
:102DE000103DC00748D0D9F80000396800F038001D
:102DF000102815D0182803D101F0030002280FD0A5
:102E00006068B0F5803F12D010B1B0F5A02F18D097
:102E1000286820F480302860286820F4802009E0A9
:102E20002868800328D560680028D2D024E028686C
:102E300040F480302860606888B1FEF7D3F8064619
:102E400009E0286840F480202860F0E7FEF7CAF81F
:102E5000801B64287ED828688003F7D50CE0FEF735
:102E6000C1F8064605E000BFFEF7BCF8801B6428E9
:102E7000F0D828688003F7D4207841F20308D54EB3
:102E80000C3E800753D5D9F80000396810F038009F
:102E90000ED0182801D188070AD0E068A8B32968A5
:102EA00021F0190101432960FEF79CF882461BE0DE
:102EB0002868400702D5E06800288AD0FEF78CF821
:102EC00040451BD82069402812D0316800E0CCE092
:102ED00021F47C3141EA0030306028E0FEF782F8CE
:102EE000A0EB0A000228B5D828684007F6D5E5E728
:102EF000306820F47C3040F40030EDE7207C31680D
:102F000021F0FE4141EA0060E6E7FFE7286820F093
:102F100001002860FEF766F8824605E0FEF762F8D9
:102F2000A0EB0A00022895D828684007F6D420783C
:102F3000C0065FD5D9F80000DFF898B2396800F014
:102F40003800ABF1040B082812D0182805D101F085
:102F5000030000E0EAE001280AD0E06900282868C0
:102F600038D040F080002860FEF73CF8824623E02D
:102F70002868C00523D5E069802876D11FE0206A43
:102F8000202821D0316821F0F84141EA806030608A
:102F900030E000BF94F82010DBF8002022F07C52D3
:102FA00042EA0161CBF8001024E000BFFEF71AF8F6
:102FB000A0EB0A00022896D82868C005F6D5FEF7CF
:102FC0000BF84045E6D8DAE7306820F0F84040F0EA
:102FD0008040DCE720F080002860FEF703F806461A
:102FE00005E000BFFDF7FEFF801B02289BD8286884
:102FF000C005F7D42078000729D576486169643088
:1030000000298046016811D041F001010160FDF7FF
:10301000E9FF064605E000BFFDF7E4FF801B02283C
:10302000C9D8D8F800008007F6D510E021F00101DA
:103030000160FDF7D7FF064605E000BFFDF7D2FFB0
:10304000801B022872D8D8F800008007F6D42078B8
:10305000800623D5A0690028286810D040F480504D
:103060002860FDF7BFFF064605E02CE1FDF7BAFF3B
:10307000801B02285AD828688004F7D50EE020F477
:1030800080502860FDF7AEFF064604E0FDF7AAFF7A
:10309000801B02284AD828688004F7D4207840078B
:1030A0004FD5DFF83481D8F8001041F48071C8F8AA
:1030B0000010FDF797FF064605E000BFFDF792FF01
:1030C000801B642832D8D8F80000C005F6D5414EE0
:1030D000A068603601280AD008B1052813D03068EE
:1030E00020F001003060306820F0040002E0306819
:1030F00040F001003060A06841F2883A90B1FDF7DD
:1031000071FF80460AE0306840F004003060EEE76E
:10311000FDF768FFA0EB0801514507D8306880072C
:10312000F6D50EE0FDF75EFF804607E084E000BFC5
:10313000FDF758FFA0EB080151457DD830688007A6
:10314000F6D4606AF0B3DFF88C80D9F8001008F18B
:103150002008C1F3C20103296FD00228286820F09B
:103160008070286003D0FDF73DFF044680E0FDF746
:1031700039FF064605E000BFFDF734FF801B02283B
:1031800073D828688001F7D4E26A40F2F3313868D6
:1031900054F8283F884340EA021018433860217BE6
:1031A0004FF4FE0C22894FF0FE47208A4902267D0B
:1031B000521E401EA1F5007189B20CEA0040C2F314
:1031C000080200E081E01143761E0143014807EA4E
:1031D000066203E010440258004802581C301143B4
:1031E0003B4AC8F80010016821F001010160116834
:1031F0004FF6F876236AB14341EAC30111600168D2
:10320000A26921F00C01114301600168E26921F01B
:10321000020111430160016841F4803101600168DD
:1032200041F400310160016841F4802101600168CE
:1032300041F00101016001E017E01DE0286840F065
:1032400080702860FDF7CEFE044604E0FDF7CAFE5C
:10325000001B022809D828688001F7D535E000BF97
:10326000FDF7C0FE001B022802D90320BDE8F09F35
:1032700028688001F4D428E039680128D8F80000D3
:1032800021D0A26A01F0030393421CD1E26AC1F388
:1032900005118A4217D1216BC0F30802491E8A42E8
:1032A00011D1616BC0F34622491E91420BD1A16B33
:1032B000C0F30642491E914205D1E16BC0F306609E
:1032C000491E814201D00120D0E70020CEE7000056
:1032D0003444025870B504004FF0010041D094F816
:1032E000210028B9002084F82000204600F03CF896
:1032F000022184F82110CA202268532150622068DC
:103300004162204600F030FD18BB2068154A8168F4
:1033100011408160D4E90013A569226988682A43B5
:1033200018431043886022682189E06840EA014020
:103330001061204600F03AFD58B92168CA6C22F0AD
:103340000302CA6422686369E169D56C19432943A1
:10335000D1642268FF215162002802D1012184F842
:10336000211070BDBFFF8FFF00680449884204D15F
:103370000348016841F40041016070470040005873
:103380007044025870B504460068C16821F0A0017D
:10339000C160FDF727FE4FF47A76054607E000BFCF
:1033A000FDF720FE401BB04201D9032070BD20680C
:1033B000C0688006F4D5002070BD401EB0F1807F4B
:1033C00010B501D3012010BD4FF0E02460610F2142
:1033D000601702F066FA0020A0610721216110BD8C
:1033E000FEE70000F0B500230A251C4630263727EB
:1033F00011E000BFB5EB107F02D906EB107C01E0B5
:1034000007EB107C01F813C001EB430C00015B1CBF
:103410008CF80140DBB29342ECD3F0BD30B587B0FD
:1034200014216846FDF7CDF92648016841F01001E6
:103430000160016801F010010591016841F004018B
:103440000160016801F004010591016841F080010B
:103450000160016801F080010591016841F00201FD
:103460000160016801F002010591016841F0080165
:103470000160016801F008010591016841F0010156
:10348000016000680022104D082100F00100059045
:103490002846FDF793FD0024082001218DE8130044
:1034A000694628460394FDF765FC02214FF400505D
:1034B00000900648CDE901416946FDF75BFC07B085
:1034C00030BD0000E04402580010025800080258C5
:1034D0002DE9F0410D4801210B4F20231024162522
:1034E00080C04FF4E066002280E87A00C0E905124F
:1034F000C261001FFEF73AFC002803D0BDE8F0418E
:10350000FDF76DBBBDE8F08100500052FC050024C2
:103510000C4800210A4A7F2310B5FF2404C080E82C
:103520001A00C160416181610161001FFFF7D2FE95
:10353000002803D0BDE81040FDF751BB10BD0000CE
:10354000004000584806002410490022104810B5D9
:1035500000F0EAFF08B1FDF742FB0E490C4801F00C
:10356000C9F908B1FDF73BFB0B49094800F0ABFD79
:1035700008B1FDF734FB064801F036FA08B1FDF753
:103580002EFBBDE81040FEF735BB000018000024FC
:103590006C060024A80000247C000024FEE770478D
:1035A0000148FDF757BF00003C0B00242DE9F04116
:1035B000044600690D462027236801284FF4004681
:1035C00004F5717203EB4511D3F840C0D1F8080B34
:1035D00009D0DFF89CE0F4453AD1020433D500BFAE
:1035E000C1F8086B40E0234B5FEA007E04D59C45A0
:1035F0003AD90004F4D437E05FEA806E02D5C1F80E
:10360000087B31E010F0280F2ED19C4501D9000431
:10361000E6D4D1F8103BC5EBC50004EB8000C3F342
:103620001203D0F80412A1EB0303C0F81432D0F84F
:1036300008321944C0F8081295B9D4F8100278B9C4
:10364000206801210AE080060AD5C1F8087B07E05E
:1036500035B9D4F8100218B90021184601F096FDCA
:103660002046E9B2FDF7D3FD0020BDE8F08100005F
:103670000A31544F0A30544F2DE9F84F0E46056871
:103680008146C1EBC60100EB8104D4E914203C342F
:10369000904202D90120BDE8F88FA168101A81423A
:1036A00000D20846C01C05EB461887081BE000BF87
:1036B000A268A0EB010A524500D2924699F8101078
:1036C0000AF1030000911FFA8AF3E168870828468F
:1036D000F2B202F005F8E16801EB0A00E060A169CE
:1036E00001EB0A00A061D8F8180980B2B84205D3EE
:1036F000D4E90501814201D20028D9D1D4E90501DC
:10370000884208D8D5F83418012006F00F029040FE
:103710008143C5F834180020BDE77047194B0022DB
:1037200030B597B01B78052B0ED000BF4FF4407317
:103730000E934FF005030B92CDE908320F921092D1
:1037400005D14FF0807304E04FF48073F0E74FF041
:10375000407311934FF001030D9213924FF48005C3
:103760004FF010041492CDE90223159207950494AA
:10377000CDE9053202AA0B4608A9FEF74BFA17B0AD
:1037800030BD0000A00000242DE9F0434B6A4FF04B
:1037900040652BB1AA4203D004688B6A5B1E23618B
:1037A0008B69002B68D00C6AB4B303688C68DC6149
:1037B000CC69FCB1D1E90B38D1F824C04E6B8F8AAB
:1037C00043EA080346EA0C0633430E6A43EA87439A
:1037D000D1E9037C43EA0C0333438E693B430F6812
:1037E0002343046833433B4365E0006849688161D3
:1037F000BDE8F083D1E90B364F6A4C6B8D8A3343B9
:103800003C430E6923430C6A43EA85438D69334385
:10381000096823432B4362E0FFE7CC69B4F1000958
:1038200018D0D1E90B484F6A4E6BB1F814C044EA86
:1038300008043E430F683443CE6844EA8C44344362
:1038400044EA09041C4303683C431443AA425C61F4
:10385000CBD1CDE7D1E90B464F6A4D6BB1F814C01F
:1038600034433D4300682C43096844EA8C441C43BC
:103870000C4314434461BBE70B6AABB303688C6829
:10388000DC61CC69E4B1D1E90B38D1F824C04E6BCE
:103890008F8A43EA080346EA0C0633430E6A43EA7A
:1038A0008743D1E9037C43EA0C0333438E693B43EE
:1038B0002343046833431343AA42636195D197E7D6
:1038C000D1E90B364F6A4C6B8D8A33433C430E690A
:1038D00023430C6A43EA85438969334323430068E1
:1038E0000B431343436183E7FFE7CC6984B1D1E91C
:1038F0000B384F6A4E6BB1F814C043EA08033E43DD
:103900003343CE6843EA8C43334323430468D2E70E
:103910004C6A002C9DD0D1E90B368F8A4D6B016823
:10392000334325432B4343EA8740104348615FE715
:103930001E4AF0B5137891B0042B1BD04FF480725F
:103940000692EF2700224FF44064CDE901274FF49F
:103950000055CDE90352260107AD4FF0407C062902
:103960004FF0040185E8501007D0EB240094042B9D
:1039700009D009E04FF44072E2E7ED23009305918E
:10398000DC070B9402E006210B9205914FF0805169
:103990000F920E92CDE90C210EAA6946FEF73CFA71
:1039A000002800D0012011B0F0BD0000A0000024CC
:1039B000F0B58FB00646002141F288344FF4807094
:1039C000224666250095CDE9060108913046099109
:1039D00005910B910C910D916946FEF771F9C8B9EB
:1039E00099272246694630460097FEF769F988B95B
:1039F0004FF4407022466946009506903046FEF727
:103A00005FF938B92246694630460097FEF758F903
:103A1000002800D001200FB0F0BDF0B58FB014AC7D
:103A200094E8E05000248DE81600CDE90334CDF889
:103A300024C041F28832CDE90774CDE90AE40C9440
:103A400069460D94CDE90556FEF73AF9002800D0F5
:103A500001200FB0F0BD2DE9F041984616460F4603
:103A60000446069D08E0681C06D0FDF7BBFAA0EBF3
:103A70000800A8420AD84DB120688068384000D0BC
:103A80000120B042EFD10020BDE8F081042084F88D
:103A90004100606C40F0010060640120F4E7000028
:103AA000F0B5204D074695B02878042815D04FF47E
:103AB00080700690002441F288360620079408940E
:103AC00032460594694609940B940C940D94009029
:103AD0003846FEF7F5F8F0B902E04FF44070E8E739
:103AE00002204FF0050C1022CDF800C043051393BF
:103AF0000E900121CDE90F02CDE911142878042898
:103B00000CD0080633460EAA694609903846FEF7DF
:103B100081F8002800D0012015B0F0BD4FF04070B2
:103B2000F0E70000A00000242DE9F047454D0446D1
:103B300089464FF0000A2868C04380070AD0414EEA
:103B4000283E306820F080603060FDF74BFA074671
:103B5000B04608E00120BDE8F08700BFFDF742FA5B
:103B6000C01B022867D8D8F800000001F6D42068EE
:103B700029684FF4FE0721F47C313E0241EA00300F
:103B80002860207AA389B4F804C040022D4D2D4945
:103B90005B1E227CACF1010C1035091DA0F50070F4
:103BA00080B2521ECCF3080C07EA034340EA0C0033
:103BB000184306EA0262104328600868626920F030
:103BC000C000104308600A68A06922F02002024386
:103BD0000A60281D0A6822F010020A6002684FF687
:103BE000F873E4699A4342EAC40202600868B9F1D2
:103BF000000F40F010020A6011D00868B9F1010FFF
:103C000011D040F400100860D8F80000444640F09D
:103C10008060C8F80000FDF7E5F905460DE008688A
:103C200040F40020EFE740F48010ECE7FDF7DAF90C
:103C3000401B022801D903208DE720680001F5D53B
:103C4000504688E7284402582DE9F047454D044680
:103C500089464FF0000A2868C04380070AD0414EC9
:103C6000283E306820F080503060FDF7BBF90746F1
:103C7000B04608E00120BDE8F08700BFFDF7B2F9CB
:103C8000C01B022867D8D8F800008000F6D420882E
:103C900029684FF4FE0721F07C713E0241EA005092
:103CA0002860207AA389B4F804C040022D4D2D4924
:103CB0005B1E227CACF1010C1835091DA0F50070CB
:103CC00080B2521ECCF3080C07EA034340EA0C0012
:103CD000184306EA0262104328600868626920F40B
:103CE0004060104308600A68A06922F40072024331
:103CF0000A60281D0A6822F480720A6002684FF682
:103D0000F873E4699A4342EAC40202600868B9F1B0
:103D1000000F40F480720A6011D00868B9F1010FF9
:103D200011D040F080700860D8F80000444640F0A0
:103D30008050C8F80000FDF755F905460DE0086809
:103D400040F48000EFE740F40000ECE7FDF74AF9AB
:103D5000401B022801D903208DE720688000F5D59B
:103D6000504688E7284402582DE9F041044600688F
:103D70000025C168490615D4691EC160FDF732F9F6
:103D8000032706464FF47A7808E000BFFDF72AF9CA
:103D9000801B404502D9032584F821702068C06843
:103DA0004006F3D52846BDE8F08100002DE9F0413A
:103DB000124C032706460025E06820F04000E06032
:103DC000A068800607D43046FFF7DCFA90B10325DF
:103DD00086F821700EE0A06820F02000A060304638
:103DE000FFF7D0FA10B1032586F82170A06840F0E3
:103DF0002000A0602846BDE8F08100000040005887
:103E000070470178407841EA00207047FDF7F0B82C
:103E100070B5CCB04C212FA8FCF7D3FC202142A8D0
:103E2000FCF7CFFCBC216846FCF7CBFC0220FDF779
:103E3000B7FE2A4800242A49026842F44042026040
:103E400002680A6842F001020A60096801F0010193
:103E50004A9101688904FCD5FDF7D4FEFDF7BCF852
:103E6000204A0121022016682523C50326F01806E2
:103E7000166039AE2F93CDE9305105223591C0231C
:103E8000389086E80D0008253E90CDE93C01CDE94B
:103E90003F542FA84194FEF799FF402009230501C4
:103EA000CDE9453042ABCDE9470549903F2103229A
:103EB00083E81600012142A8FEF79CFD4FF0117027
:103EC0001294AA102C924FF4401121910090684650
:103ED000FEF732F9FDF78EFE4CB070BD184802585F
:103EE0002C04005870440258214A30B52149146806
:103EF0000020204B44F47004146010330A681E4DF7
:103F000042F001020A6018600A681A4B2A400A60EF
:103F100018331C1D251D174A186028322060131DF8
:103F200028601C1D251D10602A1D1860131D2060AF
:103F30001C1D2860251D10601860206028600A681C
:103F40000C4B0E4C22F4802260330A60186020680B
:103F50006FF30F00B0F1005F03D209490120C1F8EF
:103F600008014FF0006002498039086030BD000050
:103F700088ED00E0004402587FEDF6EA0010005C96
:103F800000800051D0F8BC12002081F8500070472A
:103F900010B5D0F8BC223AB1D0F8C0025178C3684D
:103FA00010789847002010BD032010BD70B5812106
:103FB000044600F0DCFA00252587012120466587AC
:103FC00000F0D5FAD4F8BC02A4F87851A4F87A51DC
:103FD00048B1D4F8C00204F52F7480688047206887
:103FE000FCF727FA2560002070BD10B5D0F8BC4260
:103FF000E16C012907D1D0F8C0026178C26820784D
:1040000090470020E064002010BD00000A210180DC
:104010000048704770010024292101800048704742
:10402000E000002429210180004870470C01002491
:104030002921018000487047380100242DE9F04112
:1040400004465420FCF7C6F905004FF0000725D0C0
:10405000207C0126C4F8BC5220B36687A4F87A619C
:10406000402303222046812100F074FB4023204698
:1040700003222687012100F06DFBA4F8786185F802
:104080005070D4F8C0024068804740232A4601217E
:10409000204600F06BFB0020BDE8F0810220C4F850
:1040A000BC72F9E705206087A4F87A01D8E710B55B
:1040B000D0F8BC222AB14023012100F057FB002098
:1040C00010BD032010BD19B1C0F8C0120020704708
:1040D0000320704710B51346D0F8BC2222B190F8E7
:1040E0009C42032C02D00DE0032010BD92F85040FA
:1040F0000CB1012010BD012482F850400A468121F4
:1041000000F0DAFB002010BDF8B5D0F8BC32002278
:104110001546ADF800200C7814F06006144622D045
:10412000202E5AD14A78921E0A2A56D2DFE802F08F
:1041300010085555555555140C05887818644FE0EE
:10414000012203F1400139E04888000A586447E041
:10415000012203F1440131E00122DA64CA881946E0
:1041600000F069F83CE04E78062E10D003DC3EB13A
:10417000012E32D134E00A2E23D00B2E2DD128E08F
:1041800090F89C22032A28D10222694616E04B8827
:104190002226B6EB132F07D1CA88142A00D914227D
:1041A000D0F8C0120D6808E02126B6EB132F04D119
:1041B000CA880E4D092A00D90922294600F055F86F
:1041C0000EE090F89C22032A07D1012203F1480156
:1041D000F4E790F89C22032A04D000F021F803248D
:1041E0002046F8BD88789864FAE70000640100244E
:1041F00010B5D0F8B8220AB152689047002010BD1F
:1042000013460A46002110B500F0B0FA002010BD98
:1042100013460A46002110B500F04EFB002010BDE9
:1042200010B58021044600F023FB2046BDE8104075
:10423000002100F01DBB10B5C0F858210323C0F8C1
:1042400094321346C0F85C210A46002100F08EFA31
:10425000002010BD0521002310B51A46C0F89412A5
:10426000194600F083FA002010BD10B582610223C8
:10427000C0F894321346C2610A46002100F01CFBCC
:10428000002010BD0421002310B51A46C0F8941276
:10429000194600F011FB002010BD10B50446D0F8FF
:1042A000B802012184F89C1218B142682046217995
:1042B0009047D4F8CC0210B10020C4F8CC022046BC
:1042C00000F0E8FA002804D12046BDE8104000F0D4
:1042D000E3B910BD04A00A46024910B500F0F3F896
:1042E000004810BD3C09002453544D333220484946
:1042F0004420426F6F746C6F6164657220436F6E0F
:104300006669670012200880004870473800002462
:1043100004A00A46024910B500F0D5F8004810BDC7
:104320003C09002453544D33322048494420426F05
:104330006F746C6F6164657220496E74657266613A
:1043400063650000042008800048704734000024A2
:1043500004A00A46024910B500F0B5F8004810BDA7
:104360003C09002457654163742053747564696F78
:104370000000000004A00A46024910B500F0A3F8AE
:10438000004810BD3C0900245765416374205374F4
:104390007564696F2048494420426F6F746C6F6187
:1043A0006465720010B51A2008800B480A4908306D
:1043B000021F096800681468081809D00749082214
:1043C000FFF710F80549042220461031FFF70AF8DC
:1043D0000248801E10BD000000E8F11F4E000024BE
:1043E000F8B504460D460020ADF800004888010AE3
:1043F00008295FD2DFE801F05E0409175E5E3C45E4
:10440000D4F8B412207C0A6819E0207C0226002827
:10441000D4F8B80205D0C16A68468847014646709C
:1044200039E0816AF8E7C0B2062843D2DFE800F03D
:10443000030A1014181CD4F8B402426805E0694657
:1044400090471CE0D4F8B402826892B3207CF6E76F
:10445000D4F8B402C268F8E7D4F8B4020269F4E709
:10446000D4F8B4024269F0E7D4F8B4028269ECE708
:10447000207CF0B9D4F8B802416B68468847014601
:1044800009E0207CA8B9D4F8B802016B68468847D7
:10449000014607204870EA888AB1BDF8000040B1A3
:1044A000824200D902462046ADF80020FFF7DDFE2B
:1044B000F8BDFFE729462046FFF7B2FEF8E72046A1
:1044C000FFF7E0FEF4E770B500284FF000051ED0BE
:1044D00004462E4602E0761C641CF6B22378002BBC
:1044E000F9D1022404EB4604148012786B1C0326D5
:1044F0004A550024AA1CCE5406E0551C8B54EAB23F
:10450000531C401C8C54DAB20378002BF5D170BDDB
:1045100001004FF0000004D0012901D0022901D090
:10452000032070470120704730B4A0B1D0F8B842E2
:1045300000230CB1C0F8B832D0F8CC420CB1C0F8AE
:10454000CC3209B1C0F8B4120121027080F89C127B
:1045500030BC00F0B9B830BC0320704710B5D0F8BB
:10456000C402FCF79AFEBDE81040FFF7D1BF10B5BA
:10457000D0F8C402FCF76BFEBDE81040FFF7C8BFDF
:1045800070B51646044649B1D4F8B80242691AB16A
:1045900094F89C02032842D0032070BDD4F89412F2
:1045A000002504F11400022932D1D0E902329342ED
:1045B00006D99A1A314682602046FFF729FE0FE09D
:1045C0009A4214D14068904211D3D4F8981288428C
:1045D0000DD2002220461146FFF71AFEC4F8985269
:1045E00000231A461946204600F0C0F810E0D4F81F
:1045F000B802C16829B194F89C02032801D1204671
:1046000088478021204600F033F92046FFF722FE3C
:1046100094F8A002012806D184F8A05203E02046B5
:1046200090470028B9D1002070BD10B5134604464C
:1046300049B1D4F8B80282691AB194F89C020328EF
:1046400024D0032010BDD4F8941204F5AA700329D5
:1046500020D1D0E9021291420AD98A1A8260C06838
:10466000824200D3024619462046FFF7C9FD11E0F9
:10467000D4F8B802016929B194F89C02032801D149
:10468000204688472046FFF7FDFD03E0204690477F
:104690000028D7D1002010BD10B5D0F8C402FCF717
:1046A000C0FDBDE81040FFF733BF0020704710B5D4
:1046B000D0F8B812012280F89C2219B103794A6817
:1046C000D9B29047002010BD70B5017839BB1549AB
:1046D00000220223144C0925C1F80404C0F8C412B6
:1046E0000846C1E90332C1E906320A624A628A62B7
:1046F000CA620A63C1E90045FDF7EEF808B1FCF7AC
:104700006EFA08488021FCF74EFD06484022002141
:10471000FCF74DFD034880220121FCF748FD0020F5
:1047200070BD00003C0B002400000840D0F8C422FB
:1047300001F07F000B06C0EBC00002EB800002D549
:1047400090F83E00704790F8FE01704700207047D7
:104750000020704710B51C46D0F8C402134622460C
:10476000FCF7C9FDBDE81040FFF7D2BE10B5D0F888
:10477000C402FCF7F0FDBDE81040FFF7C9BE70B5FC
:10478000044601250020D4F8BC1284F89C52C4F8D9
:1047900094026060C4F8A40229B1D4F8B8020021E0
:1047A0004268204690470022204640231146FFF7EA
:1047B000D1FF4026A4F864510022334680212046D0
:1047C000C4F86061FFF7C6FFA5840020266270BDB3
:1047D00090F89C12042903D190F89D1280F89C1245
:1047E0000020704710B590F89C12032904D1D0F82E
:1047F000B812C96901B18847002010BD01740020BA
:10480000704710B5D0F8C402FDF756F9BDE8104066
:10481000FFF77EBE70B5044600F2AA20054600F000
:1048200054F8B4F8B032012194F8AA0210F01F0233
:10483000C4E9A5130AD0012A0ED0022A12D000F032
:1048400080012046BDE8704000F012B8294620469D
:10485000BDE8704000F0CAB829462046BDE8704067
:1048600000F0F5B929462046BDE8704000F049B98E
:1048700010B5D0F8C402FCF790FDBDE81040FFF77A
:1048800047BE10B5D0F8C402FDF731F9BDE81040BD
:10489000FFF73EBE10B5D0F8C402FDF749F9BDE8F8
:1048A0001040FFF735BE90F89C22042180F89D222D
:1048B00080F89C120020704710B5D0F8C402FCF7B5
:1048C000A6FDBDE81040FFF723BE70B50546087889
:1048D0008C1C2870487868702046FFF792FAA41C58
:1048E00068802046FFF78DFAA880A01CFFF789FAA0
:1048F000E88070BD38B504460020ADF8000041B135
:10490000C4F8B8126846896A8847C4F8CC02002007
:1049100038BD032038BDD0F8B83202460320002B42
:1049200002D01B6810461847704700002DE9F0417F
:104930002C4E0446887800250F46C1B201293170FB
:1049400006D939462046FFF76BFC0320BDE8F0810D
:1049500094F89C0202280CD003281DD0394620462A
:10496000FFF75EFC31782046FFF742FC032528461E
:10497000ECE799B320466160FFF7CDFF050004D056
:1049800039462046FFF74CFCF1E72046FFF77AFC5A
:10499000032084F89C02EAE74FF00208C1B1606886
:1049A00088421BD0C1B22046FFF722FC3178204656
:1049B0006160FFF7B0FF050010D039462046FFF7D1
:1049C0002FFC21792046FFF713FC84F89C82CEE768
:1049D0006160204684F89C82FFF70AFC2046FFF7BE
:1049E00051FCC4E7A7000024FFF74BBF2DE9F041BD
:1049F0000A784FF0000512F0600208D0202A01D09A
:104A0000402A71D1D0F8B8229268904731E04B78B3
:104A1000002201260A2B67D2DFE803F0415E6658C8
:104A2000660805662D29FFF7DBFC5FE004468888F1
:104A3000D8B9C888C8B94888802816D294F89C226A
:104A400000F07F07032A10D03946204684F89E7272
:104A5000FFF7D7FE2046FFF715FC1FB1022084F8B0
:104A60009C0243E084F89C6240E020463CE0FFF773
:104A70005DFF05463AE0CB88012B35D190F89C329A
:104A8000012B04D0022B02D0032B2DD104E000F126
:104A900008018260012216E00122011D13E090F856
:104AA0009C22012A03D0022A01D0032A1CD1CA88E1
:104AB000022A19D1D0F8A412C66009B10321C1603D
:104AC000022200F10C01FFF7D0FB0FE04988012919
:104AD0000CD1C0F8A46211E090F89C32012B08D0F0
:104AE000022B06D0032B04D0FFF79AFB2846BDE823
:104AF000F08149880129F9D1C0F8A422FFF7C2FB4F
:104B0000F4E72DE9F0410446087800270D460979BD
:104B100010F060000BD0202801D0402873D1D4F8C9
:104B2000B802294682682046904707468CE068789C
:104B3000D8B3012822D0032865D194F89C0202281A
:104B400002D003287CD10BE0002979D0802977D0CE
:104B50002046FFF78DFE80212046FFF789FE73E097
:104B6000688838B931B1802904D0E88810B9204666
:104B7000FFF77EFE2046FFF785FB65E094F89C0278
:104B80000228E1D003285BD16888D8BB480602D050
:104B90002046FFF7E3FC2046FFF774FBD4F8B80289
:104BA00029468268204690474EE0FFE794F89C0231
:104BB0000026022802D0032842D111E009B1802941
:104BC0003ED1080601F07F0000EB800004EB80017D
:104BD00001D5143101E001F5AA7102220E602BE02B
:104BE000080601F00F0000EB800004EB80000BD5FD
:104BF000808C40B101F07F0000EB800004EB800569
:104C000014350CE020E01BE0B0F86401C0B101F005
:104C10007F0000EB800004EB800505F5AA7541B12B
:104C2000802906D02046FFF781FD10B101202860C1
:104C300000E02E60022229462046FFF716FB03E023
:104C400029462046FFF7ECFA3846BDE8F08170B5FA
:104C5000064608780D464FF0000410F0600003D0BF
:104C6000202801D0402817D196F89C02012803D0B3
:104C7000022801D003280FD1287901280CD8D6F8B2
:104C8000B8028268304690470446E888204306D13F
:104C90003046FFF7F7FA02E03046FFF7C1FA204648
:104CA00070BD000070B54D7801230A78012D1C4CB1
:104CB00002F00F0503FA05F3D0F81C5817D000EBEB
:104CC000421245EA0343C0F81C38D2F8000B000436
:104CD0000BD40B89C978D2F8000BC3F30A0318432D
:104CE00044EA81410843C2F8000B002070BD9EB227
:104CF0003543C0F81C5800EB4213D3F800090004F8
:104D0000F3D40D89C978D3F80009C5F30A058904DD
:104D1000284341EA825108432043C3F80009E4E7ED
:104D200000800010D0F800196FF30A01C0F80019D4
:104D3000D0F8041841F48071C0F8041800207047BE
:104D400070B5044606990A9E049D01290D9816D057
:104D5000E06840F04000E060204600F02DF8A16BD4
:104D600026B321F48031A163012D07D1A16841F060
:104D70000601A160A16841F02001A16070BDA26B95
:104D800001280C4922F48030A063E06800EA0100A9
:104D9000E060E06820F44010E06003D1E06840F497
:104DA0008010E060204600F007F8DDE741F4803134
:104DB000D9E70000BFFFBDFF0C49012202E0521CF1
:104DC0008A420BD80369002BF9DA0369012243F008
:104DD0000103036104E0521C8A4201D90320704799
:104DE0000369DB07F7D1002070470000400D030086
:104DF00070B50A7801234C78012C00EB42122CD0BC
:104E0000D2F8004B002C0BDAD2F8004B44F00064CF
:104E1000C2F8004BD2F8004B44F08044C2F8004B7B
:104E20000C78D0F83C5804F00F0403FA04F425EA97
:104E30000444C0F83C480978D0F81C4801F00F0140
:104E40008B401C4924EA0343C0F81C38D2F8000BFD
:104E50000840C2F8000B002070BDD2F80049002CB9
:104E60000BDAD2F8004944F00064C2F80049D2F8E5
:104E7000004944F08044C2F800490D78D0F83C481D
:104E800005F00F050C4E03FA05F5ADB2AC43C0F8C2
:104E90003C48D0F81C48097801F00F018B4099B2CA
:104EA0008C43C0F81C48D2F800093040C2F8000911
:104EB000D1E700000078F3EF007833EC10B5D0F8BC
:104EC000041821F00201C0F804180320FBF788FE43
:104ED000002010BD10B5D0F8041841F00201C0F850
:104EE00004180320FBF77CFE002010BD2DE9F04FD5
:104EF0000E4604460021DDF824B00D46109F0846FA
:104F0000DDF82C2004EB800CCCF80411401C0F2899
:104F1000F8D32046AFB1806B40F4001CC4F838C011
:104F200088460846C4F8000ED4F80008012A214635
:104F3000C4F800081BD00846D1F8001841F003015E
:104F40001BE0D0F8040840F0020CC4F804C8A06BC1
:104F500020F4001CC4F838C0206840F0400CC4F8AD
:104F600000C0206840F0800CC4F800C0D8E70846B4
:104F7000D1F800180BB141F00101C0F80018102160
:104F800000F092FA00B10125204600F07DFA00B150
:104F9000012540464FF000694FF67F334FF0904AAD
:104FA000C4F81088C4F81488C4F81C88002114E0E0
:104FB00004EB4112D2F800C9BCF1000F06DA11B1BE
:104FC000C2F800A904E0C4F8009901E0C2F80009A1
:104FD000C2F81009C2F80839491C8E42E8D80021ED
:104FE00015E000BF04EB4112D2F800CBBCF1000F7A
:104FF00006DA11B1C2F800AB04E0C4F8009B01E08E
:10500000C2F8000BC2F8100BC2F8083B491C8E42D4
:10501000E8D8D4F81038BBF1000F6FF0804223F4C9
:105020008073C4F81038A061626103D1A06940F0B8
:105030001000A061A069094A0C9940EA0200A06131
:1050400019B1A06940F00800A061012F03D1A06947
:1050500003490843A0612846BDE8F08F00383C8032
:1050600004000040816821F0010181600020704748
:1050700070B50B784E78444C0D78012E00EB43133D
:1050800020D0D3F8100B6FF31200C3F8100BD3F835
:10509000100B2040C3F8100B486908B188684861BC
:1050A000D3F8100B012A40F40020C3F8100BD3F8FA
:1050B000100B8A68C2F3120240EA0200C3F8100B18
:1050C00056D059E04E69002ED3F8106933D06FF3F3
:1050D0001206C3F81069D3F810692640C3F81069A6
:1050E0004E698C68A64200D94C61D3F8104944F44B
:1050F0000024C3F81049D3F810494E69C6F31206CC
:1051000054EA0604C3F81049012A22D000EB4512E4
:10511000D2F8003943F00443C2F800394A6932B387
:105120000B78D0F83418012203F00F039A40114392
:10513000C0F8341826E02640C3F81069D3F81049A7
:1051400044F40024C3F81049D3F810496FF3120453
:10515000D8E7096919B100EB4512C2F8141900EB40
:105160004510D0F8001941F00441C0F8001909E0D9
:10517000C86808B1C3F8140BD3F8000B40F0044022
:10518000C3F8000B002070BDFFFF07E010B5144C02
:10519000036CA34203D9D0F8003B002B1EDB002395
:1051A000C0F8103B0129D0F8101B41F40021C0F8D1
:1051B000101BD0F8101B41F01801C0F8101BD0F8DC
:1051C000101B41F0C041C0F8101B07D1C0F8142BD0
:1051D000D0F8001B41F08021C0F8001B002010BD5A
:1051E0000A30544F0B784A78012A00EB43100BD059
:1051F000D0F8002B22F40012C0F8002BC978032944
:1052000014D0022912D017E0D0F8002922F400129D
:10521000C0F80029C978032901D002290CD1D0F89F
:10522000001941F08051C0F8001905E0D0F8001BCA
:1052300041F08051C0F8001B002070470A784B787D
:10524000D1B2012B00EB421012D0D0F8002B002A73
:1052500006DB29B1D0F8001B21F08041C0F8001B0B
:10526000D0F8001B41F40011C0F8001B002070476B
:10527000D0F80029002A06DB29B1D0F8001921F066
:105280008041C0F80019D0F8001941F40011C0F8AD
:105290000019EBE7F8B50B786FF060464F78764D64
:1052A000DCB2012F00EB431326D0D3F8104B6FF381
:1052B0001204C3F8104BD3F8104B2C40C3F8104B1A
:1052C0004C698D68002C74D0D3F8107B2C44641E7C
:1052D000B4FBF5F4A4B206EAC4452F43C3F8107B2F
:1052E000D3F8105B8E686643C6F312042543C3F8F7
:1052F000105B012A72D0A6E04F6927B3D3F810796A
:105300006FF31207C3F81079D3F810792F40C3F860
:1053100010794F698D68D3F810C92F447F1EB7FBF1
:10532000F5F506EAC54545EA0C05C3F81059D3F86A
:1053300010594E69C6F312063543C3F81059CD789B
:10534000012D10D01BE0D3F810692E40C3F810696E
:10535000D3F8105945F40025C3F81059D3F8105963
:105360006FF3120509E0D3F8105925F0C045C3F8D2
:105370001059D3F8105945F00055C3F81059012AB7
:1053800018D000EB4413D3F8004944F00444C3F8A8
:105390000049CC78012C2FD04A6962B30B78D0F841
:1053A0003418012203F00F039A401143C0F8341857
:1053B0005FE036E00A691AB100EB4413C3F8142920
:1053C000C97801290FD1D0F80818C90500EB44119C
:1053D000D1F8002903D442F0005202E02FE042F05D
:1053E0008052C1F8002900EB4410D0F8001941F0B8
:1053F0000441C0F800193CE0D0F80848E405D3F8AF
:10540000004902D444F0005401E044F08054C3F851
:10541000004900928B8A0A78C9689BB200F060F953
:1054200027E0D3F8104BC5F312052C43C3F8104BFB
:10543000D3F8104B44F40024C3F8104B59E7CA6862
:105440000AB1C3F8142BC97801290CD1D0F8080887
:10545000C005D3F8000B02D440F0005001E040F04A
:105460008050C3F8000BD3F8000B40F00440C3F8A1
:10547000000B0020F8BD0000FFFF07E0816841F04D
:105480000101816000207047064A1021016100215E
:10549000491C914201D9032070470369DB06F7D408
:1054A00000207047400D03002023074A43EA811380
:1054B00003610021491C914201D90320704703690F
:1054C0009B06F7D400207047400D0300D0F8080871
:1054D00010F0060004D0022803D0062801D00F20C7
:1054E000704702207047406900F001007047D0F813
:1054F0001818D0F81C08084080B27047D0F8181867
:10550000D0F81C080840000C704710B5D0F81028DF
:1055100001F00F0300EB4114D0F83418D4F8080957
:10552000D94001F0010142EAC111084010BD00EB71
:105530004111D1F8081BD0F81408084070474169A0
:10554000806908407047D21C00F580509308002203
:1055500010B502E00468521C10C19A42FAD3084602
:1055600010BD10B5C268012922F0C042C26002D04D
:1055700029B1012010BDC16841F0005102E0C168AD
:1055800041F08041C1603220FBF72AFB002010BDB2
:10559000D0F800284FF4FE6303EA011322F4FE6200
:1055A000C0F80028D0F800181943C0F800180020EF
:1055B00070470000022A3ED1264A274B0A449A42ED
:1055C00001D20F2138E0254A254B0A449A4201D2E4
:1055D0000E2131E0234A244B0A449A4201D20D2184
:1055E0002AE0224A224B0A449A4201D20C2123E0AB
:1055F000204B214A0B44934201D20B211CE01F4B4C
:105600001F4A0B44934201D20A2115E01D4B1E4A4A
:105610000B4493420FD31D4B1D4A0B44934201D2BE
:10562000082109E01B4B1C4A1944914201D2072171
:1056300002E0062100E00921C2684FF4705322F411
:105640007052C26003EA8123C1681943C16000201F
:1056500070470000405327FF00350C00401E1BFF21
:1056600040420F0000DC0BFF804F1200808CF9FEDF
:1056700020D6130060B6E5FE60E3160000D3CEFE30
:1056800040771B00C05BB3FEC091210000CA91FEB1
:1056900020753800E05459FEE09C410010B55FF0E1
:1056A000000104464FF67F3004EB4112491C0F29DC
:1056B000C2F80809C2F8080BF6D30020C4F8100895
:1056C000C4F81408C4F81C082046FFF7DDFE0028C3
:1056D00005D12046BDE810401021FFF7E5BE10BD02
:1056E00010B5029C64B900EB0230DB1C00229B0861
:1056F00000F5805002E010C90460521C9A42FAD3AF
:10570000002010BDFEE710B5052000F099FBC00792
:10571000FAD110BD10B586B0044600F09BF8FFF733
:10572000F2FF104800214FF400530078052810D0F4
:105730004FF440605FEAA0020491CDE902010A48FB
:10574000CDE9001220212246FEF767F9040004D0BB
:1057500005E04FF480608210EEE7FFF7D4FF06B05B
:10576000204610BDA0000024FC050024F0B585B043
:1057700014460E46054600F06DF817484FF040718C
:105780004FF4005302780020052A0FD08A130494A6
:105790000F14CDE902215FF002013246CDE9000786
:1057A0000E48FEF73AF9040009D012E04FF4806287
:1057B0000494CDE90221971032463221EEE70748E2
:1057C00041F288322946FCF75BFC040001D1FFF767
:1057D0009AFF05B02046F0BDA0000024FC0500247F
:1057E0001A4BF0B51B780546EB20042B8FB029D05F
:1057F00004244FF4807300904FF40050FF27CDE94C
:10580000054300234FF4406407944FF0407CCDE9FA
:10581000030326010C93CDE90A230D9341F288344A
:10582000CDE901170A482246CDE9086C6946FCF724
:1058300047FA002804D1064822462946FCF7C0FB57
:105840000FB0F0BD06244FF44073D4E7A00000244D
:10585000FC050024024810B5FEF722F9C0B210BDC5
:10586000FC0500242DE9F04107461546C8B20E4656
:10587000C0F58074A24200D8ACB24FF480782246C2
:1058800031463846FFF772FFA54208D02D1B45452B
:105890002744264401D94446F1E7ACB2EFE7BDE81E
:1058A000F081090700284FEA116104DB00F1E020D4
:1058B00080F80014704700F00F0000F1E02080F83D
:1058C000141D704700F1E04108B504226846FFF757
:1058D00087FF0A4900980140B1F1105F0CD0B1F187
:1058E000005F09D0C0F3CA41B1F5C06F04D00449CC
:1058F000084000D0012008BD002008BD0000F82F9E
:105900000000F83F1948F8B5008800242546A0F5A6
:105910006F41163904D0A0F56F41173903D004E068
:105920004FF4005601E04FF48046684604220021FF
:10593000FFF756FF0E4F15E00098401C14D00122CF
:1059400038460821FBF73AFB2803FFF7E3FEA007E0
:1059500001D1241DA4B268460422A102FFF740FF32
:105960006D1CADB2B442E7D32046F8BDA2000024BE
:10597000001002582DE9F84F474C2078012840D1FB
:10598000464800250622257004F10C01FAF754FE62
:10599000424E4036E0B1A18806F140004022084462
:1059A0003E49FAF775FEA0884FF480684030A08029
:1059B000A088404525D1A7680022DFF8E4A008218F
:1059C0004FEA87295046FBF7F9FAB80739D03FE08C
:1059D0003248817991B1012915D0022920D00429BA
:1059E0000FD1E1680164218AA0F84410FFF78AFF13
:1059F0002CA10246B01DFAF743FD44E0A560A58046
:105A00006580BDE8F88F0A20FBF7EAF82748FEF723
:105A100044FC0A20FBF7E4F8BDE8F84FFBF79CBB19
:105A2000E1680164218AA0F84410FBF7CDFA03462F
:105A30001F4820A221A100880090B01DFAF720FD88
:105A400021E060880003FFF765FE6088401C6080ED
:105A50001248424649468030FFF704FF0122504673
:105A60000821FBF7ABFAA068401CA060A58040218C
:105A70000A484030FAF783FE08481CA14030FAF784
:105A8000FFFC03213154BDE8F84F04494022074888
:105A90004031FEF71FBB0000000000247C01002401
:105AA0000010025825644B42000000006C060024E0
:105AB000A200002456312E32000000002573203051
:105AC0007825582051535049466C6173683A20300C
:105AD000782558204150502053746172743A203018
:105AE0007839303030303030300000005765416355
:105AF000743A0000BFF34F8FBFF36F8F7B480024D1
:105B00000460BFF34F8FBFF36F8F7949086840F48B
:105B100000300860BFF34F8FBFF36F8F7448703051
:105B20000460BFF34F8F001F43F6FF7600686F4D90
:105B30001035C0F34E32C0F3C90306EA42171846C7
:105B400047EA807CC5F800C0401EF9D2521EF4D24C
:105B5000BFF34F8F086840F480300860BFF34F8F69
:105B6000BFF36F8FFBF74CFAFEF752F9FDF756FCC7
:105B7000FDF7CEFC00F03AF900F0CCF85D4F4FF4A1
:105B8000005631463846FBF70DFADFF86C910128D4
:105B90004FF0E02807D04FF010452846FFF792FE5F
:105BA00000287ED045E03220FBF71AF800253AE0C5
:105BB00008214846FBF7FBF96420FBF711F86D1C40
:105BC000142D30D106E008214846FBF7F0F92820D3
:105BD000FBF706F831463846FBF7E4F90128F2D026
:105BE0004648FCF7B0F84FF6FF7A45485146FBF7B8
:105BF00009F844485146FBF705F851463846FBF78B
:105C000001F841485146FAF7FDFF51464846FAF778
:105C1000F9FFFAF78BFFC8F810403C49486809685B
:105C200081F30888804731463846FBF7BBF90128E5
:105C3000BED0FDF789FC364DFFF79CFEFBF7D2F98D
:105C40004045F9D0FBF7CEF9804668780028A8884F
:105C500010D0401E80B2A8806E2800D86C707820CA
:105C6000A988B1FBF0F0C1B22970A87814280BD92B
:105C7000AC700BE0401C80B2A880B0F5966FEED3FC
:105C800001206870EBE70CE0401CA870A8788842FF
:105C900001D3002200E0012248460821FBF78EF9DB
:105CA000CAE7062000F020F9FAF740FFC8F81040D4
:105CB0006868296881F3088880474FF4FA754C4674
:105CC00008212046FBF773F93220FAF789FF0821F3
:105CD0002046FBF76CF93220FAF782FF08212046B4
:105CE000FBF765F92846FAF77BFFE9E750EF00E09C
:105CF00014ED00E00008025800100258FC050024D2
:105D00000000025800040258000C02580098F01FCE
:105D10001200002430B5184D352085B000F090F801
:105D20000446800706D4FFF795FD312044F00201B8
:105D300000F0E6F800204FF4807103460246CDE9FA
:105D4000011038210390049000902846FDF765FE6D
:105D500041F288312846FDF7E1FC10B105B0012081
:105D600030BD06490420087005B008210846BDE88A
:105D7000304000F08FB80000FC050024A000002493
:105D8000184A062030B5C1051478420287B0052CA8
:105D90004FF4005316D0C501049000241248CDE9F9
:105DA000022190212246CDE9004500BFFDF735FED6
:105DB0000D4805A941F28832FCF702F968B10120CB
:105DC00007B030BDCDE903104FF480740090CDE9E9
:105DD0000142002204489421E8E7BDF8140040BACB
:105DE000EEE70000A0000024FC050024052010B50B
:105DF000FAF7F6FEFDF76CFB0648FDF7D9FD00202B
:105E0000FAF7EEFEFFF7BCFF03494880BDE81040FB
:105E100000F004B8FC050024A0000024052010B503
:105E200000F00EF8054C2070352000F009F8607085
:105E3000152000F005F8A070002010BDA40000247B
:105E400010B5124B86B0002201218DF814201B786A
:105E5000052B17D04FF040731C140491CDE9022399
:105E600000230146CDE9002409481A46FDF7D5FD77
:105E7000074805A941F28832FCF7A2F89DF8140002
:105E800006B010BD4FF080731C14E6E7A00000249C
:105E9000FC05002440084FF0FF3200B587B0000138
:105EA00002EBD101103801F0030108438DF8140012
:105EB000FFF7D0FC4FF04072002013140121049131
:105EC000CDE90202CDE90003C021034602460548A0
:105ED000FDF7A3FD034805A941F28832FCF7D0F88D
:105EE00007B000BDFC0500240146044810B5FDF7CD
:105EF0001FFD002800D0012010BD0000FC0500247B
:105F000013B51049002286B00B780121052B15D05E
:105F10004FF040731C140491CDE902230023014685
:105F2000CDE9002408481A46FDF777FD064807A981
:105F300041F28832FCF7A4F808B010BD4FF080732E
:105F40001C14E8E7A0000024FC0500244FF040707A
:105F5000E1EE100A70470000000001020304010294
:105F600003040607080930313233343536373839FF
:105F70004142434445464030580030313233343595
:105F800036373839616263646566403078000000F6
:105F9000B05F0008000000247C010000D40200086B
:105FA000746000087C0100242C14000030030008F9
:105FB000C16757654163743A1305431B0845041ACA
:105FC00051041A75041AA50413D5421B08110817A9
:105FD0000403090412013202164083042A572602E0
:105FE00001020301031A1A03120613FF092809A16B
:105FF0000175089540910306258103C0681424A506
:106000000B1B08A1041AA90419431182102C90D06B
:1060100003047205133D401408AD3F1408094142C2
:10602000081AEB0C1A85041A9104C11A25281A19AA
:10603000041A31041A0D041409022913010125C0A0
:106040003209042A02A11509211101140122141692
:1060500007058103402D0107050107291A091E2C98
:106060004A052C2994092B58691A31130A06320261
:046070002A401800AA
:040000050800029954
:00000001FF
